:020000040800F2
:1000000000000220551200087537010877370108F3
:100010007D3701087F37010885370108000000009F
:10002000000000000000000000000000C16E000899
:100030008737010800000000516F0008B56F000805
:10004000A5120008A5120008A5120008A5120008B4
:10005000A5120008A5120008A5120008A5120008A4
:10006000A5120008A5120008A5120008893701088A
:1000700095370108A1370108AD370108B9370108E4
:10008000C5370108D1370108A5120008A5120008DC
:10009000A5120008A5120008A5120008DD37010806
:1000A000A5120008F9370108A5120008A5120008DA
:1000B000A5120008A5120008A5120008A512000844
:1000C000A512000805380108A5120008A5120008AD
:1000D000A5120008A512000811380108A512000891
:1000E00013380108A512000800000000A51200083E
:1000F000A5120008A5120008A5120008A512000804
:10010000A5120008A5120008A5120008A5120008F3
:10011000A512000829380108A5120008A512000838
:10012000A5120008A5120008A5120008A5120008D3
:10013000A5120008A5120008A5120008A5120008C3
:1001400000000000000000000000000000000000AF
:10015000A5120008A5120008A5120008A5120008A3
:10016000A5120008A5120008A5120008A512000893
:10017000A5120008A5120008A5120008A512000883
:10018000A51200082B380108A5120008A5120008C6
:10019000A5120008A5120008A5120008A512000863
:1001A000A5120008A5120008A5120008A512000853
:1001B000A5120008A5120008A51200082D38010894
:1001C000A5120008A5120008A5120008A512000833
:1001D000A512000845380108A5120008A51200085C
:1001E000A5120008A5120008A5120008A512000813
:1001F000A5120008A5120008A5120008A512000803
:10020000A5120008A5120008A5120008A5120008F2
:10021000A5120008A5120008A5120008A5120008E2
:10022000A5120008A5120008A51200080000000091
:1002300039380108A512000800000000A5120008C6
:10024000A5120008A5120008A5120008A5120008B2
:10025000A5120008A5120008A5120008A5120008A2
:10026000A5120008A5120008A5120008A512000892
:10027000A5120008A5120008A51200080000000041
:10028000A5120008A5120008A51200080000000031
:0802900000000000A5120008A7
:1002A00010B5054C237833B9044B13B10448AFF3B0
:1002B00000800123237010BD04080020000000000E
:1002C0003C58010808B5034B1BB103490348AFF381
:1002D000008008BD00000000080800203C5801080C
:1002E00003685A004CBF43F0004323F00043184416
:1002F000704700BF2DE9F84329B34F1E0446154649
:100300003E464FF0000808EB060101EBD1714910A1
:1003100004EBC1094846FFF7E3FF0346C800083075
:100320008F42204409D0AB4209D8FFF7D9FF0138EA
:10033000A8420AD201F10108E5E7AB4205D9884598
:1003400001D04E1EDFE74FF000094846BDE8F883B4
:10035000012807D0022807D0044B00280CBF1846FC
:10036000002070470248704702487047150A00088D
:10037000190A00081D0A000830B5234B83B0044653
:100380008D1E3BB301A92846AFF30080E8B1019967
:100390002A46FFF7AFFF0146B8B1FFF7A1FF4B6850
:1003A000A064012B2BD0002B01F1040023DBFFF70D
:1003B00097FF0023C4E913030368002B10DBFFF74A
:1003C0008FFF2061002003B030BD0023092023618E
:1003D00003B030BD0D490E48091AC9100191D7E785
:1003E000C3F30360FFF7B4FF0028206114BF0020AF
:1003F000092003B030BD0123C4E91303DCE7002367
:1004000023610520DFE700BF00000000B47201088F
:10041000B46B01080368DA0710B5044606D49B07DD
:1004200000F1480009D500F04BFC2368590709D5B5
:100430001A070ED5DB0613D510BD00F039FC236872
:100440005907F5D404F1D00000F042FC23681A07E4
:10045000F0D404F5A87000F043FC2368DB06EBD46D
:1004600004F5E870BDE8104000F07EBC034600686B
:1004700000B11844704700BF09207047704700BFA3
:1004800070B504460E46316C2046FFF775FF0546F1
:1004900088B9336C6361324623692146012098474D
:1004A0000828F0D0072806D12846316CFFF7E6FF70
:1004B000301D00F0F1FB14F04DFC00BF2DE9F047BA
:1004C0000D1D064614460FCDADF5727D0DF10C0CD9
:1004D000ACE80F000FCDACE80F000FCDACE80F007B
:1004E00095E80F0002ADF768D6F818808CE80F0089
:1004F00000232B6021E02B6C73614FF4F0722946CE
:100500007AA814F077FC33697AAA314650469847A6
:10051000889BCDE9005821466B64814633463246BC
:100520000120B8470446E8B94FF4F0727AA928468A
:1005300014F060FCB9F1080F1BD1296C3046FFF7AD
:100540001BFF09345FFA84FA81460028D3D0AB6BD5
:100550004AF01001CDE9005832466B640120334661
:10056000B84708B14FF0090948460DF5727DBDE85E
:10057000F087B9F1070FF5D12046296CFFF77EFF10
:1005800003A800F089FB00BF406C7047F0B5CB6B4F
:100590000B640E1D0F4605460FCEF9B001AC0FC41B
:1005A0000FCE0FC40FCE0FC496E80F004FF0FF36EA
:1005B00084E80F00009606E02B696A4629469847B2
:1005C0000828044608D110992846FFF7D5FE0028D0
:1005D000F2D0092079B0F0BD6846FFF71BFF062C6A
:1005E000F7D139462846FFF74BFF00BF30B4DD6B2B
:1005F000C160826119461D64002230BC5EE700BF05
:1006000070B5C66843690B64AEB903690A4604460F
:100610000D46014602209847072805D008280FD12B
:1006200029462046FFF72CFF3046296CFFF726FFAE
:10063000281D00F031FB0122FFF740FF14F08AFB78
:1006400014F088FBC2681AB1CA6B0A64002235E74D
:100650009CE700BF704700BF836801460BB10120D3
:1006600018477047012912D009D873B90F2A0CD83E
:1006700000EB820218465368009A136070470339F2
:10068000012994BF012002207047022070470846CC
:10069000704700BF10B584B0002303AC0A46009435
:1006A0001946FFF7DFFF039804B010BD012912D0EF
:1006B00009D873B90F2A0CD800EB8200009A12688F
:1006C0004260184670470339012994BF0120022077
:1006D0007047022070470846704700BF10B584B0CD
:1006E000002303AC039200940A461946FFF7DEFF8D
:1006F00004B010BDF0B5D36B1364151D8C460646CF
:100700000FCDADF50F7D17AC0FC40FCD0FC40FCDBE
:100710000FC495E80F004FF0FF3784E80F006546DF
:10072000169710E0FFF7DAFF294616A8B0470346F0
:1007300016AA6946082083B9049B984705280446F1
:100740000CD0092809D026996846FFF715FE034604
:100750006A460C2116A8002BE4D0092416A8FFF73E
:1007600059FE20460DF50F7DF0BD00BF2DE9F04F7D
:10077000CC6C89B00D4654F8041B0694174600F063
:1007800003081E46002B79D00B0CDAB209048DF851
:100790001D30022304EB820405918DF81C302B6D73
:1007A000B8F1020F08BFAC6B13F001030CD0384650
:1007B00005A900F073FB18B9082009B0BDE8F08F57
:1007C000092009B0BDE8F08FD4F800A0BAF1000FFD
:1007D000EDD0019300F008030293022E4AD0B4F842
:1007E00000A0B4F802900434AA6C29F0010B0F2188
:1007F00038469344FFF74EFF834539D82AF001026B
:100800005A44824294BF002001204FEA490303F07A
:1008100002030AF0010A43EA0A03012B49D0022B22
:1008200032D0002BCCD1B8F1000F02D0002840F01C
:10083000CD800434D4F800A0BAF1000FCDD105A9C1
:10084000384600F02BFB0028BAD1019B002BB3D017
:100850000F213846FFF71EFF0E2102463846FFF7EC
:100860003DFF38466A4A0F21FFF738FF0720A8E707
:100870000020CAE7D4F804900834B5E7090203233E
:100880000591ADF81C308AE7236823F0004BB8F1DE
:10089000000F45D128B1029A002A5CD0BBF1000FAD
:1008A00074D0002B00DA04340BF1010B04EB8B0441
:1008B000C0E7B8F1000F19D1B0B1D4E90023991CF9
:1008C0004FEAD2723FF47CAF05F158010133049135
:1008D00000F09080201DFFF7C9FD04AB01462846BB
:1008E00013F0CEF900285BD10834A3E70D21384678
:1008F000D5F82090FFF7CEFE8145F5D1AB6A9C423A
:10090000F2D12046FFF7ECFC0F2102463846FFF7F4
:10091000E5FE38462A460021FFF7E0FE072050E7B3
:100920000D213846D5F82090FFF7B4FE814501D05F
:100930002368B6E7AB6A9C42FAD104220021C5E9DC
:100940000B12A318C5F828B06B6323688B4259DBE0
:1009500001230193A8E705F15803CDF80C8004F1B9
:10096000040AB04691461E460DE00496FFF77EFD50
:1009700004AB01460022284613F082F909F101096F
:100980000AF1040AE8B9D9455046EED138460D219E
:10099000FFF780FE049B2862C5E90934062010E7B2
:1009A00081460D213846FFF775FEB9F1020F286226
:1009B00025D12B46049A43F82C2F6B62AC6206209B
:1009C000FFE646462368DDF80C806AE72046FFF71D
:1009D00087FC04340246AC632846144613F0AEF993
:1009E00000283FF4EDAE384622460F21FFF776FE91
:1009F0000720E6E638460D21FFF74CFE2862049BEF
:100A00006B62DBE70BF1010004EB80007AE700BFCB
:100A1000F14901080023A9E60123A7E60223A5E680
:100A20002DE9F0430646C3B015461C46042900F2E2
:100A3000B980DFE801F09A53B7290300002C40F099
:100A4000B180102A00F2AE800368D80600F1F3806E
:100A500020AF384600F092F9B06B0023012404FA6D
:100A600003F22A42014604D051F8042B47F8232010
:100A700008460133042BF2D1B063384600F074F914
:100A8000002043B0BDE8F083032C40F08B8094B28B
:100A900004EB1243102B4FEA124500F283800368E7
:100AA0001F0700F1D08020AF384600F03BF907EB7C
:100AB000C501B56B54B10B46E81A01EBC401E40063
:100AC0001A5843F8042B8B42FAD125443846B563B3
:100AD00000F006F9002043B0BDE8F083012C4FEA96
:100AE000124895B25AD0052C5CD108EB0509B9F132
:100AF000200F57D8B8F10F0F77D9A946002D40F035
:100B00008880B36B6DB320AF4FF0000907EBC807C7
:100B1000043F03EBC50553F8041B47F8041FAB4221
:100B2000F9D1B9F1000F0FD06F464146102938BFF7
:100B3000102107EBC101843903EBC90553F8040BFD
:100B400041F8040FAB42F9D1012C00F08480B8F1D8
:100B50000F0FB56345D9B9F1000F02D0684600F018
:100B6000B7F8002043B0BDE8F083DCB9876B2346BB
:100B7000012094B206F1040C00FA03F22242394635
:100B800004D051F8042B4CF823200F460133102BCE
:100B9000F2D115F40050E4D1B76304E008EB05038B
:100BA000102B03D9022043B0BDE8F083B8F10F0F3A
:100BB000F8D83368DA0706D5304623F0030340F847
:100BC000483B00F079F820AF384600F075F8B36B79
:100BD000002D99D11D460435B563384600F068F8FC
:100BE000BFE720A800F06CF8B5E7B9F1100F40D9C5
:100BF000A9F110093368D90708D523F0010330465D
:100C000043F0020340F8483B00F05EF8B9F1000FF2
:100C100032D033685A0720D4B8F10F0F25D96F4668
:100C20003846C8F1100500F057F8002DB36B7FF778
:100C30007CAF20AF6AE723F01003336006F5E8705D
:100C400000F09CF804E723F00803036000F5A870A7
:100C500000F068F827E720AFBDE7304623F0040333
:100C600040F8D03B00F038F8D6E720A800F02CF888
:100C7000D5E74FF00009BDE7B8F10F0F3FF641AFE0
:100C800020AF384600F020F8B36B002D7FF43CAF66
:100C9000384600F015F864E700F1340191E83800B7
:100CA0009C46A6464CF8045D90E8FF0FE54600BD63
:100CB00090EC210B704700BF80EC210B704700BF08
:100CC00090EC200B704700BF80EC200B704700BFFA
:100CD000D0EC200B704700BFC0EC200B704700BF6A
:100CE000F0EC0201F0EC0211F0EC0221F0EC023128
:100CF000F0EC0241F0EC0251F0EC0261F0EC027118
:100D0000F0EC0281F0EC0291F0EC02A1F0EC02B107
:100D1000F0EC02C1F0EC02D1F0EC02E1F0EC02F1F7
:100D2000704700BFE0EC0201E0EC0211E0EC0221B0
:100D3000E0EC0231E0EC0241E0EC0251E0EC026157
:100D4000E0EC0271E0EC0281E0EC0291E0EC02A147
:100D5000E0EC02B1E0EC02C1E0EC02D1E0EC02E137
:100D6000E0EC02F1704700BFB0FC0181B0FC0191E2
:100D7000B0FC01A1B0FC01B1704700BFA0FC018133
:100D8000A0FC0191A0FC01A1A0FC01B1704700BF33
:100D9000EC4600B52DE900502DE9FF1F4FF0000390
:100DA0002DE90C0001A9FFF7F1FBDDF840E012B0DE
:100DB000704700BFEC4600B52DE900502DE9FF1F3C
:100DC0004FF000032DE90C0001A9FFF719FCDDF835
:100DD00040E012B0704700BFEC4600B52DE900506E
:100DE0002DE9FF1F4FF000032DE90C0001A9FFF7CB
:100DF00029FCDDF840E012B0704700BFEC4600B5BA
:100E00002DE900502DE9FF1F4FF000032DE90C00E4
:100E100001ABFFF7EBFBDDF840E012B0704700BF1D
:100E2000EC4600B52DE900502DE9FF1F4FF00003FF
:100E30002DE90C0001AAFFF75DFCDDF840E012B0DF
:100E4000704700BF027A7AB9437AA3B14268013B86
:100E500010B4437213680321141D01721A02446016
:100E6000026010BC180E70470368013A02721A0241
:100E70000260180E7047B020704700BF00B585B003
:100E800003AA0023009219460C22FFF7EBFB0398FC
:100E900005B05DF804FB00BFF0E700BF2DE9F043AB
:100EA000054685B00E464FF000083046FFF7CAFFF2
:100EB000B028044600F0B280070620D500F0F00309
:100EC000802B4DD0902B36D0A02B60D0B02B74D07F
:100ED000C02B00F08B8000F0F803D02B0BD100F07A
:100EE0000702013242F40022052301212846FFF7C0
:100EF00097FD0028D9D0092005B0BDE8F0830DF199
:100F00000C09002319468700CDF800900D222846D1
:100F1000FFF7A8FBFFB2039BCDF8009004376006F3
:100F20004CBFDF1BFF18002319460D2228460397EC
:100F3000FFF7BCFBB9E700F00D030D2BDBD003AFCF
:100F4000002300F00F02194600972846FFF78AFB9E
:100F50000023009719460D222846FFF7A7FBA4E7B8
:100F60003046FFF76FFF24022043B0F5004FC2D098
:100F700004010023A2B219462846FFF751FD0028BC
:100F8000B9D114F4004F18BF4FF001088DE7C243E8
:100F900002F007034FF47F621A41010702F47F62F7
:100FA0004FF0000348BF42F4804219462846FFF73D
:100FB00037FD00283FF479AF9DE7B12833D0B22840
:100FC00000F08B80B32839D000F0FC03B42B92D012
:100FD00000F007020132012342F40022194628469C
:100FE000FFF71EFD00283FF460AF84E7C62842D01B
:100FF000C7284CD000F0F803C02B5BD0C82860D0C5
:10100000C9287FF478AF3046FFF71CFF020300F0D9
:101010000F0002F470220130024365E7B8F1000FBF
:1010200018D0002068E73046FFF70CFF0246002882
:101030003FF461AF10F0F003D0D05CE73046FFF72B
:1010400001FF010300F00F0001F47021421C012395
:101050000A43C3E703AC43460E22414600942846A8
:10106000FFF700FB0094284643460F224146FFF756
:101070001DFB404640E73046FFF7E4FE010300F069
:101080000F0001F47021421C03230A43A6E73046F7
:10109000FFF7D8FE024600283FF42DAF10F0F00312
:1010A0007FF429AF04212846FFF7BAFC00283FF45B
:1010B000FCAE20E700F00F020132032342F42022AD
:1010C0008CE73046FFF7BEFE00F0F00200F00F03A1
:1010D0001032013343EA023206E700230DF10C0916
:1010E0000D221946CDF800902846FFF7BBFA30468E
:1010F000FFF7A8FE02064FF002070CD5039B00F095
:101100007F00B840034430460393FFF79BFE03067D
:1011100007F10707F2D4039BCDF8009000F07F049D
:1011200003F50172BC400023144419460D222846E1
:101130000394FFF7BBFAB8E610B5C26C84B05368ED
:1011400003248DF80C401B0202F108040846D279F2
:10115000019301A902948DF80D20FFF79FFE04B0C2
:1011600010BD00BF08B5FFF797FE806C08BD00BF3B
:1011700008B5FFF791FEC06CC379023300EB830022
:1011800008BD00BF000000000000000000000000DB
:1011900001F0FF01102A2BDB10F0070F08D010F828
:1011A000013B013A8B422DD010F0070F42B3F6D12C
:1011B000F0B441EA012141EA014122F007047FF045
:1011C00000070023F0E80256083C85EA010586EA9C
:1011D000010685FA47F5A3FA87F586FA47F6A5FAD8
:1011E00087F68EB9EED1F0BC01F0FF0102F00702E4
:1011F00032B110F8013B013A83EA010313B1F8D18F
:101200000020704701387047002D06BF354603386F
:10121000073815F0010F07D1013015F4807F02BFA8
:10122000013015F4C03F0130F0BC0138704700BFF9
:1012300010F8012B11F8013B012A28BF9A42F7D080
:10124000D01A7047034613F8012B002AFBD1181A55
:1012500001387047DFF834D0002103E00C4B5B58B5
:10126000435004310B480C4B42189A42F6D30B4AB8
:1012700002E0002342F8043B094B9A42F9D312F0F2
:101280000DFB13F083FD11F075FF70470000022085
:10129000C472010800000020040800200408002097
:1012A000A42E0020FEE7406870470000054B10B5F3
:1012B000044640F8043B13F0D3F9204612F0E1FD58
:1012C000204610BD0C60010810B50446FFF7EEFF84
:1012D0001C21204612F016FC204610BDC0E9001269
:1012E00000228260704700001F31034670B521F074
:1012F0001F048168406888B00A19824232D91C20D4
:101300001D4E12F05FFC332C04AB264405460293BD
:10131000C4F1330388BF00230F2B06EB03040193B2
:1013200007D9002201A902A813F078F9019B0290C5
:10133000049322463146029813F0DAF9019B029A8F
:10134000002103932846D15402A90C4B40F8043BDA
:1013500013F00FFA02A813F083F9094A0949284645
:1013600013F08EF818689A60084408B070BD2846DB
:1013700012F03EFC12F060FCA45F01080C60010852
:10138000AD120008F85F01080EB403B07047704753
:1013900070B50D46144615F8016B28461670156198
:1013A000013EFFF74FFF411C831C0D44A3600F2E2D
:1013B00011D8DFE806F0080B1A1A101010181010D8
:1013C0001010101010160823636004E055F8043B59
:1013D00006306360A060D4E901231344C4E90235F8
:1013E00070BD0423F0E70123EEE72B68ECE72DE95D
:1013F000F047804688B00E4617469946D2F800A0BE
:10140000042500246B1C534528D24C4526D003AA42
:1014100079194046FFF7BCFF9DF80C30012B10D125
:10142000069B6A461868596806EB840303C29DED63
:10143000007BB7EEC77B83ED007A059B01341D442A
:10144000E0E7102BF9D1069A06EB8403126807EE49
:10145000902AF8EEE77AC3ED007AEEE7204608B06E
:10146000BDE8F0872DE9F047804686B017469946DB
:10147000D2F800A04C1C04260025731C534522D230
:101480004D4520D001AAB9194046FFF781FF00223F
:101490000598114613F058FE9DF8043004F8010C2D
:1014A000022B0AD100220498114613F04DFE207041
:1014B000039B013502341E44DFE7102B02BF049B5F
:1014C0001B682370F4E7284606B0BDE8F0872DE9D5
:1014D000F041804686B00D460F6804240026631C48
:1014E000BB4208D2291901AA40460136FFF750FF36
:1014F000039B1C44F3E7304606B0BDE8F0812DE9BC
:10150000F0471C4686B0002307460E469046042549
:10151000D1F800A0E3606B1C53451CD201AA7119DD
:101520003846FFF735FFDDF8149041464846FFF78F
:101530007FFE039B68B99DF804200120C4F8109039
:101540002270049AE260029AC4E9012306B0BDE861
:10155000F0871D44DFE70020F8E7000007EE900A5F
:10156000F0EEE77A07B517EE900A01A913F08AFBAF
:10157000DFED0E6A07EE900A9FED0D7AA7EEA67AD0
:10158000DFED0C6AE7EE876A9FED0B7AA7EEA67A8D
:10159000F0EE477A9DED017AB8EEC77A77EE277ABA
:1015A00017EE900A03B05DF804FB00BFA8A19D3FB1
:1015B000F5CA83C0FBB3C040E09248C007EE100AF2
:1015C000DFED037A67EE277A17EE900A13F0E6BA9A
:1015D0008E5D134008B5FFF7C1FFDFED047A07EE1B
:1015E000100A67EE277A17EE900A08BD9B209A3EF4
:1015F00070474368188970474368CAB21868998869
:101600000BF09EBA08B54368998818680BF092FAF7
:1016100008BD0000036810B55B68044698470028C1
:101620002246054814BF01230323237700231946CC
:1016300005F072FEA06110BD35180008036910B5F1
:1016400004469BB103685B689847237F012B08D150
:1016500060B90423A069C8212377BDE8104005F0D4
:1016600099BE032B02D108B10223F3E710BD8368B2
:1016700010B5044613B1032201469847204610BD19
:10168000044B10B5044640F8083BFFF7F0FF204636
:1016900010BD00BF6058010810B50446FFF7F0FF09
:1016A0001821204612F02EFA204610BD034B10B52B
:1016B00004460360FFF7E4FF204610BD8858010888
:1016C00010B50446FFF7F2FF2021204612F01AFA67
:1016D000204610BD70B5002386B005460E46049323
:1016E00002AC8B6833B1022220469847F368059319
:1016F000B36804936A4605F1080394E8030082E89E
:10170000030093E8030084E8030092E8030083E801
:101710000300049B20462A692B61059B04926A6999
:101720006B610592FFF7A3FF06B070BD2046FFF77F
:101730009EFF12F081FA0000024AC0E90021002257
:1017400002617047605801080E4B1B682DE9F0419B
:101750005D68064605F15007AC35BD420FD057F81D
:10176000044B002CF9D0236820469B68984786429A
:10177000F3D123682046DB68BDE8F0411847BDE897
:10178000F08100BF3C0A0020FFF7DEBF002241606D
:10179000024902610160826102777047885801083E
:1017A00007B58DF80320826801910AB912F02EFF67
:1017B000C3680DF1030201A9984703B05DF804FB6B
:1017C000036910B5044643B154F8083B5B68984779
:1017D000002201462046FFF7E3FF10BD037F022BE6
:1017E00070B5044601D0042B20D123682046002682
:1017F0004FF47A755B689847002814BF01230323D0
:101800002377237F032B14D123694BB12368204610
:101810005B6898473246014604F10800FFF7C0FFB5
:101820002946A069BDE8704005F0B4BD0126FA253F
:10183000E7E770BDFFF7D2BF00207047704710B5D3
:101840000446602112F05EF9204610BD054B2021B0
:101850001B6810B504461868FFF746FD63686065AD
:10186000DC6410BD3C0A00202DE9F347DDE90B974D
:1018700004460D46006D394690469A4606F084FBB4
:101880000128064607D0002F0CBF01250325284656
:1018900002B0BDE8F08707F005F9B9F80030A9B249
:1018A000E06501934246636D6068009353460BF018
:1018B00083FB054620B91FB13946304607F0E6F9EB
:1018C000B9F80020616D0A9813F094FA0023206D96
:1018D0001A46194606F03CF9D9E72DE9F3470C9F63
:1018E00004460D46006D394690469946BDF82CA039
:1018F00006F04AFB0128064607D0002F0CBF012541
:101900000325284602B0BDE8F08707F0CBF8524621
:101910000A99E065606D13F06DFA636DA9B24246F5
:1019200000934B466068CDF804A00BF0DFFA054643
:1019300020B91FB13946304607F0A8F90023206DC1
:101940001A46194606F004F9DBE70000084B10B50B
:10195000C0E900310023044600F1080180F8582056
:101960004365012006F0A6F92065204610BD00BFA2
:10197000B0580108C36D37B5044633B10025C06DBA
:1019800001A9019507F0B4F9E56503B030BDC06C5D
:10199000FFF7F0BFFFF7FBBF0020704770B5059B56
:1019A000C268198803699A42C26803693CBF8468A7
:1019B00012190024D31A049A8B4228BF0B4602EB5B
:1019C00043039A420DD0016945684E1C35F8111049
:1019D000066122F8021B056981688D42F1D304611A
:1019E000EFE7002070BD704710B50446282112F0C3
:1019F00089F8204610BD00008369D3E900124FF436
:101A00007A73514301F2E731B1FBF3F18B00C90066
:101A100010B5036204460E4B1B681868FFF764FCA0
:101A2000226A0021E061520013F00CFAE36913B15D
:101A3000226AC4E901320023E3602361A3699A6842
:101A4000587B6261C2F89840BDE8104011F064BC58
:101A50003C0A002010B54469C1692268136843F448
:101A600080331360028C20460EF01CFD003818BF36
:101A7000012010BD08B540690EF058FC003818BFB1
:101A8000012008BD10B5074C04600024C0E9051210
:101A9000C46080F824400461C0E90144C0E90744FF
:101AA00010BD00BFD458010859B1836801294FEA1D
:101AB0005303036107D0012380F82430036A5B08D5
:101AC00004E00161F7E7002380F82430C360024B93
:101AD0001B68186904F0B0BC3C0A00200121D0F852
:101AE0009800FFF7E1BF0021D0F89800FFF7DCBFB6
:101AF00000207047704710B50446282112F002F804
:101B0000204610BD8369D3E900124FF47A73514324
:101B100001F2E731B1FBF3F18B00C90010B50362AC
:101B20000446114B1B681868FFF7DEFB226A002190
:101B3000E061520013F086F9E36913B1226AC4E947
:101B400001320023E3602361A3699A68587B1B7B01
:101B50006261C2F898401BB9BDE8104011F0ECBBBF
:101B6000BDE8104011F0F8BB3C0A0020836890F8F3
:101B700024205B082DE9F041044622BBC2689A424A
:101B800000D2E3604FF00008BDF81C704646FFB17C
:101B9000E368A568E068ED1A06996368BD4201EB49
:101BA000480103EB400028BF3D466A007F1B13F04D
:101BB00021F9E368A8441D44A368E560E2689A42FD
:101BC000E5D3E660E3E7C2689A42DBD30023D8E7B7
:101BD0003846BDE8F08110B54469C16922681368D0
:101BE00043F480331360028C20460EF0EBFB003888
:101BF00018BF012010BD08B540690EF097FB0038F2
:101C000018BF012008BD000010B5074C0460002477
:101C1000C0E90512C46080F824400461C0E90144B1
:101C2000C0E9074410BD00BFF858010838B5836902
:101C300005460C461B7B23B9054B1B68186904F04D
:101C4000E9FB013C18BF012485F8244038BD00BFE2
:101C50003C0A00200121D0F89800FFF7E7BF0021DF
:101C6000D0F89800FFF7E2BF0020704700207047CF
:101C7000C26803699A42C2680369F0B538BF8568D3
:101C8000069C38BF521900252188D31A059A8B4229
:101C900028BF0B4602EB430696420DD001694F1C4C
:101CA0000761476837F91110076922F8021B81683C
:101CB0008F42F1D30561EFE72380036A01330362AA
:101CC0000020F0BD704710B50446242111F01AFF22
:101CD000204610BD436973B5D3E900524FF47A73BF
:101CE0000446554305F2E735B5FBF3F5AA006D0050
:101CF0001046019212F0EFFB019A0021A061064606
:101D000013F0A0F80023A5606660E3602361E36937
:101D1000C3F8CC4202B070BD10B5064C046000247C
:101D2000C4600461C0E90144C0E90524C0E90714A6
:101D300010BD00BF1C5901082DE9F84300270446D7
:101D400088465608B946D6B1E36808EB4701A5684E
:101D5000E068ED1A6368B54203EB400028BF3546E2
:101D60006A00761B13F046F8E3682F441D44A3680D
:101D7000E560E2689A42E6D3C4F80C90E3E7034BCF
:101D80001B681869BDE8F84304F056BB3C0A002004
:101D9000024B1B68186904F01ABC00BF3C0A002003
:101DA000024B01221B68186904F034BA3C0A002077
:101DB000024B01221B68186904F048BA3C0A002053
:101DC000D0F8CC02FFF7B8BF4B1ED0F8CC02594276
:101DD0005941FFF7DDBF4B1ED0F8CC0259425941A3
:101DE000FFF7E6BFD0F8CC02FFF7DABF704708462E
:101DF0001146002205F052BC084611461A4606F06C
:101E000023B810B50446042111F07CFE204610BD15
:101E1000084605F067BA08461146002205F04CBE98
:101E2000012006F033BF0000002307B50846114625
:101E300001AA019306F06CF9019B3BB1054B4FF0F1
:101E400080521A60BFF34F8FBFF36F8F012003B032
:101E50005DF804FB04ED00E007B5084671B100230E
:101E600001A9019306F044FF019B3BB1054B4FF0E4
:101E700080521A60BFF34F8FBFF36F8F03B05DF8CE
:101E800004FB00BF04ED00E0F8B51D46031D044649
:101E90000F46164618462422002112F0D3FF676031
:101EA0000246C4E90665DDE9060105F0C5F92060D2
:101EB0002046F8BD013BDBB2022B98BF104830B57D
:101EC00085B098BFC5564FF0280088BF0825CDE9DA
:101ED000021212F0EFFA099B04460193089BDDE918
:101EE000021200932B46FFF7CFFF05E02821204682
:101EF00011F008FE11F0A0FE204605B030BD00BF75
:101F00003859010808B5042012F0D4FA014B0360D7
:101F100008BD00BF4459010813B56020CDE9002178
:101F200012F0C8FA0446DDE90021FFF70FFD05E0D5
:101F30006021204611F0E6FD11F07EFE2046FFF7FD
:101F400085FC204602B010BD13B51820019112F097
:101F5000B1FA01990446FFF7EFFB05E0182120468E
:101F600011F0D0FD11F068FE2046FFF741FB20463E
:101F700002B010BD13B52020019112F09BFA019917
:101F80000446FFF703FC05E02021204611F0BAFDCE
:101F900011F052FE2046FFF73DFB204602B010BD77
:101FA00013B52820CDE9002112F084FA0446DDE9BA
:101FB0000021FFF729FE05E02821204611F0A2FDAF
:101FC00011F03AFE2046FFF79DFD204602B010BDFD
:101FD00013B52820CDE9002112F06CFA0446DDE9A2
:101FE0000021FFF74FFD05E02821204611F08AFD72
:101FF00011F022FE2046FFF7FFFC204602B010BD84
:1020000013B52420CDE9002112F054FA0446DDE98D
:102010000021FFF781FE05E02421204611F072FD2A
:1020200011F00AFE2046FFF755FE204602B010BD13
:1020300000F57171D0F8040400F003BA1C2303FB0F
:102040000103D0F80404D3F8082200F027BA1C23B7
:1020500003FB0103D0F804049A6C00F05ABAD0F8DC
:10206000040400F0ECBAC16810B5044621B102299D
:1020700001D011F0FBF80121D4F8040400F0C9FAF2
:10208000D4F80404BDE8104000F09EBA10B5044630
:10209000D0F8040400F0C0FA2268D2F8003E43F001
:1020A0000103C2F8003E236A23B1034A136943F0D7
:1020B0000603136110BD00BF00ED00E0D0F804047A
:1020C00000F0B3BAD0F8040400F0D1BAD0F8040498
:1020D00000F0C1BAD0F8040400F0D1BAD0F804047A
:1020E00000F0CFBA08B5037802468BBB19481A49ED
:1020F000C0F80424C2F8C8020922C0E90012022272
:10210000C0E9032382610122C0E90933C0E9072342
:10211000C0E90B330BF003FD08B111F0A7F84FF441
:1021200000710C480CF0EEF98022002109480CF0F7
:10213000C9F92022012107480CF0C4F940220221EC
:1021400004480CF0BFF92022032102480CF0BAF930
:10215000002008BD7C1700200000084008B5D0F81A
:10216000C8020BF065FD032896BF024B0220185CE5
:1021700008BD00BF6C59010810B51446D0F8C8025C
:102180001A4623460CF064F8032896BF014B022040
:10219000185C10BD6C59010808B5D0F8C8020CF0E5
:1021A0008FF8032896BF024B0220185C08BD00BFC1
:1021B0006C59010808B5D0F8C8020CF06AF9032878
:1021C00096BF024B0220185C08BD00BF6C59010885
:1021D00008B5D0F8C8020CF0EEF8032896BF024B01
:1021E0000220185C08BD00BF6C59010808B5D0F882
:1021F000C8020CF018F9032896BF024B0220185CA5
:1022000008BD00BF6C59010811F0800FD0F8C8322A
:102210004FF01C0217BF01F07F0102FB013102FBEE
:10222000013191F83E0008BF91F8FE0170470000AF
:1022300008B5D0F8C8020BF0F7FF032896BF024B91
:102240000220185C08BD00BF6C59010808B5D0F821
:10225000C8020CF090F8032896BF024B0220185CCD
:1022600008BD00BF6C59010808B5D0F8C8020CF0D1
:1022700056F8032896BF024B0220185C08BD00BF29
:102280006C590108D0F8C8020CF06DB808B50022EE
:102290000B490C4800F0A2F808B110F0E7FF0A491A
:1022A000084800F0B0F808B110F0E0FF054800F071
:1022B000B1F818B1BDE8084010F0D8BF08BD00BFA4
:1022C00038000020841B0020F40000201223014865
:1022D0000B80704704000020042301480B807047E6
:1022E00018000020002370B54D1C1E46040FB0F1ED
:1022F000204F4FEA001034BF3034373401F8134018
:1023000005F813600133DCB2A242EFD870BD0000C3
:102310001A2310B50B80094B186808331B68C018C6
:102320000AD0074B082207491C68FFF7DBFF04228D
:1023300005492046FFF7D6FF044810BD00E8F11F0D
:1023400004E8F11F1E0000202E0000201C000020C9
:1023500010B5044C0A460448214600F0A4FB204670
:1023600010BD00BF581E00201860010810B5044CB5
:102370000A460448214600F096FB204610BD00BFE7
:10238000581E00201F60010810B5044C0A4604487E
:10239000214600F088FB204610BD00BF581E0020DB
:1023A0003460010810B5044C0A460448214600F088
:1023B0007AFB204610BD00BF581E00203B6001087C
:1023C00010B5044C0A460448214600F06CFB204638
:1023D00010BD00BF581E00204860010808B580B13C
:1023E000D0F8B43213B10023C0F8B43209B1C0F848
:1023F000B0120123027080F89C32FFF773FE0020B8
:1024000008BD0220FCE719B1C0F8B41200207047E3
:102410000220704708B5FFF7A1FE002008BD08B5EF
:10242000D0F8B4320BB9022008BD1B6898470028C9
:10243000FAD0F8E708B5D0F8B4325B6898470020C6
:1024400008BD38B500F52A750446284600F00CFB97
:10245000012394F8A812C4F89432B4F8AE32C4F848
:10246000983201F01F03012B08D0022B0BD07BB94F
:102470002946204600F01CF9002038BD2946204698
:1024800000F044FAF8E72946204600F063FAF3E743
:1024900001F080012046FFF79BFEEDE770B5044692
:1024A00016460D4641BBD0F89432032B1DD1D0E91E
:1024B000581291420CD9891A8A42C0F8601188BF1B
:1024C0008AB2314698BF92B200F037FB284670BD01
:1024D000D0F8B4321B6923B190F89C22032A00D1B2
:1024E0009847204600F031FBF0E7052BEED1C4F809
:1024F0009412FFF76DFEE9E7D0F8B4329B6933B16F
:1025000090F89C22032A02D100259847DEE7022595
:10251000DCE7F8B5044617460D46002947D1D0F848
:102520009432022B3CD1D0E908639E4214D9F31AAD
:1025300039469AB2036200F0EBFA2B462A46294646
:102540002046FFF791FE94F8A032012B02D1002320
:1025500084F8A0322846F8BDC269B2FBF3F603FB4B
:1025600016265EB9934209D8D0F898329A4205D21D
:102570000A4600F0CDFAC4F89852DEE7D4F8B43237
:10258000DB682BB194F89C22032A01D1204698479E
:1025900080212046FFF71CFE204600F0E1FAD2E73A
:1025A00033F00403CFD18021FFF712FECBE7D0F840
:1025B000B4325B6933B190F89C22032A02D1002522
:1025C0009847C7E70225C5E70022402370B50446B7
:1025D000012540261146FFF7CFFD00223346C4F8FF
:1025E000585180212046C4F86461FFF7C5FD84F886
:1025F0009C52D4F8B4322046A56100255B68294678
:102600006662C4F894526560C4F8A452984728469C
:1026100070BD01740020704790F89C3280F89D32A4
:10262000042380F89C320020704790F89C32042BE1
:1026300004BF90F89D3280F89C320020704708B5A6
:1026400090F89C22032A04D1D0F8B432DB6903B19C
:102650009847002008BD08B590F89C22032A04D1B1
:10266000D0F8B4321B6A03B19847002008BD08B502
:10267000D0F8B4325B6A03B19847002008BD00204F
:1026800070470122017908B580F89C22D0F8B42265
:1026900052689047002008BD10B504468021FFF71E
:1026A00097FD00212046BDE81040FFF791BD0000D6
:1026B00037B50B7804460D4603F06003202B12D08B
:1026C000402B10D0002B52D14B78092B4FD8DFE88C
:1026D00013F0F3000F014E0008014E008C001300B0
:1026E0004E00DB00A800D4F8B432294620469B688F
:1026F0009847002003B030BD0023ADF806304B886A
:102700001A0A013A062A32D8DFE802F00416233109
:10271000314D5700D0F8B0321B680DF10601207C16
:102720009847BDF80620002A5BD0EB88002B4FD1DC
:10273000204600F00AFADCE7027CD0F8B43232B965
:102740009B6A0DF10600984702234370E9E7DB6AB4
:10275000F7E7DBB2062B0AD8DFE803F0040D11150A
:10276000191D2100D0F8B0325B68002BD5D120466E
:10277000FFF792FFBDE7D0F8B0329B68F5E7D0F8DD
:10278000B032DB68F1E7D0F8B0321B69EDE7D0F882
:10279000B0325B69E9E7D0F8B0329B69E5E7D0F881
:1027A000B032DB69E1E7037C002BE0D1D0F8B43232
:1027B0000DF106005B6B9847B3E7037C002BD6D185
:1027C000D0F8B4320DF106001B6B98470723BCE725
:1027D0009A420146204628BF1A46ADF8062000F06E
:1027E0008AF9EB88002B84D1A2E78B88002BBED11D
:1027F000CB88002BBBD14D887F2DB8D890F89C3268
:10280000032BB4D0E9B280F89E12FFF711FD2046E9
:1028100000F09BF91DB1022384F89C3269E7012383
:10282000FAE78978384D01292970A0D890F89C32B0
:10283000022B08D0032B15D0FFF72EFF2978204656
:10284000FFF7F8FD55E700293FF472AF012103239C
:10285000416080F89C322046FFF7E1FD02287FF4BA
:1028600067AF84E731B90223416080F89C32FFF7FB
:10287000E1FD5DE7416801293FF45AAFC9B2FFF7B6
:10288000D9FD29786160E6E7CA88012A7FF46FAF35
:1028900090F89C32022B0AD8002B3FF468AF014617
:1028A000002341F8083F204600F025F921E7032BDB
:1028B0007FF45DAF011DF6E790F89C32013B022BDF
:1028C0003FF655AFCB88022B7FF451AF0123C36095
:1028D000D0F8A4320BB10323C360022204F10C012F
:1028E000E1E74B88012B7FF404AFC4F8A4321FE763
:1028F00090F89C32013B022B3FF639AF4B88012BFD
:102900007FF4F7AE0023F0E72008002038B50B78FD
:1029100004460D4603F06002402A01D05B0615D440
:1029200094F89C32013B022B10D82B79022B0DD846
:10293000D4F8B432294620469B689847EB881BB9E7
:1029400010B9204600F001F9002038BD2046FFF7FD
:10295000A3FEF9E738B50A7804460B4602F0600298
:10296000202A27D0402A25D092BB5A788D88012A68
:1029700009793DD0032A25D052BB90F89C32022B16
:102980004DD0032B24D101F00F03142215F0800F3A
:1029900002FB030354D09B69D3B101F07F051423DC
:1029A00005FB0333C51811F07F0355D12B600222BC
:1029B000294641E0D4F8B42219462046926890474F
:1029C000002038BD90F89C22022A1FD0032A03D091
:1029D0002046FFF761FEF3E75A882AB94A0603D07A
:1029E000DB880BB9FFF7F4FB204600F0AEF8E7E711
:1029F00090F89C22022A09D0032AE9D15B88002B97
:102A0000DED14D06F0D0FFF7F1FBEDE74B06DFD04E
:102A1000FFF7DEFB80212046FFF7DAFBD0E74A060E
:102A2000D6D12B064FF002024FF000034CBF00F14D
:102A3000140100F5AA710B60204600F05CF8BFE7B6
:102A4000D3F85831002BC3D001F07F05142303FBCA
:102A5000050505F5AA75A6E72046FFF7D5FB08B1E1
:102A60000123A3E72860A2E70B7803704B7843703B
:102A7000CA788B7803EB022343804A790B7903EB06
:102A800002238380CA798B7903EB0223C3807047CA
:102A900010B504468021FFF79BFB00212046BDE8CE
:102AA0001040FFF795BB30B588B1002501382B46A3
:102AB0000135445D002CFAD1DBB201335B00138099
:102AC0000B7003234B70022310F8015F05B930BD72
:102AD0005A1CCD540233D2B2DBB28C54F4E770B539
:102AE00001F07F05142404FB0504C4E90733FFF754
:102AF000ADFB002070BD10B502241346C0F894420F
:102B0000C0E907220A460021FFF7A0FB002010BD04
:102B100008B513460A460021FFF798FB002008BDC0
:102B200010B503241346C0F89442C0E957220A4660
:102B30000021FFF799FB002010BD08B513460A4697
:102B40000021FFF791FB002008BD08B50423C0F861
:102B5000943200231A461946FFF778FB002008BD7F
:102B600008B50523C0F8943200231A461946FFF72A
:102B70007BFB002008BDFFF785BB000021230380FD
:102B80000048704758000020D0F8BC32002083F87D
:102B9000500070470020704710B5D0F8BC42E36C7D
:102BA000012B04D1214601F0FBFC0023E36400204B
:102BB00010BDD0F8BC2213B504461146019201F0B5
:102BC000EFFC2023019A03212046FFF74DFB002054
:102BD00002B010BDF8B50C7806460D46D0F8BC72B0
:102BE00014F0600438D0202C0DD14B78013B0A2B17
:102BF0002DD8DFE803F023180A2C2C2C2C2C1C11C8
:102C000006008B783B64002424E0012207F1400198
:102C10003046FFF770FFF6E74B8883211B0A7B6481
:102C2000FFF7C8FAEFE7012207F14401F0E70123BB
:102C30008A793946FB64FFF773FFE4E7394601F010
:102C4000B3FCEA883946202A28BF2022E0E7022484
:102C5000FFF71EFF2046F8BD4B780A2B1BD00B2B2D
:102C60001DD0062BF6D14B881B0A222B08D1CA880F
:102C70000C49322A28BF32223046FFF73CFFE9E7F1
:102C8000212B05D1CA880849092A28BF0922F3E760
:102C900021462246F0E7012207F14801EDE78B7853
:102CA000BB64D7E77C0000206900002010B5044613
:102CB0000321FFF771FAD4F8BC0220B112F092F8A8
:102CC0000023C4F8BC32002010BD38B505460222EE
:102CD00020230321FFF750FA03212846FFF76AFA61
:102CE000542012F077F80246C5F8BC0248B100241F
:102CF0002023032180F850402846FFF7B5FA2046EC
:102D000038BD0120FCE7000038B5064B04460D46EF
:102D10005B689847044B294620465B68984700202B
:102D200038BD00BFDC010020B00000200A23038072
:102D300000487047E8000020054B10B51B690446A9
:102D40009847044B20461B699847002010BD00BFE0
:102D5000DC010020B000002000207047064BDB693A
:102D600010B5044603B19847044BDB690BB120460C
:102D70009847002010BD00BFDC010020B0000020FB
:102D8000092373B503800446ADF806300DF1060043
:102D9000164B174D1A682A605A681B7A6A602B72A4
:102DA000144BDB6A9847BDF806600146208832461E
:102DB000284412F01FF822880F4B0DF1060016442C
:102DC000DB6A26809847BDF80660014620883246B7
:102DD000284412F00FF8228828461644B6B22680FE
:102DE000AE7023881B0AEB7002B070BD70590108E9
:102DF00021080020DC010020B0000020074B70B546
:102E00001B6804460D46984730B9054B29462046B5
:102E10001B68BDE87040184770BD00BFDC01002092
:102E2000B000002008B50B79012B03D9022B05D087
:102E3000002008BD024B9B689847F9E7014BFAE771
:102E4000DC010020B000002041F08003812B03D082
:102E5000832B06D000207047034B5B69002BF9D011
:102E60001847024BF9E700BFDC010020B00000204A
:102E7000012903D0032906D000207047034B9B692A
:102E8000002BF9D01847024BF9E700BFDC01002006
:102E9000B0000020022904D829B1054B1B6A13B1E8
:102EA0001847032901D000207047024BF6E700BF06
:102EB000DC010020B0000020012903D0032906D046
:102EC00000207047034B5B6A002BF9D01847024B78
:102ED000F9E700BFDC010020B00000208F23038051
:102EE000004870472C01002001F07F01012902D128
:102EF000024B00221A600020704700BF240A002005
:102F000000207047012918D1D0F8C8321B6803F59A
:102F1000202203F53623926812F4807FD3F800282C
:102F20000CBF42F0005242F08052C3F80028D3F8A0
:102F3000002842F00442C3F8002800207047000037
:102F400038B5D0F8B8420546A37C012B16D194F8C9
:102F50005430022B12D194F85510012916D194F84F
:102F60005630244AE07C9940536860B1194351605F
:102F70000039284618BF0121FEF72DFF0020A0745C
:102F800084F8530038BD23EA0101F0E70229F5D1A6
:102F9000227DE37C43EA0223174A1BB213F5806FBC
:102FA000A2F8903024DD03F580639FED147A07EEDC
:102FB000903AF8EEE77AC7EE277A17EE900AFEF716
:102FC00009FBF6EE007A9FED0E7A06EE900AE6EE29
:102FD000877AFCEEE77A17EE901A490089B2FF294A
:102FE000284628BFFF21C1F1FF01FEF7FBFEC5E720
:102FF000FF21F4E7240A00202C01002000000045F6
:10300000000070420122C42310B504461146FFF7A8
:10301000B3F8C423034A01212046FFF725F9002015
:1030200010BD00BF5820002010B504460121FFF755
:10303000B3F881212046FFF7AFF8002010BD000053
:103040002DE9F34191F800E00746B1F802C00B46C4
:103050001EF060048A884FEA1C26D0F8B8525FFA46
:103060008CFC5AD0202C19D15C784FEA1228012C04
:1030700041460AD0022C3CD0022419463846FFF7BC
:1030800007FD204602B0BDE8F0811EF0800FF7B2C8
:103090001ED0B8F1020F03D00A2916D00024F0E7A1
:1030A000012E0DD1394A06FA0CF601A952681642D2
:1030B00014BF012200220192DA88FFF71CFDEDE720
:1030C000022EEBD1DA883249F7E7DA883149F4E7A2
:1030D000DA88002AE2D005F11301AC7485F8532098
:1030E00085F8548085F8557085F856C0FFF718FDAF
:1030F000D4E71EF0800FD1D0B8F1020F07D00A2913
:10310000CCD1DA8824490E2A28BF0E22D5E7DA88E6
:103110002249082A28BF0822CFE791F801E0BEF132
:103120000A0F0FD0BEF10B0F0FD0BEF1060FA3D1C7
:10313000212EA6D1CA881A49092A28BF0922FFF7D9
:10314000DAFC9EE701222946F9E7D2B2012A19D812
:103150000E4E4FF4C023C5F800C0B360F460346174
:103160002B685BB10121FEF72FFE01220423812190
:10317000384672613460FEF7FFFF82E78121FFF776
:103180000BF87EE7FFF784FC7BE700BF240A0020F2
:10319000BC010020C0010020CC010020C40100209F
:1031A0003D010020012908B503D1C423024AFFF7DD
:1031B0005BF8002008BD00BF5820002038B5224C25
:1031C0000546D0F8B8222368132B02D823680133B0
:1031D00023601368012B35D1E3680133E360636931
:1031E00043B100212846FEF7EFFD18B10023E3604C
:1031F00063612361E368B3F57A7F1DD3002128461C
:10320000E160FEF7E1FD236907EE900AFA33B8EEBC
:10321000677ADFED0E7A2361D4ED046A27EE277A10
:10322000F8EE666AC7EE267A9FED097A67EE877A2E
:10323000FCEEE77AC4ED027A0423064A812128468F
:10324000FFF74DFC002038BD240A0020000040425A
:10325000000000462C0A0020012938B504460D461E
:103260000CD1FFF788FC064902462046FEF7A8FD70
:10327000C423034A29462046FEF7F6FF002038BD46
:103280005820002000797047407970477047704798
:103290004FF40E720021083011F0D4BD084608B575
:1032A00007F038FEB0FA80F0400908BD10B54FF4C1
:1032B0000B7011F0FFF84FF40B720021044611F06F
:1032C000C1FD024B2046236010BD00BF8459010898
:1032D00010B504464FF40B7110F014FC204610BDDD
:1032E00010B504464FF4117110F00CFC204610BDCF
:1032F00038B504301546012207F0A4F9044630B170
:103300002DB1054B00211B68986902F0D1F9B4FA80
:1033100084F0400938BD00BF3C0A002038B50430B5
:1033200015460A2207F08EF9044630B12DB1054B3F
:1033300000211B68986902F0BBF9B4FA84F04009D7
:1033400038BD00BF3C0A0020043007F053BC000029
:1033500007B5043001AB07F071FA38B1054B002115
:103360001B68986902F0A4F900230193019803B047
:103370005DF804FB3C0A002007B5043001AB07F000
:103380001BFB38B1054B00211B68986902F090F9CE
:1033900000230193019803B05DF804FB3C0A002070
:1033A00008B5043007F03AFCB0FA80F0400908BDD7
:1033B000037910B504463BB1002200F510711046A8
:1033C00007F004F90023237110BD0079F8B50C460D
:1033D00017461E46B0B14FF48C7011F06BF80146E1
:1033E0000546204607F062FD044618B92B683B608D
:1033F0002B7A337028464FF48C7110F083FBB4FAAB
:1034000084F04009F8BD10B50C4649B1084607F0F4
:1034100002FD20464FF4A471BDE8104010F072BBCD
:1034200010BD00002DE9F84306790446DEB90525F4
:1034300000F5107800F108090F4F01224146484677
:1034400007F0C4F890B13B684FF4FA71D86803688C
:103450005B699847013DF0D13B682946986902F0C5
:1034600027F9032363713046BDE8F88340F2011366
:103470000126A380F7E700BF3C0A002038B5037996
:103480000C460BB3A9B94FF4A47011F013F810490E
:10349000054607F073FCC8B10E4B21461B689869BE
:1034A00002F006F94FF4A471284610F02BFB2046D9
:1034B00038BD0021204607F0BDFC0028F7D04FF4AE
:1034C000A471204610F01EFB0024F0E72C46EEE726
:1034D000586001083C0A002038B50C4661B101F182
:1034E00030052946204607F0A5FC38B1094B0021DC
:1034F0001B68986902F0DCF8002038BD94F846306B
:10350000002BF9D094F83830DB06EAD404F14600F9
:10351000F3E700BF3C0A0020034A026000228280D9
:103520003022C0F840227047AC59010870477047FC
:1035300010B50446102110F0E5FA204610BD000039
:10354000034A02600022C0E902220271704700BFF4
:10355000E859010870B5002386B005466422C068AA
:1035600001240593036802920DF11202A9680192E9
:1035700005AAADF81240009222461E682346B047C5
:1035800020B1052300202B7106B070BD059B23F0F0
:103590000203042BF5D12046F6E72DE9F04104465D
:1035A00086B0C0680125642705AE03680322009633
:1035B000A1680595CDE90157D3F804802B46C04793
:1035C00020B10523237106B0BDE8F081E068052233
:1035D000A168036805950096CDE90157D3F80480EA
:1035E0002B46C0470028ECD11023E0681622A168C2
:1035F000059303680096CDE90157D3F804802B4664
:10360000C0470028DDD14FF40003E0680422A16820
:10361000059303680297CDE900628622D3F80480FF
:103620002B46C0470028CCD105900322E068A16852
:1036300003680096CDE901575E682B46B047002825
:10364000C1D0BEE738B50E4B04461B68D3E9015024
:1036500001F0EEFC90F904305A1C16BF0A33002327
:1036600055F82330E36003682046A360FFF772FF3C
:1036700020B12046FFF791FF0123237138BD00BF21
:103680003C0A0020042910B504460BD10023037125
:10369000FFF760FF30B1012320462371BDE81040E1
:1036A000FFF77BBF10BD7047704710B50446182167
:1036B00010F028FA204610BD054A4171FF21026032
:1036C0000022416102610271C0E90222704700BF1D
:1036D000045A010830B5002387B004466422C0684C
:1036E00005930423A168ADF81230036802920DF12E
:1036F0001202019205AA00920D221D680123A8471B
:1037000020B105230020237107B030BD059B13F5C0
:10371000304FF6D10120F7E72DE9FF47134B044660
:10372000417900271B684FF064084FF00109986841
:1037300001F070FC0646C51DB36ABB4210D915F8EE
:10374000012C102A0FD8E068A16803680095CDE924
:103750000198D3F804A00123D04720B10523237199
:1037600004B0BDE8F08701370235E5E73C0A0020E8
:1037700030B5812387B004466421C06805930123D6
:103780000268CDE9013105A90091A16855680022C0
:10379000A84708B10523237107B030BDF0B5002359
:1037A00087B004460E46C068642105AD05930268E3
:1037B000012302910DF1120100950191ADF8123033
:1037C00017681A46A168B84718B10523237107B0D6
:1037D000F0BD059B86B143F00103E06864210593C9
:1037E000012302680095CDE90131A16855681A46A8
:1037F000A8470028EBD0E8E723F00103EDE730B558
:1038000087B0416104460222C0688DF814108DF81B
:10381000151064210368CDE9012105AAA168009271
:1038200003225D680123A84708B10523237107B06F
:1038300030BD10B504460121FFF7B0FF217D2046C1
:10384000FFF7DDFF2046FFF793FF2046FFF764FFF9
:1038500020460021BDE81040FFF7A0BF70B51A4D0B
:10386000044641792B6898685E6801F0D3FB90F9B3
:103870000430591C16BF0A33002356F82330E36086
:103880000368A36090F905305A1C18D01433012145
:1038900056F82300036820611B6898472B681421A1
:1038A000D86803685B6998472046FFF713FF08B1A3
:1038B000012323712046BDE87040FFF7BABF002303
:1038C00023611B68FFDE00BF3C0A0020042938B5D5
:1038D000044623D100690021114D03681B689847F5
:1038E0002B680A21D86803685B6998472069012121
:1038F00003681B6898472B681421D86803685B69C4
:103900009847002320462371FFF7E4FE30B10123DE
:1039100020462371BDE83840FFF78BBF38BD00BF9C
:103920003C0A002070470000074B1B685A6890F95A
:103930002430591C05D00A3352F823000368DB6891
:10394000184700231B68FFDE3C0A00207047000078
:1039500090F92420184B511C1B6818BF02F10A0172
:103960005B6830B5044614BF53F821000020042AD8
:1039700087B0E3680CBF042202220168E569B3FB4B
:10398000F2F30DF11602ADF81630002301926269D0
:10399000029302EB450200921A460D681946A847A9
:1039A000E269BDF8163013442269934228BF002310
:1039B000E36107B030BD00BF3C0A0020806870475B
:1039C0000120704710B50446282110F09BF82046CE
:1039D00010BD000038B5154B0446154D1B689B689B
:1039E000D3F8982060235343C360C0235343AB42B2
:1039F00003610DD84FF4C070504310F06CFD226984
:103A000000216061520011F01DFAE068A84201D95E
:103A100010F0CAF9400010F05EFDE268A0610021DC
:103A20005200BDE8384011F00DBA00BF3C0A00203A
:103A3000FCFFFF3F074A4BF6803C80F824100260F1
:103A40000022C0E902C2C0E90422C0E906220262E3
:103A5000704700BF205A01080C4B00211B6870B54D
:103A6000044698685D6801F0E6FA4368A36094F93B
:103A700024305A1C07D00A3355F823000368BDE8E8
:103A800070409B68184700231B68FFDE3C0A00203B
:103A900070B5054688B00C46032926D8DFE801F04A
:103AA000020D11182D4B02211B68986901F0CCFD05
:103AB0002846FFF7D1FF08B070BD03685B689847E0
:103AC000F9E7264B01211B68986901F0BDFDF2E77B
:103AD000224B02211B68986901F0B6FD2A6900217A
:103AE0006869520011F0AEF9E5E71C201C4E10F099
:103AF00069F81F2C04AB264405460293C4F11F034A
:103B000088BF00230F2B06EB0304019307D9002283
:103B100001A902A810F082FD019B029004932246A5
:103B20003146029810F0E4FD019B029A00210393B4
:103B30002846D15402A90B4B40F8043B10F019FE63
:103B400002A810F08DFD084A0849284610F098FC9C
:103B5000284610F04DF810F06FF800BF3C0A002026
:103B60005A6001080C600108AD120008F85F0108F6
:103B7000D0E907239A422FBFD01A00698018C01AD3
:103B8000704710B50446FFF7F3FF884201D2A069E1
:103B900010BD236A6069194400EB43002369216268
:103BA000994224BF00232362F2E770477047000068
:103BB0001FB509480068406863B9C06B00230468FA
:103BC00092B20293CDE900121A4664681946A047E2
:103BD00004B010BD006CF1E73C0A0020806870471B
:103BE00010B504460C210FF08DFF204610BD0000DB
:103BF00038B5074B0C461B685B68D3E90305FFF734
:103C0000CDFD21462846BDE83840FFF7C7BD00BFBF
:103C10003C0A002038B5074B0C461B685B68D3E9AB
:103C20000305FFF7ECFD21462846BDE83840FFF7C5
:103C3000E6BD00BF3C0A0020024A0260002282600A
:103C4000704700BF545A01081B4B00211B682DE927
:103C5000F0475C680546986801F0EDF94368D4F8D0
:103C60001C80AB60D4E90F90D4E9036503689B68BE
:103C7000D4E905749847D9F8003048469B689847BE
:103C8000D8F80030404602219B6898473B68384688
:103C900002219B6898472368204602219B68984729
:103CA0003368304604219B6898472B6828460421D6
:103CB0009B68BDE8F04718473C0A0020184B0321D9
:103CC0001B685B682DE9F047D3E90509D3E90F4587
:103CD000D3E90376D3F81C8003689B689847D9F82A
:103CE0000030484603219B689847D8F8003040468A
:103CF00003219B6898473B68384603219B68984797
:103D00003368304603219B6898472B682846DB6858
:103D1000984723682046DB68BDE8F047184700BF96
:103D20003C0A00200E4B04211B685B6870B5D3E988
:103D30000506D3E9035403689B6898473368304607
:103D400004219B6898472B68284604219B68984764
:103D50002368204604219B68BDE87040184700BFD7
:103D60003C0A002070B50C4688B0042912D8DFE860
:103D700001F00603080B0E0003685B68984708B063
:103D800070BDFFF761FFFAE7FFF798FFF7E7FFF76E
:103D9000C9FFF4E71C201B4E0FF014FF202C04ABCE
:103DA000264405460293C4F1200388BF00230F2B4D
:103DB00006EB0304019307D9002201A902A810F021
:103DC0002DFC019B0290049322463146029810F08C
:103DD0008FFC019B029A002103932846D15402A92B
:103DE000094B40F8043B10F0C4FC02A810F038FC6A
:103DF000064A0749284610F043FB28460FF0F8FE14
:103E00000FF01AFF7A6001080C600108AD1200087B
:103E1000F85F01087047704710B5044614210FF091
:103E200071FE204610BD0000044A4171026000226C
:103E3000C0E9022202610271704700BF805A010886
:103E400030B50446C06887B010B9012007B030BD56
:103E500000236422A16805930423ADF8123003689F
:103E600002920DF11202019205AA009202221D682F
:103E70000123A84718B1052300202371E6E7024B70
:103E8000059A9A42F7D1E0E7050B000630B5194BC9
:103E900087B004469A8804AD18689B79ADF8142061
:103EA000AB71154B04901B686179986801F0BCF800
:103EB000836A00EB430290420AD083790230062BDA
:103EC0009FBF0DF1180C4179634403F8081CF2E719
:103ED000E0680722642103680095CDE901215D684F
:103EE0000123A1681A46A84708B10523237107B02A
:103EF00030BD00BF945A01083C0A002070B51B4D2C
:103F0000044641792B6898685E6801F08DF890F955
:103F10000430591C16BF0A33002356F82330E360DF
:103F20000368A36090F905305A1C13D10023236164
:103F3000E36863B12B681421D86803685B6998470C
:103F40002046FFF77DFF20B12046FFF79FFF0123AA
:103F5000237170BD143356F8230020610028E7D088
:103F6000036801211B689847E2E700BF3C0A002074
:103F7000042938B5044624D10069A8B1036800219A
:103F8000104D1B6898472B680F21D86803685B6940
:103F900098472069012103681B6898472B680F2107
:103FA000D86803685B699847002320462371FFF7B0
:103FB00047FF30B1012320462371BDE83840FFF7A9
:103FC00065BF38BD3C0A00200022C1F8D002C0E91C
:103FD000002202814261C0E903227047002337B505
:103FE000037205460E4B202204211B68DC682368FF
:103FF00020461B6898472368286020221B680421FC
:10400000204698472368074A6860204600924FF48C
:104010008062019504491D690123A84703B030BDA2
:104020003C0A0020114500089B60010870B58D789E
:1040300086B005F00F040A2C24D8CE78A4022B09F0
:10404000012504F1B04416F0060F05FA03F5C6F396
:10405000410204F500340CD0511E00232046019586
:104060004A42059304934A4101A9CDE9022308F08D
:104070007BFC204606F00102A9B208F061FD002099
:1040800006B070BDFF20FBE770B58D7888B006469E
:1040900005F00F040A2C22D81E2200210DF1020087
:1040A000A40210F0CFFE01212D0904F1B0404FF41D
:1040B0008173A94000F50030ADF8003089B208F0F6
:1040C00039FD084B8DF805006A461B687168D86891
:1040D0000368DC680023A047002008B070BDFF2003
:1040E000FBE700BF3C0A00205B08002010B58342BC
:1040F00005D032F8104021F810400130F7E710BD2C
:1041000073B58A1C8C7A0D46042369460646FFF770
:10411000EBFF042304F00304AA1D0DEB030130465A
:10412000FFF7E2FF012C08D0022C0DD094B9DDE995
:1041300000321A60204602B070BD009A01991368DF
:104140000B4300241360F5E7009A0199136823EAF2
:104150000103F6E7FF24EDE730B58BB08A1C04239A
:1041600004466946FFF7C0FF009B1E2200211B6822
:104170000DF10A00019310F065FE4FF481730DF10B
:104180000E012046ADF8083004230DEB0302FFF7C3
:10419000ABFF064B02AA61681B68D8680368DD683C
:1041A0000023A84700200BB030BD00BF3C0A002010
:1041B000F0B58B7985B08878642713F0800F03F011
:1041C0007F060F4C0CBF01230223003824684D7971
:1041D00018BF012064680A790A3042EA052254F8BF
:1041E00020000468CDE90167CE1D00966468C97897
:1041F000A047002814BFFF20002005B0F0BD00BF7D
:104200003C0A00202DE9F0414B7990B00F7905462A
:104210008C780DF1220047EA03278B7991F803800F
:10422000002113F0800F03F07F021B4E0CBF01230F
:104230000223ADF81E201E22059310F003FE003C61
:104240004FF481724FF06401059BADF8202018BF38
:10425000012432680A34526852F82400026802913C
:104260000DF11E0101910DF12601009141461468E6
:104270003A46A047044610B1FF248DF82140336828
:1042800008AA6968D8680368DE680023B04720463A
:1042900010B0BDE8F08100BF3C0A0020064B1B684F
:1042A0005B6853F8210028B1007918B1052814BFC4
:1042B00010460020704700BF3C0A0020F0B50122E4
:1042C00089B007460321FFF7E9FF064602220421D1
:1042D0003846244DFFF7E2FF304304220521C6B2E1
:1042E0003846FFF7DBFF082230430621C4B23846C8
:1042F000FFF7D4FF1022044309213846FFF7CEFF11
:104300002B68E4B2044358690368E4B2DB68984759
:1043100000284FF01E024FF0000114BF20200020A3
:1043200004430DF1020010F08DFD4FF4817364B26F
:104330006A46ADF80030AA238DF806408DF80730A4
:1043400040F203237968ADF8083001238DF80A3074
:104350002B68D8680368DC680023A047002009B0F8
:10436000F0BD00BF3C0A00204B781B09082B14D875
:10437000DFE803F00507090B0D0F13131100FFF71A
:1043800055BEFFF781BEFFF7BBBEFFF7E5BEFFF7E7
:104390000FBFFFF737BFFFF791BF0020704738B559
:1043A0000446C0680D4608B10FF0AEFBD5F8020018
:1043B00060611B30D5F80630236110F08CF8E060A6
:1043C000002038BDC06810B568B14B881C240A1D98
:1043D000203104FB030352F8040B8A4243F8040B18
:1043E000F9D1002010BDFF20FCE70000C368F0B544
:1043F00004468BB016460BB3426900271A44934219
:1044000003D013F8011B0F44F9E71E2200210DF120
:104410000A001F4D10F016FD22694FF48173616888
:10442000BA42ADF808302B680AD0FF2402AA8DF8F2
:104430000C40D8680368DD680023A847FF2025E00A
:10444000D86802AA0368DF680023B8472B68986819
:1044500000F0F8FD014601A800F0AAF8E16801A803
:1044600000F028FA2B68186901F024FF2B681869FE
:1044700001F032FF26B1626901A8E16800F086FB15
:10448000E06808B10FF040FB0020E0600BB0F0BD29
:104490003C0A00204B781B09033B032B0CD8DFE8B8
:1044A00003F002040609FFF77ABFFFF78BBF002273
:1044B000FFF79CBF0122FBE7FF207047134B1B68EF
:1044C000F0B5044689B0DD6801262B686A4621688C
:1044D00028465F684FF0FF33B8470028F5D09DF8B5
:1044E0000130267213F00F0304D0012B07D00023F4
:1044F0002372EAE769462046FFF7CCFFF7E76946F3
:104500002046FFF731FF6072F1E700BF3C0A002050
:1045100008B5FFF7D3FF0000064B0A4601681B6889
:1045200030B4DC6823682046DD680023AC4630BC2C
:10453000604700BF3C0A0020184B1B6870B5054659
:10454000D86888B00C4603686A4669689E6800238C
:10455000B04740B9022323702B7A13B1FE23237195
:1045600011E0FD23FBE79DF80130012B0ED16B46D6
:1045700008AD1A46083403CAAA4244F8080C44F8A5
:10458000041C1346F5D1002008B070BD0023236041
:104590006360A36002232370FC23E0E73C0A002051
:1045A000D0F8D002FFF7B8BFD0F8D002FFF7C4BFF1
:1045B0000160704710B588B01C4602A8CDE9002103
:1045C000FCF7E5FE03AB02A8DDE90021FCF797FF4D
:1045D00028B10A9B2146069A02A8FCF708FF08B0FA
:1045E00010BD00B589B002A8CDE90021FCF7CFFECF
:1045F00003AB02A8DDE90021FCF781FF18B10699A1
:1046000002A8FCF764FF09B05DF804FB10B58CB09C
:104610001C4603A8CDE90021FCF7B9FE07AB03A8AF
:10462000DDE90021FCF76BFF70B19DF81C30012B18
:104630000CD10A9A04AB1068516803C39DED047B4A
:10464000B7EEC77B84ED007A0CB010BD102BFBD108
:104650000A9B1B6807EE903AF8EEE77AC4ED007A01
:10466000F2E710B588B01C4602A8CDE90021FCF79E
:104670008EFE03AB02A8DDE90021FCF740FF28B164
:10468000069B1B78003B18BF0123237008B010BDA8
:1046900030B589B004461D4602A8CDE90021FCF7DB
:1046A00076FE03AB02A8DDE90021FCF728FF38B352
:1046B0002B46144A06992046FFF7A8FF2B1D124AE5
:1046C00020460699FFF7A2FF05F108030F4A20468E
:1046D0000699FFF79BFF05F10C030D4A204606994A
:1046E000FFF794FF05F110030A4A20460699FFF7E9
:1046F0008DFF05F11403084A20460699FFF786FF4F
:1047000009B030BDAD600108BC600108CC60010893
:10471000EC600108FD6001080A610108F0B58BB08A
:1047200006461C4604A8CDE90221FCF730FE05AB85
:1047300004A8DDE90221FCF7E2FE002841D028258B
:1047400004F1A003214A304608990095FFF732FF93
:1047500023461F4A304608990095FFF72BFF1D4A54
:1047600008993046FFF73DFF0546C4F8480140B3BD
:10477000D4F8400108B10FF0C7F9D4F8440108B1EA
:104780000FF0C2F96FF060439D421CD2AF00384673
:104790000FF0A1FEC4F8400138460FF09CFED4F89B
:1047A00040310C4A0899C4F8440130460095FFF79F
:1047B00001FFD4F84431084A304608990095FFF7C4
:1047C000F9FE0BB0F0BD0FF0EFFA00BF1361010866
:1047D000206101082B6101083661010830B58FB0F6
:1047E00003A80191FCF7D3FD2C4B2D4A03A81B68AD
:1047F00001999C6804ABFCF782FE00284BD009AB02
:10480000284A079903A8FCF77AFE58B100212046F0
:1048100000F000FC0546811D10230C9A03A8FCF74C
:1048200021FEA86209AB204A079903A8FCF767FE9E
:1048300058B10121204600F0EDFB0546811D1023F3
:104840000C9A03A8FCF70EFEA86209AB174A079959
:1048500003A8FCF754FE58B10321204600F0E4FB06
:104860000546811D10230C9A03A8FCF7FBFDA862E6
:1048700009AB0F4A079903A8FCF741FE58B1022182
:10488000204600F0D1FB0446811D10230C9A03A89A
:10489000FCF7E8FDA0620FB030BD00BF3C0A00206D
:1048A000426101084B61010856610108606101081D
:1048B0006E61010870B588B00D46044602A8FCF789
:1048C00066FD03AB484A294602A8FCF718FE18B15A
:1048D000069920680FF0F5FF03AB444A294602A869
:1048E000FCF70DFE80B123682826414A20461C3380
:1048F00006990096FFF75EFE23683E4A2046BC33C9
:1049000006990096FFF756FE03AB3B4A294602A8DC
:10491000FCF7F5FD20B328262368384A204603F526
:10492000AE7306990096FFF745FE2368344A204689
:1049300003F5FE7306990096FFF73CFE2368314AA3
:10494000204603F5277306990096FFF733FE236888
:104950002D4A204603F54F7306990096FFF72AFE6D
:10496000236829462046294A03F57773FFF790FE0E
:1049700023682946204603F57E73254AFFF788FE03
:104980002368294620461833224AFFF76AFE236827
:10499000294620461933204AFFF763FE236829463B
:1049A000204603F57D731D4AFFF75BFE2368294609
:1049B000204603F582631A4AFFF753FE236829460F
:1049C000204603F5AC63174AFFF74BFE2368164AEF
:1049D000294603F214432046FFF7A0FE294620464D
:1049E000FFF7FCFE08B070BD7D610108826101081F
:1049F00091610108AA610108C4610108D26101083E
:104A0000E2610108F361010804620108166201080D
:104A100027620108386201084862010857620108EC
:104A2000696201087B6201089062010808B4F0B570
:104A30000E461146044682B0C81D00AF20F00700A4
:104A400007F11C03ADEB000D53F8042B6D463B60E2
:104A50002846B04704F108030F2805EB0006236041
:104A6000786007D90022391D20460FF0D7FD7B68FA
:104A70002060A3603246294620680FF034FE7B6830
:104A800022680021204608376360D154BD46BDE846
:104A9000F04001B0704710B50446006810B10368DB
:104AA000DB699847204610BDF0B5334E91B00546FE
:104AB0000C4633685F693B683846DB6898470028D6
:104AC00031D010222D490AA82D4B0094FFF7AEFFDC
:104AD0002C4A00210AA80FF011FF014604A80FF08C
:104AE00048FE0AA80FF0BCFD274904A80FF04EFFAE
:104AF0003B6803AA04993846DC690DF10B03A04713
:104B000070B13368586903689B6A9847036800224C
:104B100004991B680A90984738B90AA8FFF7BBFFA9
:104B200004A80FF09DFD11B0F0BD03980FF0D3FC69
:104B300004460A98039A03682146DB689847039B5A
:104B4000834204D00A9803689B68984704E0214692
:104B50002846FFF7AFFEF5E720460EF0D5FFDCE76D
:104B60000AA80FF07DFD0FF067F80AA8FFF793FF82
:104B700004A8F6E7FCE700BF3C0A0020C951010881
:104B8000A4620108A8620108B86201082DE9F04397
:104B9000DFF8E08091B00D461646D8F800305C6929
:104BA0009F6823682046DB68984700283FD0D7F8E5
:104BB000A030002B3BD02368204629491B6A984728
:104BC000236803AA2649D3F81C9020460DF10B0355
:104BD000C84700282BD0D7F8A030102221490AA8B6
:104BE0000093214BFFF722FF204A00210AA80FF073
:104BF00085FE014604A80FF0BCFD0AA80FF030FDA9
:104C00001B4904A80FF0C2FED8F8003058690368A9
:104C10009B6A98470368002204995B680A9098474A
:104C200040B90AA8FFF737FF04A80FF019FD11B02B
:104C3000BDE8F0830A983246294603681B69984705
:104C40000A9803689B689847EBE70AA80FF008FDED
:104C50000EF0F2FF0AA8FFF71EFF04A8F6E7FCE734
:104C6000BD620108C9510108A4620108A8620108D7
:104C7000B86201083C0A002010B504460FF0F0FCB1
:104C8000204610BD10B50A4C0A4A04F10800A2F1F2
:104C90000C0120600FF02CFD0C2300222046064959
:104CA000636023681A73054ABDE810400EF0B0BE79
:104CB00014020020D1620108794C00080000002095
:104CC0000022C0E92222C0E92422C0F8982080F8FE
:104CD0009C20C0F8A02070472DE9F84FA54A042376
:104CE0000024054620274FF001094FF4806B4FF058
:104CF000B0084FF0080AC0E925232C200FF0DAFB9A
:104D000006463A4621460760063020F8024C10F06D
:104D100099F8B4622E602C200FF0CCFB22230646BB
:104D20003A46036040F201132146063020F8023C67
:104D300010F088F8B4626E6002200FF0BBFB80F8C0
:104D4000009080F80190A86002200FF0B3FB04707F
:104D50004470E8602C200FF0ADFB40F2FF220646C5
:104D6000214682803A460460063010F06BF8B46247
:104D70002C20C5E91B640FF09DFB06463A462146F0
:104D8000C0F80080063020F802BC10F05BF8B46276
:104D90006E672C200FF08EFB40F201520646214632
:104DA000C0F80080063020F8022C3A4610F04AF88D
:104DB000B462AE6708200FF07DFB9C226E4E02604D
:104DC0000471C5F888000C200FF074FB0481847214
:104DD0002861DFF8AC81C0E900690C200FF06AFBA4
:104DE0000222066006F540664260048184726861B2
:104DF0000C200FF05FFB04818472C0E90087C5E9D5
:104E000006040C200FF056FB1022C0F80080426010
:104E100004818472C5E908040C200FF04BFB0423C5
:104E20000660436004818472A8620C200FF042FB8C
:104E30000660C0F804A004818472E8620C200FF0C0
:104E400039FB1022066042600481847228630C20C2
:104E50000FF030FB048184726863C0E900670C20A6
:104E60004FF400670FF026FB80220660426002814B
:104E700080F80A90A8630C200FF01CFB4FF480729E
:104E800006604260028180F80A90E8630C200FF00F
:104E900011FB4FF400730660436003818472286441
:104EA0000C200FF007FBA0F808B084726864C0E91A
:104EB000006B0C204FF4804B0FF0FCFA066047604B
:104EC00007818472A8640C200FF0F4FA4FF4805329
:104ED0000660436004818472E8640C200FF0EAFAF3
:104EE0004FF40053066043600481847228650C20EF
:104EF0000FF0E0FA0660C0F804B0048184726865BF
:104F00000C200FF0D7FA4FF4004306604360048191
:104F10008472A8650C200FF0CDFA184B04818472BE
:104F2000E865C0E9003B0C200FF0C4FA04818472EC
:104F30002866C0E900870C200FF0BCFA0481847257
:104F40006866C0E9008A0C200FF0B4FA0423C0F8A8
:104F50000080436004818472A86650460FF0AAFA6C
:104F6000D5F89830C5F8900003604BF68033436065
:104F7000BDE8F88FF800000100040258000C025848
:104F800000080258012303FA01F1D0F894301942C5
:104F900014BF0120002070470123103103FA01F1F2
:104FA000D0F89430194214BF01200020704701232B
:104FB000183103FA01F1D0F89430194214BF0120DE
:104FC00000207047072907D8DFE801F0160406061D
:104FD00014080A0C094870470020704708487047B9
:104FE00008487047D0F89430074813F4802F08BF62
:104FF000002070470548704705487047B8260020D4
:105000005827002008290020F4270020841B0020B6
:105010000827002050F8210070474B1C1ABF0431AC
:1050200050F821000020704700EB8101C86E7047E6
:10503000D0F88800704700EB8101C86F7047D0F846
:1050400090007047D0F88C0070470000F8B501F46C
:10505000C00604460D46B6F5001F72D0B6F5800FA7
:1050600026D0002E40F08380D0F894304BF6803765
:1050700080F89C6043F48033C0F8943010200FF027
:1050800019FAD4F89830476003603B4B83608681FF
:10509000E06710200FF00EFAD4F89830C0E900371E
:1050A000364B836040F201138381C4E9200634E06B
:1050B000D0F894304BF6803643F4802343F40073E9
:1050C000C0F89430012380F89C3010200FF0F2F9E2
:1050D000D4F8983046600360274BE06783604FF454
:1050E0000073838110200FF0E5F9D4F89830C4F8EC
:1050F0008000C0E90036214B836040F201138381B8
:1051000010200FF0D7F90223C4F88400C0E900365C
:105110001B4B836040F2024383811A4BA90BC4F8F6
:105120008C302B0B01F0040103F008030B43290C16
:1051300001F002010B43C5F380411943C4F8A010EC
:10514000F8BDD0F894304BF68037002643F40023A6
:10515000C0F89430022380F89C3010200FF0AAF998
:10516000D4F8983047600360034B83608FE70023D7
:1051700080F89C30D1E700BF582700200829002084
:10518000F427002014020020D0F8A03013B5044604
:105190007BB1094B1B68586903685B689847D4F872
:1051A0008C1001A8FFF704FAD4F8A01001A8FFF7AB
:1051B0007BFC02B010BD00BF3C0A00200022C0F8FA
:1051C000C0207047314B1B68F7B59D68044600212D
:1051D0002846FFF7F7FE20B10146002201A8FCF7A0
:1051E0009BFEA06201212846FFF7ECFE20B101469C
:1051F000012201A8FCF790FE00270521E062284665
:10520000C4E90C77FFF7DEFE064639462846FFF76D
:1052100012FF024626B1314601A8FCF7C1FE064640
:105220000621E6632846FFF7CDFE06460121284603
:10523000FFF701FF024626B1314601A8FCF7B0FE98
:105240000646072126642846FFF7BCFE06460221D3
:105250002846FFF7F0FE024626B1314601A8FCF7CA
:10526000B7FE0646042166642846FFF7ABFE0646F5
:105270002846FFF7E4FE024626B1314601A8FCF7B6
:10528000BFFE0646A66303B0F0BD00BF3C0A002087
:10529000104B1B6873B59E6800F15004002569B27D
:1052A0003046FFF7BAFE014648B9206001350434A4
:1052B000172DF4D101200DF04DFD02B070BD837AA1
:1052C00001A81BB1FCF756FE2060EFE7FCF73CFE9F
:1052D000FAE700BF3C0A0020024B1B68986900F007
:1052E00063B900BF3C0A0020054B1B689A6892F81E
:1052F0009C201AB9586903685B681847704700BF5B
:105300003C0A002038B500230546C0E912331820B6
:105310000FF0D0F808490446FEF756FE2046C5F8BF
:10532000C040BDE83840FEF759BE182120460EF0B7
:10533000E9FB0EF081FC00BF841B002070B500F17A
:105340008C050F24002655F8040B03685B6898470A
:10535000B0FA80F0400900FA04F30134172C46EA51
:105360000306F0D1034B31461B68BDE870409868D6
:10537000FFF76CBE3C0A00203A4B03211B6870B556
:105380009D6804462846FFF7FDFD50B118200FF038
:1053900091F800210646FEF78FF93046E660FEF7E9
:1053A0005DFA04212846FFF7EDFD50B118200FF0FB
:1053B00081F801210646FEF77FF930462661FEF7A7
:1053C0004DFA07212846FFF7DDFD50B114200FF0FC
:1053D00071F800210646FEF727FD3046E661FEF72C
:1053E0008DFD05212846FFF7CDFD50B114200FF0AB
:1053F00061F802210646FEF717FD30466661FEF7AA
:105400007DFD06212846FFF7BDFD50B114200FF0A9
:1054100051F803210646FEF707FD3046A661FEF768
:105420006DFD09212846FFF7ADFDC8B110200FF032
:1054300041F80546FEF784F828466562BDE87040ED
:10544000FEF700B9182130460EF05CFB0EF0F4FBBD
:10545000F8E71421F7E7FCE7FBE710212846F3E71C
:1054600070BD00BF3C0A0020F8B5394C054600214C
:1054700023689F683846FFF78FFD50B158200FF022
:1054800019F8064600F0DEF93046C5F8B06000F0C5
:10549000F7F902213846FFF77FFD58B128200FF0B9
:1054A00009F807210646FEF7C5FA3046C5F8B86088
:1054B000FEF790FA03213846FFF76EFD58B1282019
:1054C0000EF0F8FF04210646FEF7B4FA3046C5F8A0
:1054D000BC60FEF77FFA00213846FFF768FD50B147
:1054E0000C200EF0E7FF0646FEF7A6FB3046C5F897
:1054F000AC60FEF75BFB236897F89C5018693DB1E0
:10550000022D13D0002101F04FF82368022104E09E
:10551000294601F049F823682946186901F02CF85A
:1055200023681869BDE8F84000F06CBD002101F067
:105530003BF823680321F0E7582130460EF0E2FAE9
:105540000EF07AFB2821F8E7FCE70C21F5E700BF15
:105550003C0A002010B50446FFF79AFE2046FFF7EC
:10556000EDFE2046FFF72EFE2046FFF7B5FE204653
:10557000FFF7BAFE2046FFF7C5FE064B1B6898688A
:10558000FFF702FE2046FFF7F7FE2046BDE8104079
:10559000FFF76ABF3C0A00200022C0E90022C0E9F0
:1055A000022202617047000010B504460246002343
:1055B0000121094801F0B0FE002322460121A0602C
:1055C000064801F0A9FE0023E0602246194604487F
:1055D00001F0A2FE206110BD45560008AD5600083E
:1055E000F956000810B4D0E9024361B9821D234680
:1055F00080794FF4FA7150B901205DF8044B1070B6
:10560000184601F0C7BEC21DC821C079F3E75DF896
:10561000044B70470378012B0CD1C37883F001034E
:10562000C370074BC1781B685B689B6E1A6818468D
:1056300012681047022B0CBF00230123F0E700BFC4
:105640003C0A0020FFF7E6BF032910B504460DD140
:105650000B4B00211B685B68D86E03681B6898477A
:1056600020699621BDE8104001F094BE0170FFF75B
:10567000D1FF20460021BDE81040FFF7B3BF00BFB7
:105680003C0A0020437810B504465BB1064B6179B3
:105690001B685B68186F03681B689847637983F021
:1056A0000103637110BD00BF3C0A0020FFF7EABF91
:1056B00010B5044679B1012908D1094B8170002148
:1056C0001B685B68586F03681B6898472046BDE8F5
:1056D0001040FFF7D7BF01214170FFF783FFF5E7C7
:1056E0003C0A0020034B01211B685B68D86E0368ED
:1056F0001B6818473C0A0020FFF7F4BF406808B554
:10570000FFF728FF4FF0FF3001F0ECFDFAE710B58E
:105710008360029BC360039B0361049B4361059B01
:10572000C0E90012836110BD014B1860704700BFD3
:105730003C0A002037B502220023ADF806108DF890
:105740000420064AC16812688DF80530D4682268C2
:105750002046D56801AAA84703B030BD3C0A002006
:10576000C06B10B10368DB6818474BF68030704798
:1057700070470000032337B5019301AA054BC168A8
:105780001B68DC6823682046DD680023A8470120E9
:1057900003B030BD3C0A002000207047037D042B7D
:1057A00070B517D0C16C022B026C02EB410212D112
:1057B000416D002579B1C36C446CC66CE31A8B4211
:1057C00028BF0B46C91A3344C364C36C9C42F1D84A
:1057D000C564EFE70022104670BD0000044B10B511
:1057E000044640F81C3B0EF03BFF204610BD00BFB6
:1057F000A45A010810B50446FFF7F0FF58212046CF
:105800000EF080F9204610BD022937B5044603D0BA
:1058100003290CD003B030BD094A0023126801935C
:10582000D0680268D56801AAE168A847F2E70123B9
:105830000193034B1B68D8680368DD680023F2E717
:105840003C0A00200A4A00F124010260002282641E
:1058500002610275826180F824204264C264C0E95A
:105860000222C0E90712C0E90F22C0E914227047E2
:10587000A45A0108026D0021006952000FF0E2BA3B
:1058800073B5204D6022002604462B689B68D3F830
:1058900098104FF4615386644A434B4342651A4A59
:1058A00003650261C664C0E91023FFF7E3FF666386
:1058B00014200EF0FFFD064600F0FEF92B68A663EB
:1058C000586903689B6A98472B68A0610422DD68C9
:1058D00008212B6828461B6898472B680B4AE06014
:1058E000284600924FF48062019409491C69012303
:1058F000A04702B070BD142130460EF003F90EF03F
:105900009BF900BF3C0A0020000000302D5B00081E
:10591000D26201083A4B1B682DE9F0415D690446EB
:105920008368002B2CD12A681946284612699047B3
:10593000A060F8B10226002704F11C08E36928469C
:1059400027621F702B68A1685B69E763984701466F
:10595000002839D040460FF003F8606BA0B9A06B67
:105960000028EBD0036841465B6898470028E5D0E3
:10597000A66B10E00423237500252846BDE8F081BE
:105980000029D7D1C66B06E0036841465B6898479B
:105990000028E4D0666B002EEED0236A002BEBD0FB
:1059A000A0690122E16903681B6898470028E3D0D9
:1059B00033683046A1691B689847054670B9A069ED
:1059C00003689B689847D8E72B682846A1681B693D
:1059D00098470028CED0013EB0D1CDE723682046BD
:1059E000616D9B69E66398472368616D20469B69FA
:1059F00098472368616D20469B699847BDE700BFC3
:105A00003C0A0020037D022B10B5044609D0012B6F
:105A100008D0074B01211B689869FFF715FE022388
:105A2000237510BD0021FFF775FF0028F1D1F8E7BD
:105A30003C0A0020017D022910B504460BD1064B1B
:105A40001B689869FFF700FE032320462375BDE815
:105A50001040FFF70FBF10BD3C0A00202DE9F743AF
:105A60000123314D044600270375A9462B68DE68E3
:105A7000336801AAE1683046D3F804804FF0FF3361
:105A8000C0470028F4D09DF80430032BF0D8DFE89D
:105A900003F002060A392046FFF7B4FFE8E7204684
:105AA000FFF7C8FFE4E7237D022BE1D1BDF8062014
:105AB0004FF0320808FB02F8A26CE36C9A421ED346
:105AC000A26C616CE36C0B449B1A9845D0D8E06BD8
:105AD0004246A16C0368256C9B6805EB4101984721
