:020000040800F2
:1000000000000220B1590108356300083763000879
:100010003D6300083F6300084563000800000000DE
:100020000000000000000000000000004121010865
:100030004763000800000000E12101084522010893
:10004000015A0108015A0108015A0108015A010820
:10005000015A0108015A0108015A0108015A010810
:10006000015A0108015A0108015A010849630008B0
:100070005963000869630008796300088963000810
:1000800099630008A9630008015A0108015A010890
:10009000015A0108015A0108015A0108B963000810
:1000A000015A0108D5630008015A0108015A0108E4
:1000B000015A0108015A0108015A0108015A0108B0
:1000C000015A0108E5630008015A0108015A0108B4
:1000D000015A0108015A0108F5630008015A010894
:1000E000F7630008015A010800000000015A0108E6
:1000F000015A0108015A0108015A0108015A010870
:10010000015A0108015A0108015A0108015A01085F
:10011000015A01080B640008015A0108015A01083C
:10012000015A0108015A0108015A0108015A01083F
:10013000015A0108015A0108015A0108015A01082F
:1001400000000000000000000000000000000000AF
:10015000015A0108015A0108015A0108015A01080F
:10016000015A0108015A0108015A0108015A0108FF
:10017000015A0108015A0108015A0108015A0108EF
:10018000015A01080D640008015A0108015A0108CA
:10019000015A0108015A0108015A0108015A0108CF
:1001A000015A0108015A0108015A0108015A0108BF
:1001B000015A0108015A0108015A01081164000896
:1001C000015A0108015A0108015A0108015A01089F
:1001D000015A010831640008015A0108015A010856
:1001E000015A0108015A0108015A0108015A01087F
:1001F000015A0108015A0108015A0108015A01086F
:10020000015A0108015A0108015A0108015A01085E
:10021000015A0108015A0108015A0108015A01084E
:10022000015A0108015A0108015A010800000000A2
:1002300021640008015A010800000000015A010869
:10024000015A0108015A0108015A0108015A01081E
:10025000015A0108015A0108015A0108015A01080E
:10026000015A0108015A0108015A0108015A0108FE
:10027000015A0108015A0108015A01080000000052
:10028000015A0108015A0108015A01080000000042
:0802900000000000015A010802
:1002A00010F8012B11F8013B012A28BF9A42F7D020
:1002B000D01A7047034613F8012B002AFBD1181AF5
:1002C0000138704700F1340191E838009C46A64699
:1002D0004CF8045D90E8FF0FE54600BD90EC210B63
:1002E000704700BF80EC210B704700BF90EC200BE3
:1002F000704700BF80EC200B704700BFD0EC200B94
:10030000704700BFC0EC200B704700BFF0EC02014B
:10031000F0EC0211F0EC0221F0EC0231F0EC0241C1
:10032000F0EC0251F0EC0261F0EC0271F0EC0281B1
:10033000F0EC0291F0EC02A1F0EC02B1F0EC02C1A1
:10034000F0EC02D1F0EC02E1F0EC02F1704700BFFA
:10035000E0EC0201E0EC0211E0EC0221E0EC023101
:10036000E0EC0241E0EC0251E0EC0261E0EC0271F1
:10037000E0EC0281E0EC0291E0EC02A1E0EC02B1E1
:10038000E0EC02C1E0EC02D1E0EC02E1E0EC02F1D1
:10039000704700BFB0FC0181B0FC0191B0FC01A12D
:1003A000B0FC01B1704700BFA0FC0181A0FC01912D
:1003B000A0FC01A1A0FC01B1704700BFEC4600B554
:1003C0002DE900502DE9FF1F4FF000032DE90C002F
:1003D00001A918F0B5F9DDF840E012B0704700BF90
:1003E000EC4600B52DE900502DE9FF1F4FF000034A
:1003F0002DE90C0001A918F0DFF9DDF840E012B09A
:10040000704700BFEC4600B52DE900502DE9FF1FF5
:100410004FF000032DE90C0001A918F0EDF9DDF80B
:1004200040E012B0704700BFEC4600B52DE9005027
:100430002DE9FF1F4FF000032DE90C0001AB18F070
:10044000B3F9DDF840E012B0704700BFEC4600B5EC
:100450002DE900502DE9FF1F4FF000032DE90C009E
:1004600001AA18F025FADDF840E012B0704700BF8D
:100470000348044B834202D0034B03B11847704733
:10048000F0070020F0070020000000000548064BA0
:100490001B1AD90F01EBA301491002D0034B03B182
:1004A00018477047F0070020F00700200000000008
:1004B00010B5064C237843B9FFF7DAFF044B13B1AC
:1004C0000448AFF300800123237010BDF007002023
:1004D000000000000892010808B5054B1BB1054952
:1004E0000548AFF30080BDE80840FFF7CFBF00BF6D
:1004F00000000000F407002008920108BFF34F8FAE
:10050000BFF36F8F084B0022C3F85022BFF34F8F09
:10051000BFF36F8F5A6942F400325A61BFF34F8FB5
:10052000BFF36F8F704700BF00ED00E010B4154BB4
:100530000022C3F88420BFF34F8FD3F88040C4F368
:100540004E3000E01846C4F3C90243F6E07303EAF4
:10055000401343EA82730B49C1F860321346013AF3
:10056000002BF2D1431E0028ECD1BFF34F8F4B6913
:1005700043F480334B61BFF34F8FBFF36F8F5DF850
:10058000044B704700ED00E030B585B006F09AFAF4
:1005900001248DF80040204B019310238DF8083082
:1005A00003258DF80B5000238DF80F308DF80E4089
:1005B0008DF80D408DF801308DF80A308DF8093036
:1005C0008DF80C30684606F09BFA144B01930D230E
:1005D0008DF808308DF80F408DF80140684606F020
:1005E0008FFA0F4B019311248DF8084002238DF8E8
:1005F0000130684606F084FA4FF0405301938DF8BD
:1006000008408DF80150684606F07AFA042006F09A
:1006100067FA05B030BD00BF0000002400000224CE
:10062000004002242DE9F04786B00C2017F036F97F
:1006300082464FF40032354905F0FCF8C42017F02B
:100640002DF9814601F05CFFA42017F027F905463B
:1006500001F0A0FC302017F021F9804600F0F8FAF4
:100660004FF4117017F01AF9074604F005F9142039
:1006700017F014F9064602F099F91C2017F00EF94C
:10068000044605A804F0E8FE03960297CDF804801E
:1006900000902B464A465146204601F069FC2AE06C
:1006A0000C21504616F02CFC16F0C2FCC421484622
:1006B00016F026FC16F0BCFCA421284616F020FCFF
:1006C00016F0B6FC3021404616F01AFC16F0B0FCCD
:1006D0004FF41171384616F013FC16F0A9FC1421E2
:1006E000304616F00DFC16F0A3FC1C21204616F037
:1006F00007FC16F09DFC204601F046FC284601F060
:1007000059FC204606B0BDE8F08700BF0000002479
:100710002DE9F043CDB04C22002139A817F0DCFDC3
:100720002022002131A817F0D7FDBC22002102A809
:1007300017F0D2FD022009F023FF00230193364B6E
:100740009A6942F440429A619B6903F440430193E1
:10075000324BDA6A42F00102DA62DB6A03F001032B
:100760000193019B2C4B9B6913F4005FFAD02C4A38
:10077000936A23F0030343F0020393622123399326
:100780004FF480333A9301263F96022542954395D4
:1007900044964E23459346954FF00408CDF81C81AE
:1007A00048950C23499300244A944FF48069CDF86E
:1007B0002C9139A809F016FF3F233193032332937C
:1007C000339408273497402335933693CDF8DC9043
:1007D0003893414631A80AF0F9FA124B02930B966E
:1007E00010230C930D970E950F954FF440631093C3
:1007F000119412941594802318931F9422944FF40B
:100800004013239327940DEB07000AF093FD09F0A2
:10081000E1FE4DB0BDE8F0830048025800040058E6
:10082000004402581A02050008B5FFF767FEFFF7FB
:100830007DFE06F075F8FFF7A7FEFFF769FF05F0EC
:10084000C9F805F069F805F037F805F05DFE05F028
:1008500075FC0EF0FFFC05F0FFF905F02DFA14F021
:10086000B5FE10F0FFFFFFF7DDFE05F0A1F80FE089
:10087000012901D016F0DCFB16F0A4FC03689B688C
:10088000984702460649042015F08EF816F0C3FC7E
:1008900011F018F8FEE716F0BEFC16F0C9FB00BF19
:1008A0002892010808B50268034B9A4200D008BD9F
:1008B00006F064F8FBE700BF00000140704770B528
:1008C00004460E46154640F8042B134601F1BC02BF
:1008D0001C3100F05EFD2B4606F54F7206F5FE71E9
:1008E00004F5947000F055FD2B4606F5277206F5C9
:1008F000AE7104F5137000F04CFD2A4606F2144167
:1009000004F55C7000F079FF2A4606F5777104F56E
:10091000617000F0ADFD2A4606F57E7104F56B703E
:1009200000F0A6FD0023C4F8D433C4F8D833C4F8CB
:10093000DC33C4F8E033C4F8E4636FF060439D42F5
:1009400016D2AD00284616F0BAFFC4F8D4032846E4
:1009500016F0B5FFC4F8D803284616F0B0FFC4F867
:10096000DC03284616F0ABFFC4F8E003204670BD58
:1009700016F008FC10B50446043000F010FD04F534
:10098000947000F00CFD04F5137000F008FD04F500
:10099000617000F08FFD04F56B7000F08BFD04F5C5
:1009A0005C7000F041FF10BD10B54FF0000C11E07D
:1009B000B1F9004007EE904AF8EEE77A02EB8C0EB0
:1009C0009FED067A67EE877ACEED007A01EB430160
:1009D0000CF1010C04686445EAD810BD0000003831
:1009E00030B59DF80C404FF0000E05E0A2F800C0B5
:1009F00002EB43020EF1010E0568754516D901EBB5
:100A00008E0CDCED007A9FED0A7A67EE877AF8FEAD
:100A1000677AFDEEE77A17EE905A0FFA85FC002C04
:100A2000E4D0CCF1000C0FFA8CFCDFE730BD00BF46
:100A30000000004770B582B004460E4615460223FA
:100A4000D0F8D423FFF7B0FF0223D4F8D823F1184D
:100A50002046FFF7A9FFD4F8E4331B7E002B66D1B4
:100A6000D4F8D823D4F8D41304F5617000F0A8FEAC
:100A7000D4F8D823D4F8D41304F56B7000F0A0FE9A
:100A8000D4F8E4335B7E002B61D004F51376D4F800
:100A9000DC33D4F8D4230021304600F0C4FCD4F871
:100AA000E033D4F8D8230121304600F0BCFC04F533
:100AB0009476D4F8D42313460021304600F0B3FCDA
:100AC000D4F8D82313460121304600F0ACFC6A6804
:100AD0000123009302231A44D4F8DC132046FFF7C5
:100AE0007FFF0023009302236A68D4F8E0132046B6
:100AF000FFF776FFD4F8D823D4F8D41304F55C704C
:100B000000F0A6FE2A680123009302231A44D4F8B9
:100B1000D4132046FFF764FF0023009302232A68C2
:100B2000D4F8D8132046FFF75BFF02B070BD261D36
:100B3000D4F8D42313460021304600F074FCD4F8D6
:100B4000D82313460121304600F06DFC88E76A681F
:100B50000123009302231A44D4F8D4132046FFF74C
:100B60003FFF0023009302236A68D4F8D81320467D
:100B7000FFF736FFBEE7022A05D8DFE802F00206DB
:100B8000080000230360002070470160FBE70B684A
:100B90000360F8E7012A02D101600020704708B520
:100BA000FFF7E9FF002008BD022A05D8DFE802F0C0
:100BB0000206080000230360002070470160FBE785
:100BC0000B680360F8E7012A02D10160002070473A
:100BD00008B5FFF7E9FF002008BD022A05D8DFE8C5
:100BE00002F0020608000023036000207047016045
:100BF000FBE70B680360F8E7012A02D101600020DF
:100C0000704708B5FFF7E9FF002008BD022A05D8A4
:100C1000DFE802F0020608000023036000207047AE
:100C20000160FBE70B680360F8E7012A02D101606D
:100C30000020704708B5FFF7E9FF002008BD10B598
:100C40000446836813B1032201469847204610BD2D
:100C500000220270F02141608260C2600261426144
:100C60008261C26180F820204262FF2180F8281052
:100C700080F82910C2627047F8B506460F4B1B6812
:100C80009F68D7F898504FF47A7016F007FE044624
:100C9000384601F055FB014605EB45052A01204683
:100CA000FFF70DFEF4612046FFF764FEF8BD4FF438
:100CB0007A71204616F024F916F0BAF90C080020D3
:100CC000F0B593B00446554B1B685E689B6893F87B
:100CD0009C3080F82030FFF7CFFF94F82030012BB4
:100CE00038D94E4B1B68DD682B681B68042208212D
:100CF00028469847A0602B680194494A00921F69D2
:100D000001234FF4806247492846B8472B68019475
:100D1000454A00921F6903234FF4806243492846E5
:100D2000B84794F82020531EDBB2012B37D9002A94
:100D300047D1D6F8880003685A6900230A930B93B9
:100D40000C930D930A943A4B0D933A4B0C930AA9CA
:100D5000904738E0B06F03685A6900230293039309
:100D6000049305930294344B0593344B049302A9E6
:100D7000904702A8FFF763FFF06F03685A690023EA
:100D8000069307930893099306942D4B09932D4BD3
:100D9000089306A9904706A8FFF751FFA1E72B6823
:100DA0000194294A00921E6903234FF48062274967
:100DB0002846B047002322461946254810F046FE33
:100DC000606213B0F0BD0AA8FFF739FFD6F88400BF
:100DD00003685A6900230E930F93109311930E9496
:100DE0001C4B11931C4B10930EA990470EA8FFF7B4
:100DF00026FFE6E702A8FFF722FF16F019F906A87A
:100E0000FFF71DFF16F014F90AA8FFF718FF16F0F8
:100E10000FF90EA8FFF713FF16F00AF90C080020CF
:100E2000A91100084C920108DD1200085C9201082B
:100E3000B90E0008F90B0008150F0008950B000803
:100E40002B0F0008C70B0008151300086C9201084F
:100E50007F130008E90F00082B0C000890F82030E1
:100E6000022B03D0012906D00120704709B10120CF
:100E70007047002070470020704700004369C3B1ED
:100E800030B583B0044683698BB1FFF7E7FF70B1DB
:100E900000238DF804308DF80530ADF80630054A92
:100EA0001268D0680268D56801AAA168A84703B093
:100EB00030BD70470C08002008B500210068FFF71E
:100EC000DDFF08BD08B500220270FFF7D7FF08BD9F
:100ED00008B501230370FFF7D1FF08BD30B583B01B
:100EE00005460C461146FFF7B9FF70B10023019388
:100EF00001228DF80420ADF80640054A1268D0683A
:100F00000268D46801AAA968A04703B030BD00BF39
:100F10000C08002008B51378006823B902210022CC
:100F2000FFF7DCFF08BD0821F9E708B51378006872
:100F30002BB96FF001010022FFF7D0FF08BD6FF061
:100F40000701F8E730B583B005460C461146FFF7B8
:100F500085FF70B10023019302228DF80420ADF8C3
:100F60000640054A1268D0680268D46801AAA968D8
:100F7000A04703B030BD00BF0C08002030B583B0DF
:100F800005460C461146FFF769FF70B10023019337
:100F900003228DF80420ADF80640054A1268D06897
:100FA0000268D46801AAA968A04703B030BD00BF99
:100FB0000C08002030B583B00446FFF74FFF78B12E
:100FC00005238DF8043000238DF80530ADF8063088
:100FD000044A1268D0680268D56801AAA168A847C7
:100FE00003B030BD0C08002008B500210068FFF7F1
:100FF000E1FF08BD10B582B0014606238DF804302C
:1010000000238DF80530ADF80630054A1268D06827
:101010000268D46801AA8968A04702B010BD00BF69
:101020000C08002010B582B0014607238DF804306B
:1010300000238DF80530ADF80630054A1268D068F7
:101040000268D46801AA8968A04702B010BD00BF39
:101050000C080020F0B583B00646524B1B68DC68D4
:1010600090F820300BB100274DE00221FFF72AFF56
:10107000F9E72F4647E0337883F001033370706956
:101080000268926873B102219047B06903689B6857
:1010900032784AB10221984796F82030012B05D0CA
:1010A0002F4630E00321EFE70321F4E733780BB953
:1010B0002F4628E0C821706A10F020FD2F4622E05C
:1010C000384B1B680321986901F0D0FC9DF804306F
:1010D000012B0AD0BDF9063073607368002B0ADB60
:1010E000FF2B0ADDFF23736007E07368BDF906205C
:1010F00013447360F1E700237360B06903681B6AEF
:10110000317998472F4623685D684FF0FF3301AA75
:10111000B1682046A8470028F5D012F071FA0546BC
:101120009DF80430072B03D0A0F1C802BA42EAD3DD
:10113000072B9ED801A252F823F000BF77100008B9
:10114000C1100008C11000085D11000873100008EC
:101150007F1100088B11000895110008114B1B68C6
:101160000321986901F082FCB069BDF8061003689C
:10117000DB69003918BF012198472F46C3E7706922
:1011800003685B6A98472F46BDE7F069FFF7F2FBFB
:101190002F46B8E7B06903689B68042198472F463B
:1011A000B1E700BF0C08002008B5FFF753FF0000AF
:1011B00010B50446C36A0133C362054B1B68D86887
:1011C00003689B69E16898470023E36010BD00BF96
:1011D0000C08002010B50446016939B10B4B1B689F
:1011E000D86803689B69984700232361237823B15B
:1011F00094F82030012B05D010BD02212046FFF7C6
:1012000061FEF9E7606A10F0ABFCF5E70C0800201E
:101210002DE9F04182B02E4B1B68DE689B68D3F845
:10122000987007EB47022B4BB3EB421F0BD30446DE
:101230009501284616F043FB0090284616F03FFB28
:101240000190002522E015F09DFF606903685B694D
:10125000294698470146002834D06A46E069FFF7DE
:10126000E9FBA0690368D3F8148000232A4600999B
:10127000C047A0690368D3F8148001232A46019966
:10128000C047606903689B692946984712F00EFCC5
:10129000E0603368DB694FF0FF313046984763699F
:1012A000002BF3D0A0690028F0D0002DCDD1036829
:1012B0009B69984700FB07F56D00074BA3FB0535BD
:1012C000AD09C2E702212046FFF702FEDEE700BFBC
:1012D0000C080020FCFFFF3FD34D621008B5FFF75C
:1012E00097FF000038B50446094B1B68DD6802E033
:1012F00003681B6A984712F0D9FB20612B68DB69F1
:101300004FF0FF312846984760690028F0D1F2E796
:101310000C08002008B5FFF7E5FF000010B50346F4
:1013200090F92840094A1268526801F12C0052F8DD
:101330002000586183F82810022901D0204610BDF2
:1013400003689B6800219847F8E700BF0C0800205D
:10135000034690F92900064A1268526801F12A0CE6
:1013600002EB8C0252689A6183F82910704700BF23
:101370000C08002008B50221FFF7AAFD08BD08B53A
:10138000FFF7F8FF08BD0346C06A09B10022DA6220
:1013900070470360C0F81C11C0F82021704738B5B1
:1013A0000546002433E00131072922D801EB8103EF
:1013B00002EB830393ED007AF7EE007AB4EE677ADE
:1013C000F1EE10FAEFD1D3ED017AF5EE407AF1EEBD
:1013D00010FAE8D1D3ED027AF5EE407AF1EE10FA88
:1013E000E1D1D3ED037AF5EE407AF1EE10FADAD1DD
:1013F00000E00821E30118332B4404EB440005EB23
:1014000080000433C9B2043005F07EFA0134012CA7
:1014100008DC04F1460305EB83035A68002AF5D083
:101420000021C1E738BD08B586468C4611461846EE
:101430000CF146030EEB83035B682BB10CEB4C0302
:101440000EEB83035B683BB9814204D0DEF80020D9
:10145000920016F0C9FF08BD0CEB4C0C0EEB8C0C87
:10146000DEF8003002460CF1040005F09FF9F2E7C7
:1014700038B50160426000238360C3604FF07E5343
:101480000361002343618361C361036243626FF0C0
:1014900060439A420BD204469500284616F00FFA94
:1014A000A060284616F00BFAE060204638BD15F023
:1014B00069FE000030B52DED028B85B00446DFEDEE
:1014C000397ACDED027A036803F10C0293ED037AC9
:1014D000B4EEE77AF1EE10FA00DC02AA1268DA60E4
:1014E0002568D5ED036AF7EE007A87EEA67A77EEE7
:1014F000C77AC4ED097AD5ED007A95ED047A67EEE6
:10150000877ABFEE008AC8EE277A17EE900A16F0A7
:10151000D5FCA061D5ED017A95ED047A67EE877A66
:10152000C8EE277A17EE900A16F0C8FCE0612B1D72
:1015300095ED017AD5ED007AB4EEE77AF1EE10FA86
:1015400000D42B46D3ED006AF1EE047A86EEA77A3A
:101550008DED017ADFED147ACDED037AB4EEE77A02
:10156000F1EE10FA1BDC03ABD3ED007ACDED017A7E
:10157000236893ED047A67EE877ABFEE007AC7EEB0
:10158000277A17EE900A16F099FC20624FF07E53EE
:1015900023610023636105B0BDEC028B30BD01AB5C
:1015A000E2E700BF6F12833A6F12033B00000000B6
:1015B000F8B52DED028B04461F464FF0000C04E0F9
:1015C0003D44C5ED007A0CF1010C6368634515D903
:1015D0004FEA8C0501EB8C0393ED007AB0EEC76AFD
:1015E00002EB8C03D3ED007AF0EEE76AB4EEE66A24
:1015F000F1EE10FAE4DDF0EE477AE1E73A463946DB
:10160000384605F003F8D4ED088AB7EE008A38EEC4
:10161000688A002515E0D4ED047A67EEA87A07EB16
:10162000850696ED007A27EE087A77EE877AC6ED82
:10163000007AC4ED047A17EE900A04F0EDF83060F9
:1016400001356368AB42E6D894ED047AB7EEC77A09
:101650009FED0B6BB4EEC67BF1EE10FA01D50A4A92
:1016600022613A460949384605F038F863683A4637
:101670000749384605F004F8BDEC028BF8BD00BF01
:1016800082764968C2253C3D132EE12900002041A5
:101690000000404070B504460E4615460368996840
:1016A0004368324681F00041304604F0E9FF236888
:1016B000D3ED037A63682A46B7EE007AC7EE277A3D
:1016C00017EE901A304605F009F863682A4631464D
:1016D000284605F031F8002302E000220A600133B9
:1016E0006168994209D905EB8301D1ED007AF5EEE5
:1016F000C07AF1EE10FAF0DCF1E770BDD0ED065AD9
:10170000B7EE006A76EE655AD0ED077A36EE676A74
:1017100000230CE0D0ED076A67EEA67A26EE077A82
:1017200077EE877AC2ED007A12684261013342682F
:101730009A4215D901EB830292ED007AD0ED057A39
:10174000F4EEC77AF1EE10FAE4DDD0ED066A67EE4A
:10175000A67A25EE877A77EE877AC2ED007AE3E7FC
:1017600070470000F8B506461746FFF793FF394665
:101770003046FFF7C3FF3368D3ED057AF5EE407AC4
:10178000F1EE10FA07D173683A460C49384604F076
:10179000A5FF00240EE073683A4617EE901A38460B
:1017A00004F06EFFEFE707EB8405286804F026F8E5
:1017B000286001347368A342F5D8F8BDCDCC4C3D08
:1017C00003681B7E03B9704770B504460E46154684
:1017D0008368FFF7EDFEE268A1682046FFF7C2FFCD
:1017E00063683246E168304604F010FF63682A46B9
:1017F000E168284604F00AFF70BD70B5054616463C
:1018000001604260002407E04FF4D87016F057F8EA
:10181000A31C45F823000134012CF5DDF00016F07F
:101820004EF82861284670BD38B50446006890F827
:10183000503103B938BD14F005F9002505E0AB1CA3
:1018400054F8230014F0DEF80135012DF7DDF1E73F
:1018500030B583B004461546036893F850210AB9A1
:1018600003B030BD0846626800922269A16814F096
:1018700003F96368009323682269E168284614F03D
:10188000FBF8EDE710B582B08446002301930222F5
:101890008DF80420ADF80610054A1268D068026879
:1018A000D46801AADCF80C10A04702B010BD00BF3C
:1018B0000C080020C06B20B108B50368DB689847AE
:1018C00008BD4BF6803070477047000010B582B0FD
:1018D000014603238DF8043000238DF80530ADF860
:1018E0000630054A1268D0680268D46801AAC9683F
:1018F000A047012002B010BD0C0800200020704756
:101900007047000010B582B08446022903D0032935
:1019100012D002B010BD00238DF804308DF80530D0
:10192000ADF806300D4A1268D0680268D46801AA82
:10193000DCF80C10A047ECE701238DF804300023FD
:101940008DF80530ADF80630044A1268D068026898
:10195000D46801AADCF80C10A047DAE70C080020D4
:1019600010B50446054B40F81C3B16F07BF8044BC1
:101970002360044B2360204610BD00BFE0920108A5
:10198000AC9201089092010810B50446074B40F84C
:101990001C3B16F067F8064B2360064B236058216A
:1019A000204615F0ADFA204610BD00BFE0920108B8
:1019B000AC920108909201080C4A02600C4A026045
:1019C0000C4A026000228260C2600261027582617C
:1019D00000F12401C161026280F82420C263026424
:1019E00042648264C2640265426570479092010855
:1019F000AC920108E092010808B5026D5200002186
:101A0000006916F069FC08BD30B583B00446214B6F
:101A10001B689B68D3F8983003EB43025201426580
:101A20004FF4615202FB03F303651B4A0261026437
:101A3000436400258564C564FFF7DEFF65631420F9
:101A400015F02CFF054600F085FAA563114D2B68B3
:101A5000586903689B6A9847A0612B68DD682B680A
:101A60001B680422082128469847E0602B680194EF
:101A70000A4A00921C6901234FF4806208492846F3
:101A8000A04703B030BD1421284615F039FA15F0EF
:101A9000CFFA00BF0C08002000000030ED1C000849
:101AA0007C920108F8B504463E4B1B685D6983686B
:101AB000002B28D0002968D1E56B002D69D0236A5E
:101AC000002B66D0A06903681B680122E169984772
:101AD00000285ED02B681B68A169284698470646F7
:101AE000002859D0E56323689B69616D20469847BB
:101AF00023689B69616D2046984723689B69616DE7
:101B00002046984746E02B681B69002128469847E5
:101B1000A06008B10121CDE704232375002639E038
:101B2000656BCAE72B681B69A1682846984700289F
:101B300027D0013F002F2AD004F11C060023236286
:101B4000E2691370E3632B685B69A16828469847D4
:101B500001460028E6D0304616F024F9606B28B123
:101B600003685B68314698470028D9D1A06B0028EC
:101B7000E0D003685B68314698470028DAD0A56B4F
:101B80009BE704232375002604E00227D2E7002503
:101B900093E700263046F8BDA06903689B68984724
:101BA000F8E700BF0C080020037D022B12D010B50F
:101BB0000446012B08D0084B1B680121986900F0EE
:101BC00055FF0223237510BD0021FFF76BFF00288E
:101BD000F1D1F8E7704700BF0C080020037D022B0D
:101BE00000D0704710B50446054B1B680221986968
:101BF00000F03CFF032323752046FFF7FDFE10BDD8
:101C00000C080020F0B583B0064601230375364B5F
:101C10001B68DC6802E03046FFF7C6FF23685D689A
:101C20004FF0FF3301AAF1682046A8470028F5D0FD
:101C30009DF80430032BF1D801A252F823F000BF25
:101C4000171C0008511C0008591C0008B91C00088A
:101C50003046FFF7C3FFE1E7337D022BDED1BDF84D
:101C60000650322303FB05F5B26CF36C9A421FD386
:101C7000736CB26C9B1AF26C13449D42CED8316CDB
:101C8000B76CF06B03689B682A4601EB47019847E5
:101C9000B36C1D44B564B26C736C9A4201D30023DB
:101CA000B3640028BAD133685B6A30469847B5E719
:101CB000F36CB26C9B1AE0E70023F363012130461A
:101CC000FFF7F0FE0028A9D1337D042B04D0336840
:101CD0005B6A30469847A1E7034B1B68002198696F
:101CE00000F0C4FE9AE700BF0C08002008B5FFF71B
:101CF00089FFA9B110B400E079B14468C368E31A60
:101D0000994200D80B46C91AC2681344C360C3681D
:101D10009C42F1D80023C360EEE75DF8044B7047A6
:101D2000704710B5037D042B0CD0046CC26C04EB1F
:101D30004204022B01D0204610BD416D4030FFF718
:101D4000D8FFF8E70024F6E730B58DB005460C461D
:101D500041600021016123685B6920469847236840
:101D6000DB682C2201A9204698479DF80430522BAD
:101D700051D19DF80530492B50D19DF80630462BA6
:101D80004ED19DF80730462B4CD19DF80C30572B87
:101D90004AD19DF80D30412B48D19DF80E30562B7D
:101DA00046D19DF80F30452B44D19DF81030662B5D
:101DB00042D19DF811306D2B40D19DF81230742B1B
:101DC0003ED19DF81330202B3CD19DF82830642B58
:101DD0003AD19DF82930612B38D19DF82A30742BE7
:101DE00036D19DF82B30612B34D19DF81830012B62
:101DF00032D19DF819308BBB9DF82630102B2FD196
:101E00009DF8273073BB0B9B5B08AB60BDF81A30A5
:101E1000EB60012000E000200DB030BD0020FBE7AA
:101E20000020F9E70020F7E70020F5E70020F3E7BE
:101E30000020F1E70020EFE70020EDE70020EBE7CE
:101E40000020E9E70020E7E70020E5E70020E3E7DE
:101E50000020E1E70020DFE70020DDE70020DBE7EE
:101E60000020D9E70020D7E74BF68030704700000C
:101E700010B400230B60136083684BF6803CC46889
:101E80000CFB04FCB3FBFCF30B6003690349A1FBEF
:101E900003139B0A13605DF8044B7047F119760534
:101EA000024A0260024A0260704700BF389301088C
:101EB0001493010838B54C68042C20D9231F0D68F1
:101EC000EB5C2E2B01D000201AE0E31EE85C16F03C
:101ED000DFF9772801D0002012E0A31EE85C16F09D
:101EE000D7F9612801D000200AE0013C285D16F0F6
:101EF000CFF9762801D0002002E0012000E0002088
:101F000038BD38B50D460369C468B2FBF4F4234408
:101F10000361540040680368DB68224698478442A6
:101F200001D1012038BD221A0021284416F0D4F92D
:101F30000020F7E710B50446044B0360044B036030
:101F4000142114F0DDFF204610BD00BF38930108B6
:101F500014930108044A0260044A026000224260AD
:101F60008260C260026170471493010838930108CF
:101F7000016042608360009BC360019B0361029B20
:101F80004361039B83617047014B1860704700BF3A
:101F90000C0800200022C0F88820C0F88C20C0F86F
:101FA0009020C0F89420C0F8982080F89C20C0F8B9
:101FB000A02070472DE9F84F0546A94BC0F8943092
:101FC0004FF0040AC0F898A02C2015F067FC0646D4
:101FD0004FF02008C0F8008000240471447142468C
:101FE0002146063016F078F9B4622E602C2015F0E8
:101FF00055FC0646222303600127077147714246BC
:102000002146063016F068F9B4626E60022015F0C1
:1020100045FC07704770A860022015F03FFC047073
:102020004470E8602C2015F039FC06460460FF235C
:1020300003714FF0020980F80590424621460630B0
:1020400016F04AF9B462EE662C672C2015F026FCD7
:1020500006464FF0B00BC0F800B0047180F805A040
:1020600042462146063016F037F9B4626E672C20DE
:1020700015F014FC0646C0F800B007710523437143
:1020800042462146063016F027F9B462AE670820B2
:1020900015F004FC9C2303600471C5F888000C2033
:1020A00015F0FCFB6F4E0660476004818472286166
:1020B0000C2015F0F3FB0660C0F8049004818472D4
:1020C00068610C2015F0EAFBDFF8A091C0F80090E1
:1020D000C0F8048004818472A861EC610C2015F0C2
:1020E000DDFBC0F8009010234360048184722862F5
:1020F0006C620C2015F0D2FB06F540660660C0F855
:1021000004A004818472A8620C2015F0C7FB06604D
:102110004FF0080BC0F804B004818472E8620C2010
:1021200015F0BCFB066010234360048184722863B1
:102130000C2015F0B3FB0660C0F8048004818472A3
:1021400068630C2015F0AAFB0660802343600381BE
:102150008772A8630C2015F0A1FB06604FF4807312
:10216000436003818772E8630C2015F097FB0660DB
:102170004FF4007343600381847228640C2015F0CF
:102180008DFB06604FF48063436003818472686452
:102190000C2015F083FB06604FF400674760078151
:1021A0008472A8640C2015F079FB06604FF480530C
:1021B000436004818472E8640C2015F06FFB0660B4
:1021C0004FF4005343600481847228650C2015F09D
:1021D00065FB06604FF48048C0F804800481847277
:1021E00068650C2015F05AFB06604FF4004343600D
:1021F00004818472A8650C2015F050FB1A4B036013
:10220000C0F8048004818472E8650C2015F046FB58
:10221000C0F8009047600481847228660C2015F095
:102220003DFBC0F80090C0F804B004818472686679
:102230000C2015F033FBC0F80090C0F804A0048116
:102240008472A866584615F029FBD5F898300360CB
:102250004BF680334360C5F89000BDE8F88F00BFAF
:10226000F800000100040258000C0258000802584F
:10227000D0F8942001238B401A4214BF0120002083
:102280007047D0F89420103101238B401A4214BFBC
:10229000012000207047D0F89420183101238B4092
:1022A0001A4214BF0120002070470000072918D8E7
:1022B000DFE801F004190806150A0C0E0C487047F7
:1022C00000207047002070470A4870470A4870474E
:1022D000D0F8943013F4802F07D00848704708488E
:1022E000704700207047074870470020704700BFC4
:1022F00088080020E40A0020480A0020800B002003
:10230000002400203808002050F821007047B1F167
:10231000FF3F03D0043150F8210070470020704780
:102320001A3100EB810040687047D0F88800704790
:102330001E3100EB810040687047D0F89000704774
:10234000D0F88C00704700002DE9F04104460D469E
:1023500001F4C003B3F5001F00F08380B3F5800FD4
:1023600049D01BB1002380F89C3026E0D0F894308F
:1023700043F48033C0F89430002680F89C6010202D
:1023800015F08CFAD4F8983003604BF6803747602C
:10239000484B836006734673E067102015F07EFAA1
:1023A000D4F8983003604760434B83600123037384
:1023B0004373C4F88000C4F884600023C4F8A030DC
:1023C0003E4BC4F88C302B0B03F00803C4F8A0304C
:1023D000AA0B02F004021343C4F8A0302A0C02F046
:1023E00002021343C4F8A030C5F380452B43C4F860
:1023F000A030BDE8F081D0F89420314B1343C0F8F1
:1024000094304FF0010880F89C80102015F046FAB7
:10241000D4F8983003604BF680374760254B8360D3
:102420000023037302264673E067102015F036FA86
:10243000D4F89830036047601F4B836080F80C80AD
:1024400080F80D80C4F88000102015F027FA06608F
:1024500047601C4B8360067304234373C4F88400F5
:10246000ABE7D0F8943043F40023C0F89430022353
:1024700080F89C30102015F011FAD4F898300360E1
:102480004BF6803747600B4B83600026067346731C
:10249000E067102015F002FAD4F898300360476026
:1024A000054B8360012303734373C4F88000C4F8B1
:1024B000846082E7E40A0020480A0020040000202B
:1024C00000020400800B0020D0F8A030A3B110B5AA
:1024D00082B00446094B1B68586903685B689847DB
:1024E000D4F88C1001A800F028FBD4F8A01001A8A3
:1024F00000F09EFD02B010BD704700BF0C08002028
:1025000038B504462822002115F0E6FE20220021DD
:1025100004F1280015F0E0FE0025A564E5645C22C6
:10252000294604F1500015F0D7FEC4F8AC50C4F8A9
:10253000B050C4F8B450C4F8B850C4F8BC50C4F893
:10254000C050204638BD0000F0B583B00446314B82
:102550001B689D6800212846FFF7A8FE014620B1B0
:10256000002201A802F088FF0146A162012128464D
:10257000FFF79CFE014620B1012201A802F07CFF7A
:102580000146E16200276763276305212846FFF7BC
:102590008DFE064639462846FFF7CAFE024626B19A
:1025A000314601A802F0ACFF0646E6630621284644
:1025B000FFF77CFE064601212846FFF7B9FE0246DA
:1025C00026B1314601A802F09BFF0646266407218A
:1025D0002846FFF76BFE064602212846FFF7A8FEB5
:1025E000024626B1314601A802F0A2FF0646666403
:1025F00004212846FFF75AFE06462846FFF79DFEAF
:10260000024626B1314601A802F0AAFF0646A6639B
:1026100003B0F0BD0C080020F0B583B00646154BA2
:102620001B689F6800250BE01434002346F8243013
:1026300005E001A802F038FF143446F82400013503
:10264000162D11DC6CB221463846FFF760FE0146BC
:102650000028E9D0837A002BEBD001A802F03AFFE2
:10266000143446F82400EAE7012003F0E5FA03B049
:10267000F0BD00BF0C08002008B5034B1B6898692B
:1026800000F0A2F908BD00BF0C08002008B5054BFA
:102690001B689A6892F89C201AB9586903685B68AD
:1026A000984708BD0C08002070B50546464B1B68CE
:1026B0009C6803212046FFF7DBFD58B1182015F078
:1026C000EDF80646002101F029FDEE6033681B6835
:1026D0003046984704212046FFF7CAFD58B118201C
:1026E00015F0DCF80646012101F018FD2E61336873
:1026F0001B683046984707212046FFF7B9FD58B1BF
:10270000142015F0CBF80646002101F06DF9EE61BA
:1027100033681B683046984705212046FFF7A8FD1F
:1027200058B1142015F0BAF80646022101F05CF900
:102730006E6133681B683046984706212046FFF7D4
:1027400097FD58B1142015F0A9F80646032101F0B1
:102750004BF9AE6133681B68304698470921204623
:10276000FFF786FD00B970BD102015F097F80446FC
:1027700001F032FE6C6223681B6820469847F2E73E
:102780001821304614F0BCFB14F052FC18213046DE
:1027900014F0B6FB14F04CFC1421304614F0B0FBDE
:1027A00014F046FC1421304614F0AAFB14F040FC4F
:1027B0001421304614F0A4FB14F03AFC10212046FA
:1027C00014F09EFB14F034FC0C08002038B50446CD
:1027D00000238364C364182015F060F80546074998
:1027E00000F077FDC4F8C050284600F07DFD38BDEC
:1027F0001821284614F084FB14F01AFC0024002051
:1028000070B50546474B1B689C6800212046FFF7C2
:1028100038FD58B1582015F041F80646FFF7CCF8BE
:10282000C5F8B06033681B683046984702212046DF
:10283000FFF727FD60B1282015F030F80646072184
:1028400001F06AFAC5F8B86033681B6830469847EB
:1028500003212046FFF715FD60B1282015F01EF872
:102860000646042101F058FAC5F8BC6033681B68BD
:102870003046984700212046FFF70DFD80B994F8B7
:102880009C30D3B1022B29D0264C23680021186933
:10289000FEF75EFD236802211869FEF73FFD17E091
:1028A0000C2014F0FBFF064601F03CFBC5F8AC60C1
:1028B00033681B6830469847E1E71A4C23680021CB
:1028C0001869FEF745FD236800211869FEF726FD0B
:1028D000144B1B681869FEF7F3F970BD114C23689F
:1028E00000211869FEF734FD236803211869FEF7FB
:1028F00015FDEDE75821304614F002FB14F098FB6B
:102900002821304614F0FCFA14F092FB28213046BE
:1029100014F0F6FA14F08CFB0C21304614F0F0FAA7
:1029200014F086FB0C080020F8B507460024254665
:102930000EE004F10F0604F1230357F823000368A7
:102940005B689847B0FA80F04009B0400543013415
:10295000072CEED9034B1B6829469868FFF7F4FC57
:10296000F8BD00BF0C08002010B50446FFF754FE68
:102970002046FFF7D9FF2046FFF7E6FD2046FFF788
:102980007BFE2046FFF782FE2046FFF71FFF064B27
:102990001B689868FFF798FD2046FFF785FE2046E4
:1029A000FFF72EFF10BD00BF0C08002000220270B0
:1029B00042708270C270027142718271C271826013
:1029C000C26002617047000010B504460023024651
:1029D000012109480FF03AF8A060002322460121A6
:1029E00006480FF033F8E0600023224619460448F9
:1029F0000FF02CF8206110BD652A0008CD2A0008D0
:102A0000212B000808B5034631B9806806334FF41E
:102A1000FA711A7822B108BDC0680733C821F8E7F7
:102A200001221A700FF06AF8F5E7000008B50346B6
:102A30000278012A0CD0022A0FD00122C270084A63
:102A400012685268906E02681268D978904708BD83
:102A5000C27882F00102C270F1E70022C270EEE794
:102A60000C08002008B5FFF7E1FF08BD10B50446CB
:102A700003290CD10A4B1B685B68D86E03681B687E
:102A800000219847962120690FF038F810BD017099
:102A9000FFF7CCFF00212046FFF7B4FFF6E700BFA9
:102AA0000C080020437873B110B50446064B1B6830
:102AB0005B68186F03681B6861799847637983F0D6
:102AC0000103637110BD70470C08002008B5FFF7C3
:102AD000E9FF08BD10B5044671B1012908D1A17004
:102AE000084B1B685B68586F03681B680021984798
:102AF0002046FFF7D7FF10BD01214170FFF782FF8D
:102B0000F6E700BF0C08002008B5044B1B685B68A3
:102B1000D86E03681B680121984708BD0C08002087
:102B200008B5FFF7F1FF08BD08B54068FFF71CFFC7
:102B30004FF0FF300EF06CFFFAE70160704770B5A0
:102B400086B00C4615461E4605A802F021FD6B46D0
:102B50002A46214605A802F0E8FD08B906B070BD76
:102B60000A9B039A314605A802F045FDF6E770B5C9
:102B700086B00C4615461E4605A802F009FD6B46B8
:102B80002A46214605A802F0D0FD08B906B070BD5E
:102B90000A9B039A314605A802F068FDF6E770B576
:102BA00086B00C4615461E4605A802F0F1FC6B46A1
:102BB0002A46214605A802F0B8FD28B19DF800304C
:102BC000012B03D0102B0BD006B070BD03990A68FF
:102BD0004B6843EC172BF7EEC77BC6ED007AF3E7A3
:102BE000039B1B6807EE903AF8EEE77AC6ED007A91
:102BF000EAE770B586B00C4615461E4605A802F0F9
:102C0000C7FC6B462A46214605A802F08EFD28B176
:102C1000039B1B78003B18BF0123337006B070BDC7
:102C2000F0B587B004460E4617461D4605A802F0CB
:102C3000AFFC6B463A46314605A802F076FD08B96E
:102C400007B0F0BD2B46144A03992046FFF7A7FFB3
:102C50002B1D124A03992046FFF7A1FF05F1080337
:102C60000F4A03992046FFF79AFF05F10C030D4A1E
:102C700003992046FFF793FF05F110030A4A0399D1
:102C80002046FFF78CFF05F11403084A03992046FC
:102C9000FFF785FFD4E700BF549301086493010850
:102CA0007493010894930108A8930108B89301084C
:102CB000F0B589B007460C4615461E4607A802F037
:102CC00067FC02AB2A46214607A802F02EFD08B990
:102CD00009B0F0BD542300933346034A05993846A2
:102CE000FFF745FFF4E700BFC493010830B58DB08E
:102CF0000C460BA802F04CFC2E4B1B689D6806ABE3
:102D00002D4A21460BA802F010FD08B90DB030BDC8
:102D100001AB2A4A09990BA802F007FD10BB01ABD1
:102D2000274A09990BA802F000FD40BB01AB254AD8
:102D300009990BA802F0F9FC70BB01AB224A099972
:102D40000BA802F0F2FC0028E0D002212846FFF791
:102D5000E7FA04461023049A811D0BA802F0ADFC8B
:102D6000A062D3E700212846FFF7CEFA04461023DD
:102D7000049A811D0BA802F0A0FCA062CFE70121FC
:102D80002846FFF7C1FA04461023049A811D0BA8B8
:102D900002F093FCA062C9E703212846FFF7C0FABE
:102DA00004461023049A811D0BA802F086FCA06241
:102DB000C3E700BF0C080020D4930108E09301088A
:102DC000EC930108F89301080894010870B588B0E5
:102DD00004460D4607A802F0DBFB02AB4B4A29462E
:102DE00007A802F0A2FC002853D102AB484A2946AA
:102DF00007A802F09AFC002850D102AB454A2946A8
:102E000007A802F092FC00285AD1236803F57773D3
:102E1000414A29462046FFF703FF236803F57E73E6
:102E20003E4A29462046FFF7FBFE236818333C4AFA
:102E300029462046FFF7DDFE23681933394A294623
:102E40002046FFF7D6FE236803F57D73364A2946F0
:102E50002046FFF7CEFE236803F58263334A2946F6
:102E60002046FFF7C6FE236803F26453304A294622
:102E70002046FFF7BEFE236803F214432D4A29467D
:102E80002046FFF715FF29462046FFF72FFF08B021
:102E900070BD0599206814F02BFFA6E7236828264B
:102EA00000961C33244A05992046FFF748FE236804
:102EB0000096BC33214A05992046FFF740FE9CE767
:102EC00023682826009603F5AE731D4A059920460F
:102ED000FFF735FE2368009603F5FE73194A05993E
:102EE0002046FFF72CFE2368009603F52773164A49
:102EF00005992046FFF723FE2368009603F54F73DC
:102F0000124A05992046FFF71AFE7EE71894010839
:102F10002094010868940108C4940108D894010819
:102F2000EC940108FC9401080C9501082095010817
:102F30003495010840950108309401084C9401082B
:102F400078940108889401089C940108B0940108C1
:102F500000B5034601FB01FC0CFB01FE0EFB01F278
:102F6000012099420AD8634507D3734508D3934299
:102F700008D3B3FBF2F30430F3E701305DF804FB50
:102F80000230FBE70330F9E710B5013919E0154BC2
:102F9000A3FB023C4FEA5C13642404FB13234FEAB7
:102FA000430E4FEA5C120EF1010C0F4C14F80CC0EA
:102FB00000F801C001F1FF3C14F8133000F80C30A8
:102FC0000239632AE3D8092A08D953000133064994
:102FD000CB5C437011F81230037010BD30320270B8
:102FE000FBE700BF1F85EB516C95010838B504461F
:102FF0000D460A212846FFF7ABFF014604F10803FE
:1030000023600022204614F084FD2A46616820686F
:10301000FFF7BAFF204638BD10B50446006810B16E
:103020000368DB69984700232360204610BD000039
:1030300070B590B006460D46364B1B685C69236838
:10304000DB682046984708B910B070BD29460AA829
:10305000FFF7CCFF304A00210AA814F071FE0146A8
:1030600002A814F0ACFD0AA814F0FCFC2B4902A83D
:1030700014F098FE2368DD690DF1230309AA029973
:103080002046A847A0B1234B1B68586903689B6A78
:10309000984700220192019003681B6802999847A3
:1030A00018B1099814F00BFC06E001A8FFF7B4FF73
:1030B00002A814F0D7FCC7E7044601980368DB6850
:1030C000099A21469847099B834204D001980368D6
:1030D0009B68984704E021463046FFF777FEF5E706
:1030E00014B1204613F00EFF01A8FFF795FF02A8C8
:1030F00014F0B8FCA8E70AA814F0B4FC13F098FF89
:1031000001A8FFF789FF02A814F0ACFC13F090FFB0
:10311000F9E700BF0C0800204C9501085C950108F8
:103120002DE9F04391B00D461646354B1B685C699E
:103130009F682368DB682046984798B1D7F8A0308D
:1031400083B1DFF8C88023681B6A41462046984750
:103150002368D3F81C900DF1230309AA41462046A9
:10316000C84710B911B0BDE8F083D7F8A0100AA87D
:10317000FFF73CFF234A00210AA814F0E1FD0146B5
:1031800002A814F01CFD0AA814F06CFC1E4902A849
:1031900014F008FE1A4B1B68586903689B6A98472D
:1031A00000220192019003685B680299984730B150
:1031B000019803681B6932462946984706E001A832
:1031C000FFF72AFF02A814F04DFCCBE70198036833
:1031D0009B68984701A8FFF71FFF02A814F042FC64
:1031E000C0E70AA814F03EFC13F022FF01A8FFF785
:1031F00013FF02A814F036FC13F01AFFF9E700BF22
:103200000C0800204C9501085C95010864950108A4
:1032100010B5044614F026FC204610BD70B582B0EF
:1032200004460E46551A01950F2D0DD800942A46D6
:103230003146206814F044FC00220092019B636038
:103240002168CA5402B070BD002201A914F0E8FB45
:103250002060019BA360E9E738B500F10803036033
:1032600069B104460D460846FDF724F84FF0000307
:103270002A1829462046FFF7D1FF204638BD0148CD
:1032800014F0BDFB38960108012800D070474FF6B6
:10329000FF739942FAD110B582B0064C01AA0649D3
:1032A0002046FFF7D9FF054A0549204613F0B0FD37
:1032B00002B010BD040000206C9601080000002040
:1032C0001132000808B54FF6FF710120FFF7DCFF4F
:1032D00008BD00220260426002724272C260026156
:1032E0004261C1F8D002704730B583B00546002373
:1032F00003720F4B1B68DC6823681B6820220421C3
:1033000020469847286023681B6820220421204615
:103310009847686023680195064A00921D69012359
:103320004FF4806204492046A84703B030BD00BF77
:103330000C080020013900087C9601080A291BD8D6
:10334000DFE801F0061C080A0C0E10121416180013
:103350000B4870470B4870470B4870470B48704745
:103360000B4870470B4870470B4870470B48704735
:103370000B4870470B487047002070470A48704759
:103380000000025800080258000C025800100258B1
:103390000014025800180258001C0258002002585D
:1033A0000024025800280258000402582DE9F04178
:1033B00086B08A781409012303FA04F5CB7803F068
:1033C0000107C3F3410402F00F01FFF7B7FFE0B1BB
:1033D000AEB2804674B10023019302930393049329
:1033E00005930196012C0ED00023029301A94046BB
:1033F00004F0D8FF3A463146404605F0D8F80020A0
:1034000006B0BDE8F0810123EFE7FF20F8E70000F8
:1034100070B588B0054689780A09012393409CB2AB
:1034200001F00F01FFF78AFFF0B106461E220021CE
:103430000DF1020014F050FF02238DF8003001233B
:103440008DF801302146304605F0AAF88DF80500C8
:10345000064B1B68D8680368DC6800236A46696805
:10346000A047002008B070BDFF20FBE70C0800203B
:103470005B08002004E032F810C021F810C00130D1
:103480008342F8DC704770B582B006460D468C7AF0
:1034900004F0030404238A1C0DEB0301FFF7E8FF8B
:1034A0000423AA1D69463046FFF7E2FF012C0AD02B
:1034B000022C0FD01CB1FF24204602B070BD019B2E
:1034C000009A1A60F8E7019A136800990B43136099
:1034D0000024F1E7019A1368009923EA01031360BD
:1034E0000024E9E730B58BB0044604238A1C09A9FF
:1034F000FFF7BEFF099B1B6808931E2200210DF1F8
:10350000020014F0E9FE02238DF8003001238DF84B
:103510000130042308AA0DF106012046FFF7A8FF99
:10352000054B1B68D8680368DD6800236A4661683C
:10353000A84700200BB030BD0C08002070B584B047
:103540008C468878C9789CF804209CF8053042EABB
:1035500003229CF8063003F07F0413F0800F15D18E
:103560000123003818BF01200A4D2D686D680A300C
:1035700055F8200005686426029601940CF10704B2
:1035800000946C68A04718B904B070BD0223E8E746
:10359000FF20F9E70C0800202DE9F0418EB0054628
:1035A0008C78CF780E794B7946EA03268B7903F035
:1035B0007F02ADF8362013F0800F33D14FF00108B1
:1035C0001E2200210DF1160014F086FE02238DF854
:1035D000143001238DF81530003C18BF0124154B21
:1035E0001B685B680A3453F8240003686422029263
:1035F0000DF1360201920DF11A0200921C68434649
:1036000032463946A047044678B90A4B1B68D86849
:103610000368DE68002305AA6968B04720460EB03B
:10362000BDE8F0814FF00208CAE7FF248DF815408D
:10363000EBE700BF0C080020084B1B685B6853F8E1
:10364000213033B11B79052B18BF002B03D100208B
:103650007047002070471046704700BF0C080020DC
:1036600030B589B0054601220321FFF7E5FF044686
:10367000022204212846FFF7DFFF0443E4B20422BC
:1036800005212846FFF7D8FF0443E4B208220621AB
:103690002846FFF7D1FF0443E4B21022092128464F
:1036A000FFF7CAFF0443E4B2174B1B68586903686D
:1036B000DB68984730B320231C431E2200210DF104
:1036C000020014F009FE02238DF8003001238DF86A
:1036D00001308DF80640AA228DF8072003228DF8CC
:1036E000082004228DF809208DF80A30064B1B684B
:1036F000D8680368DC6800236A466968A047002030
:1037000009B030BD0023D7E70C08002008B54B787E
:103710001B09082B1BD8DFE803F005080B0E11145A
:103720001A1A1700FFF742FE08BDFFF771FEFBE70C
:10373000FFF7A9FEF8E7FFF7D5FEF5E7FFF7FEFE76
:10374000F2E7FFF729FFEFE7FFF78AFFECE700203A
:10375000EAE738B504460D46C06808B113F0D2FB5D
:10376000D5F802006061D5F8063023611B3014F0F3
:10377000A6F8E060002038BDC068F0B130B54A88D6
:10378000C2EBC20200EB82034C68D1F808E0D1F82A
:103790000CC00D6940F82240C3F804E0C3F808C02B
:1037A000DD604C69D1F818E0D1F81CC01C61C3F889
:1037B00014E0C3F818C0002030BDFF20704700009F
:1037C000F0B58BB00546C068002852D016460023DD
:1037D0001C4602E0C15C0C44013369699942F9D886
:1037E0001E2200210DF10A0014F076FD02238DF84F
:1037F000083001238DF809302B69A34225D11E4CD6
:103800002368D8680368DF68002302AA6968B8479C
:1038100023689868FEF794FD014601A8FFF78DF92B
:10382000E96801A8FFF7D2FA23681869FDF7E2FBFF
:1038300023681869FDF7F6FBAEB9E86808B113F024
:1038400061FB0020E8600BB0F0BDFF248DF80C4058
:10385000094B1B68D8680368DE68002302AA696800
:10386000B0472046EFE76A69E96801A8FFF758FC0E
:10387000E3E7FF20E7E700BF0C08002008B54B781E
:103880001B09033B032B11D8DFE803F00205080CEA
:10389000FFF75FFF08BDFFF76FFFFBE70022FFF7B1
:1038A0008FFFF7E70122FFF78BFFF3E7FF20F1E738
:1038B00070B588B00446114B1B68DD6805E06946A9
:1038C0002046FFF7DBFF002323722B685E684FF072
:1038D000FF336A4621682846B0470028F5D0012307
:1038E00023729DF8013013F00F03E8D0012BEAD1C9
:1038F00069462046FFF70AFF6072E4E70C080020E3
:1039000008B5FFF7D5FF000010B584460A46054B01
:103910001B68D8680368DC680023DCF80010A04747
:1039200010BD00BF0C08002070B588B005460C46DD
:10393000184B1B68D86803689E6800236A4669684C
:10394000B04798B19DF80130012B19D1EC46BCE885
:103950000F0020606160A260E360BCE80F0020619E
:103960006161A261E361002008B070BD0223237091
:103970002B7A13B1FE232371F5E7FD232371F2E7C0
:10398000002323606360A36002232370FC23237160
:10399000E9E700BF0C08002008B5D0F8D002FFF717
:1039A000B3FF08BD08B5D0F8D002FFF7BDFF08BDD2
:1039B000024A0260024A0260704700BF98960108FE
:1039C000909201087047000010B50446044B036054
:1039D000044B0360142113F093FA204610BD00BF7E
:1039E0009896010890920108054A0260054A026013
:1039F000417100228260C26002610271704700BFA3
:103A0000909201089896010830B587B00446C068C6
:103A1000F8B1002305930423ADF812300368642243
:103A200002920DF11202019205AA00921D68012373
:103A30000222A168A84738B9059A084B9A420AD0D1
:103A400005232371002002E005232371002007B025
:103A500030BD0120FBE70120F9E700BF050B0006A0
:103A600030B587B004461A4B93E803000490ADF8D4
:103A70001410090C8DF81610164B1B6861799868A4
:103A8000FEF74EFC002300E00133826A9A420CD913
:103A900000EB43029279062AF6D800EB4301C9797C
:103AA00018326A4402F8081CEEE7E06803686422F2
:103AB00002920722019204AA00925D6801231A462D
:103AC000A168A84708B907B030BD05232371FAE7FC
:103AD000209201080C08002038B504461B4B1B68D7
:103AE0005D6841799868FEF71BFC90F90430B3F1EA
:103AF000FF3F26D00A3355F82330E3600368A36004
:103B000090F90530B3F1FF3F1DD0143355F8230071
:103B1000206118B103681B6801219847E3686BB105
:103B20000A4B1B68D86803685B69142198472046D4
:103B3000FFF76AFF20B12046FFF792FF01232371B0
:103B400038BD0023D9E70020E2E700BF0C080020C1
:103B5000042900D0704738B504460069A8B103684D
:103B60001B68002198470F4D2B68D86803685B6974
:103B70000F219847206903681B68012198472B682B
:103B8000D86803685B690F2198470023237120469A
:103B9000FFF73AFF00B938BD012323712046FFF734
:103BA0005FFFF8E70C08002040687047034A026096
:103BB000034A0260034A0260704700BF149701087D
:103BC000AC9201089092010808B5084B1B685A682E
:103BD00090F92430B3F1FF3F06D00A3352F82300A6
:103BE0000368DB68984708BD0020F9E70C0800204F
:103BF0007047000030B587B00446184B1B685B68FF
:103C000090F92420B2F1FF3F26D002F10A0153F8C7
:103C10002100E368042A00D00222B3FBF2F3ADF8DE
:103C200016306369E26903EB4203026800210291E6
:103C30000DF116050195009315680B460A46A84735
:103C4000E369BDF816201344E3612269934201D36E
:103C50000023E36107B030BD0020DAE70C08002044
:103C600080687047012070470120704710B50446F6
:103C7000FFF79CFF2821204613F042F9204610BD93
:103C800010B50446164B1B689B68D3F8980000EBF0
:103C900040035B01E36000EB40039B012361114A99
:103CA000934218D800EB4000C00113F008FE606199
:103CB00022695200002114F00FFBE068094B984282
:103CC0000BD8400013F0FBFDA061E2685200002118
:103CD00014F002FB10BD13F055FA13F053FA00BFB5
:103CE0000C080020FCFFFF3F10B50446044B40F8D1
:103CF000043B13F0B7FE204613F0B1FA204610BD86
:103D00000097010810B50446FFF7EEFF1C2120467E
:103D100013F0F6F8204610BD094A0260094A026015
:103D2000094A02604BF6803282600022C260026162
:103D300042618261C261026280F82410704700BF54
:103D400090920108AC9201081497010838B5044616
:103D50000B4B1B685D6800219868FEF7E9FA436821
:103D6000A36094F92430B3F1FF3F06D00A3355F82D
:103D7000230003689B68984738BD0020F9E700BF1F
:103D80000C080020C269036A9A4201D3D01A704716
:103D900001690A44D01A704738B504460D46FFF74A
:103DA000F1FFA8420BD36069236A00EB43002B4468
:103DB00023622269934203D30023236200E0A069B7
:103DC00038BD000030B589B00546032926D8DFE8A4
:103DD00001F0020D1118224B1B6802219869FEF7B1
:103DE00045FE2846FFF7B2FF09B030BD03685B68A7
:103DF0009847F9E71A4B1B6801219869FEF736FED0
:103E0000F2E7174B1B6802219869FEF72FFE2A691B
:103E100052000021686914F05FFAE5E70C461C20A7
:103E200013F0CCF8054607AA0E49214401A8FFF774
:103E300013FA0D4B2B6028460C4B40F8043B01A9AC
:103E400013F0BDFE01A813F00DFE094A09492846EA
:103E500013F00AFD284613F0C7F813F0E9F800BF85
:103E60000C080020AC9601087CA00108009701080E
:103E7000E93C0008EC960108034A0260034A02602C
:103E8000034A0260704700BF989701086C970108C9
:103E9000909201087047704730B585B00D46944642
:103EA000094A126852686BB9D06B0368002102910D
:103EB0001FFA8CF4019400955C680B460A46A047F3
:103EC00005B030BD106CF0E70C080020806870472A
:103ED00010B50446FFF7D0FF0C21204613F010F870
:103EE000204610BD38B50C46054B1B685B681D6944
:103EF000D86800F08CF92146284600F088F938BDD2
:103F00000C08002038B50C46054B1B685B681D6922
:103F1000D86800F0B1F92146284600F0ADF938BD67
:103F20000C080020044A0260044A0260044A02604D
:103F300000228260704700BF909201086C970108D0
:103F4000989701082DE9F84305461B4B1B685C68F0
:103F500000219868FEF7ECF94368AB60D4F83C9018
:103F6000206CE6682569D4F81C806769A469036839
:103F70009B689847D9F800309B6848469847D8F81E
:103F800000309B680221404698473B689B680221AD
:103F90003846984723689B68022120469847336833
:103FA0009B680421304698472B689B68042128466B
:103FB0009847BDE8F88300BF0C0800202DE9F843BE
:103FC000174B1B685B68DC6B1D6CDF681E69D3F8E0
:103FD0001C805869D3F8189003689B6803219847A0
:103FE000D9F800309B68032148469847D8F800303C
:103FF0009B680321404698473B689B6803213846ED
:10400000984733689B680321304698472B68DB68E4
:10401000284698472368DB6820469847BDE8F88320
:104020000C08002070B50D4B1B685B6858699E69D1
:10403000DD681C6903689B680421984733689B68A6
:104040000421304698472B689B68042128469847EE
:1040500023689B6804212046984770BD0C08002007
:1040600030B589B0042912D8DFE801F00603080B47
:104070000E0003685B68984709B030BDFFF762FF28
:10408000FAE7FFF79BFFF7E7FFF7CCFFF4E70C46F3
:104090001C2012F093FF054607AA0D49214401A8F0
:1040A000FFF7DAF80B4B2B6028460B4B40F8043B2C
:1040B00001A913F084FD01A813F0D4FC074A0849B4
:1040C000284613F0D1FB284612F08EFF12F0B0FF05
:1040D000409701087CA0010800970108E93C00080E
:1040E000EC960108024A0260024A0260704700BF73
:1040F000C4970108909201087047000010B504466B
:10410000044B0360044B0360182112F0F9FE2046B3
:1041100010BD00BFC497010890920108064A0260D2
:10412000064A0260417100228260C2600261FF2182
:1041300041610271704700BF90920108C497010865
:1041400030B587B00446002305930423ADF8123040
:10415000C0680368642202920DF11202019205AA5E
:1041600000921D6801230D22A168A84738B9059B5C
:1041700013F5304F08D005232371002002E00523FA
:104180002371002007B030BD0120FBE7F0B585B0FA
:104190000646124B1B6841799868FEF7B5F805464C
:1041A000002400E00134AB6AA34214D905EB4403B8
:1041B0009A79102AF6D8F0681946073107686423FF
:1041C00002930123019300917F68B168B8470028EA
:1041D000E8D00523337105B0F0BD00BF0C08002006
:1041E00030B587B0044681230593C0680268642314
:1041F00002930123019305A9009155680022A1684B
:10420000A84708B907B030BD05232371FAE770B598
:1042100086B004460D46002305930122ADF8122016
:10422000C0680368642102910DF11201019105A992
:1042300000911E681346A168B04798B9ADB1059BBF
:1042400043F001030593E0680368642202920122AF
:10425000019205A900915D681346A168A84740B97D
:1042600006B070BD05232371FAE7059B23F0010317
:10427000E8E705232371F3E730B587B004468DF8EE
:1042800014108DF815104161C06803686422029211
:104290000222019205AA00925D6801230322A1680F
:1042A000A84708B907B030BD05232371FAE710B558
:1042B00004460121FFF7ABFF217D2046FFF7DCFF1D
:1042C0002046FFF78DFF2046FFF760FF00212046C4
:1042D000FFF79DFF10BD000038B50446194B1B6861
:1042E0005D6841799868FEF70FF890F90430B3F1F2
:1042F000FF3F23D00A3355F82330E3600368A360FF
:1043000090F90530B3F1FF3F1AD0143355F823006C
:10431000206103681B68012198470A4B1B68D86815
:1043200003685B69142198472046FFF709FF08B12D
:10433000012323712046FFF7BAFF38BD0023DCE7D5
:104340000020E5E70C080020042900D0704738B5AC
:104350000446006903681B68002198470F4D2B68CD
:10436000D86803685B690A219847206903681B685D
:10437000012198472B68D86803685B691421984726
:10438000002323712046FFF7DBFE00B938BD01236F
:1043900023712046FFF78BFFF8E700BF0C080020D1
:1043A000024A0260024A0260704700BFE0970108BB
:1043B000909201087047000010B50446044B03605A
:1043C000044B0360102112F09BFD204610BD00BF7E
:1043D000E097010890920108044A0260044A0260D2
:1043E00000228260C2600271704700BF9092010893
:1043F000E097010830B587B00446002305930122F9
:10440000ADF81220C0680368642102910DF1120119
:10441000019105A900911D681346A168A84738B904
:10442000059B042B18BF062B06D1012007B030BD19
:10443000052323710020F9E7052323710020F5E708
:1044400030B587B0044601230593C0680268642133
:104450000291019305A9009155680322A168A8471C
:10446000002840D101230593E0680268642102918D
:10447000019305A9009155680522A168A847002865
:1044800035D110230593E068026864230293012369
:10449000019305A9009155681622A168A84748BB59
:1044A0004FF400030593E06803686422029204223B
:1044B000019205AA00925D6801238622A168A8479F
:1044C000D8B900230593E0680268642302930123AE
:1044D000019305A9009155680322A168A84720B15E
:1044E0000523237101E00523237107B030BD0523A7
:1044F0002371FAE705232371F7E705232371F4E716
:1045000038B504460E4B1B685D689868FDF70DFFD3
:1045100090F90430B3F1FF3F0AD00A3355F8233045
:10452000E3600368A3602046FFF764FF10B938BD5D
:104530000023F5E72046FFF783FF01232371F6E709
:104540000C080020042900D0704710B50446002351
:104550000371FFF74FFF00B910BD012323712046FF
:10456000FFF76EFFF8E70079704740797047000069
:10457000024A0260024A0260704700BF8C9801083C
:1045800028980108024A0260024A0260704700BF90
:10459000649801080098010808B54FF40E720021D4
:1045A000083013F099FE08BD08B508460CF0BEFFB0
:1045B000B0FA80F0400908BD037903B9704710B51F
:1045C0000446002200F5107110460CF05DFA00233D
:1045D000237110BD70B50679D6B904460025042DA7
:1045E00012DC012204F5107104F108000CF04CFA01
:1045F00048B10D4B1B68D86803685B694FF4FA71CA
:1046000098470135EBE7012626B101232371637139
:10461000304670BD044B1B6800219869FEF75AFABA
:1046200003236371F4E700BF0C08002010B54FF4BA
:104630000B7013F033F904464FF40B72002113F0A2
:104640004BFE034B2360034B2360204610BD00BF8D
:10465000009801086498010810B50446044B0360F3
:10466000044B03604FF40B7112F04AFC204610BD5E
:10467000649801080098010810B50446044B0360D3
:10468000044B03604FF4117112F03AFC204610BD48
:104690008C9801082898010838B503793BB30C467B
:1046A00031B1002120460CF0D1FEC8B9204638BDFA
:1046B0004FF4A47013F0F2F805460F490CF066FEB3
:1046C00008B92C46F2E70D4B1B6800219869FEF7EC
:1046D00001FA75B14FF4A471284612F011FCE5E718
:1046E0004FF4A471204612F00BFC0024DEE70024F6
:1046F000DCE72C46DAE700BFF49701080C0800203D
:1047000010B50C46C1B104F1300120460CF09EFEFC
:1047100050B994F846308BB194F8383013F0100F3C
:10472000F1D104F1460006E0054B1B6800219869B1
:10473000FEF7D0F9002010BD0846FCE70020FAE79C
:104740000C080020007900B97047F8B50C461646F1
:104750001F464FF48C7013F0A1F805460146204621
:104760000CF0B0FE044618B92B6833602B7A3B700E
:104770004FF48C71284612F0C3FBB4FA84F0400960
:10478000F8BD51B110B50C4608460CF04EFE4FF482
:10479000A471204612F0B4FB10BD704738B5144622
:1047A000012204300CF0B2F9054600280CBF0024A9
:1047B00004F001041CB9B5FA85F0400938BD034B7B
:1047C0001B6800219869FEF785F9F4E70C080020C2
:1047D00038B514460A2204300CF098F90546002832
:1047E0000CBF002404F001041CB9B5FA85F040099F
:1047F00038BD034B1B6800219869FEF76BF9F4E79D
:104800000C08002008B504300CF0CDFC08BD0000F9
:1048100000B583B001AB04300CF082FA18B90198EE
:1048200003B05DF804FB044B1B6800219869FEF798
:1048300051F900230193F2E70C08002000B583B082
:1048400001AB04300CF052FB18B9019803B05DF8CD
:1048500004FB044B1B6800219869FEF73BF9002319
:104860000193F2E70C08002008B504300CF0B2FC0C
:10487000B0FA80F0400908BD054A0260054A0260AE
:104880000022027142713022C0F84022704700BFFE
:10489000289801088C980108704743681889704768
:1048A00008B54368CAB29988186803F080FE08BD4D
:1048B00008B543689988186803F072FE08BD0000C7
:1048C00010B5044603685B68984748B10123237715
:1048D00000232246194603480DF0B8F8A06110BD28
:1048E0000323F4E7ED4A00080369E3B110B5044679
:1048F00003685B689847237F012B02D0032B09D004
:1049000010BD0028FAD104232377C821A0690DF037
:10491000F5F8F5E70028F3D002232377C821A06932
:104920000DF0ECF8ECE7704710B50446044B40F886
:10493000083BFCF784F9034B2360204610BD00BF01
:10494000F0980108C898010810B50446064B40F8D5
:10495000083BFCF774F9054B23601821204612F040
:10496000CFFA204610BD00BFF0980108C898010892
:1049700010B50446054B0360054B40F8083BFCF7B7
:104980005EF9044B2360204610BD00BF1899010852
:10499000F0980108C898010810B50446074B036059
:1049A000074B40F8083BFCF74AF9064B23602021EF
:1049B000204612F0A5FA204610BD00BF1899010844
:1049C000F0980108C8980108F8B50F4600F15004A6
:1049D00000F1AC0600E00434B44209D02568002D93
:1049E000F9D02B689B6828469847B842F3D100E07D
:1049F00000252846F8BD0000054A0260054A02600D
:104A0000416000228260C26002614261704700BF63
:104A1000C8980108F098010808B50146044B1B68C6
:104A20005868FFF7D1FF10B10268D268904708BDFF
:104A30000C08002008B5FFF7EFFF08BD10B50446CD
:104A4000FFF7DAFF034B23600023A361237720469F
:104A500010BD00BF1899010800B583B001918DF811
:104A6000032083683BB1C3680DF1030201A9984795
:104A700003B05DF804FB12F0CCFF03695BB110B525
:104A8000044603685B6898470146002204F1080069
:104A9000FFF7E2FF10BD704770B50446037F042B9B
:104AA00018BF022B0BD103685B68984728B101231C
:104AB000237700264FF47A7503E00323F8E70126F5
:104AC000FA25237F032B00D070BD23694BB12368E7
:104AD0005B68204698470146324604F10800FFF71C
:104AE000BBFF2946A0690DF009F8EDE708B5FFF70F
:104AF000D3FF08BD38B504460023036043608360DC
:104B0000C3608B6833B10D4602229847EB68E360BF
:104B1000AB68A360204638BD2046FCF790F812F041
:104B200087FA82B002460B46EC46D0E900018CE8D9
:104B3000030093E8030082E803009CE8030083E895
:104B4000030002B0704738B505460C46FFF7E9FF91
:104B5000AB68A268AA60A360EB68E268EA60E36001
:104B600038BD10B584B004466846FFF7C3FF214640
:104B70006846FFF7E8FF6846FCF761F8204604B096
:104B800010BD08B50830FFF7ECFF08BD00207047E6
:104B900000207047024A0260024A0260704700BF6C
:104BA000649901084099010810B50446044B03605C
:104BB000044B0360602112F0A3F9204610BD00BF32
:104BC000649901084099010810B50446044B1B681C
:104BD0002021186800F034FE60656368DC6410BD55
:104BE0000C0800202DE9F04182B0044688461646A4
:104BF0001D460A9F3946006D0EF020F9012807D0A6
:104C000027B90125284602B0BDE8F0810325F9E760
:104C10000EF04CFFE065636D099A128801920093D3
:104C20002B4632461FFA88F1606803F05DFF0546A7
:104C3000B0FA80F04009002F08BF002060B9099B3E
:104C40001A88616D089813F0CFFB00231A461946A5
:104C5000206D0DF0A6FED5E7394601200FF02EF8A5
:104C6000EDE72DE9F04383B00446884616461D461D
:104C7000BDF82C900C9F3946006D0EF0DFF801282E
:104C800007D027B90125284603B0BDE8F0830325E6
:104C9000F9E70EF00BFFE0654A460A99606D13F0E4
:104CA000A3FB636DCDF8049000932B4632461FFAA8
:104CB00088F1606803F0A6FE0546B0FA80F040096E
:104CC000002F08BF002030B900231A461946206D76
:104CD0000DF067FED7E7394601200EF0EFFFF3E74E
:104CE00010B504460A4B03600A4B03604160002381
:104CF000436580F8582000F1080101200DF021FFE4
:104D000003E0034B236012F093F92065204610BDA9
:104D10004099010864990108C36D5BB130B583B057
:104D2000044600250195C06D01A90FF003F8E56563
:104D300003B030BD704708B5C06CFFF7EDFF08BD8C
:104D400008B5C06CFFF7E8FF08BD00207047000001
:104D5000024A0260024A0260704700BF8899010857
:104D60004099010810B50446044B0360044B0360EE
:104D7000282112F0C5F8204610BD00BF889901080F
:104D80004099010810B50446836959681B6803FB04
:104D900001F101F2E731124BA3FB013189098B00CC
:104DA0000362104B1B68C900186800F049FDE06100
:104DB000226A5200002113F08FFAE369226A0BB1D4
:104DC0006360A2600023E3602361A3699B68636161
:104DD000C3F89840A369587B01F074F810BD00BF78
:104DE000D34D62100C08002008B543691A68136897
:104DF00043F480331360028CC169406907F0F8FE08
:104E000000B908BD0120FCE708B5406907F012FEB3
:104E100000B908BD0120FCE710B4094C0460094C3E
:104E20000460002444608460C46004614161826164
:104E3000C461046280F824405DF8044B704700BFF1
:104E4000409901088899010808B549B183685B0851
:104E50000361012906D1002380F82430C36007E0F4
:104E600000230361012380F82430036A5B08C360D8
:104E7000024B1B681869FCF7ADF908BD0C0800204F
:104E800008B50121D0F89800FFF7DEFF08BD08B58E
:104E90000021D0F89800FFF7D7FF08BD70B4034693
:104EA0008468C068844207D39868DC68001B82422B
:104EB00000D81046002206E09868DC68001B5C6899
:104EC0002044F4E7013290420ED91D68DC68661C6C
:104ED000DE6035F8144021F81240DD685C68A542B8
:104EE000F0D30024DC60EDE770BC704708B5039B8D
:104EF0001A8802990430FFF7D1FF002008BD002076
:104F000070470000024A0260024A0260704700BF18
:104F1000AC9901084099010810B50446044B0360A0
:104F2000044B0360282111F0EBFF204610BD00BFA9
:104F3000AC9901084099010810B504468369596885
:104F40001B6803FB01F101F2E731154BA3FB0131B3
:104F500089098B000362134B1B68C900186800F0B5
:104F60006FFCE061226A5200002113F0B5F9E36999
:104F7000226A0BB16360A2600023E3602361A3692E
:104F80009B686361C3F89840A3691A7B1AB9587B80
:104F900000F0A8FF10BD587B00F0B4FFFAE700BF97
:104FA000D34D62100C08002008B543691A681368D5
:104FB00043F480331360028CC169406907F096FDA9
:104FC00000B908BD0120FCE708B5406907F032FDD3
:104FD00000B908BD0120FCE710B4094C0460094C7D
:104FE0000460002444608460C460046141618261A3
:104FF000C461046280F824405DF8044B704700BF30
:1050000040990108AC99010838B504460D468369FA
:105010001B7B2BB1012D09D0012384F8243038BD2E
:10502000044B1B681869FCF7C3F8F3E7002384F806
:105030002430F4E70C08002008B50121D0F89800CE
:10504000FFF7E2FF08BD08B50021D0F89800FFF790
:10505000DBFF08BD0B46A1B910B481684268540853
:10506000B1EB520F03D284605DF8044B7047002B04
:10507000FAD083684268B3EB520FF5D30023836004
:10508000F2E739B183684268B3EB520F02D30023D1
:105090008360704770472DE9F04104468846164604
:1050A0000027D6B16568A368ED1AAE4200D8354630
:1050B0002368A0686A0008EB470103EB400013F087
:1050C00093F9761B2F44A3682B44A360A2686368FE
:1050D0009A42E6D30023A360E3E7BDE8F08110B570
:1050E000041D90F824102046FFF7B4FFBDF80C20F3
:1050F00002992046FFF7CFFF002010BD0020704727
:105100000020704700207047024A0260024A026095
:10511000704700BFD09901084099010810B50446B6
:10512000044B0360044B0360242111F0E9FE204688
:1051300010BD00BFD09901084099010870B505461F
:1051400043695C681B6803FB04F404F2E7340C4B0E
:10515000A3FB0434A4096600A400204612F0AFFBB0
:10516000A8612246002113F0B7F8AB690BB16B6060
:10517000AE600023EB602B61EB69C3F8CC5270BDCD
:10518000D34D621010B4084C0460084C0460002435
:1051900044608460C460046142618461C1610462EE
:1051A0005DF8044B704700BF40990108D099010891
:1051B00008B5034B1B681869FCF7E5F808BD00BF8C
:1051C0000C08002008B5034B1B6801221869FBF787
:1051D000B9FE08BD0C08002008B5034B1B6801226E
:1051E0001869FBF7CBFE08BD0C08002008B50129A3
:1051F00014BF00210121D0F8CC02FFF7D9FF08BD70
:1052000008B5012914BF00210121D0F8CC02FFF715
:10521000E3FF08BD08B5D0F8CC02FFF7D3FF08BD07
:1052200070B403468468C068844207D39868DC6819
:10523000001B824200D81046002206E09868DC6815
:10524000001B5C682044F4E7013290420ED91D68CF
:10525000DC68661CDE6035F9144021F81240DD6818
:105260005C68A542F0D30024DC60EDE770BC7047B9
:1052700038B50446059D2A8804990430FFF7D0FF0D
:105280002880236A01332362002038BD2DE9F041D4
:105290000446884616460027D6B16568A368ED1A0D
:1052A000AE4200D835462368A0686A0008EB470183
:1052B00003EB400013F098F8761B2F44A3682B44AF
:1052C000A360A26863689A42E6D30023A360E3E781
:1052D000BDE8F08108B552080430FFF7D7FF034B53
:1052E0001B681869FBF776FF08BD00BF0C0800209B
:1052F00008B5D0F8CC02FFF7EDFF08BD024A026006
:10530000024A0260704700BF249A0108F49901081C
:1053100008B50846114600220CF0C6FD08BD08B5C8
:10532000084611461A460DF0DAFC08BD00B583B0F8
:10533000084611460023019301AA0DF052FE019B7D
:105340004BB14FF0E0234FF08052C3F8042DBFF370
:105350004F8FBFF36F8F012003B05DF804FB000097
:1053600010B50446044B0360044B0360042111F0A4
:10537000C7FD204610BD00BF249A0108F49901081A
:1053800008B508460CF044FB08BD08B508461146B0
:1053900000220DF09EFA08BD08B501200EF08EFC2B
:1053A00008BDB1B100B583B008460023019301A93F
:1053B0000EF0C0FC019B4BB14FF0E0234FF0805248
:1053C000C3F8042DBFF34F8FBFF36F8F03B05DF8A9
:1053D00004FB70472DE9F04104460F4616461D4672
:1053E00000F1040824220021404612F075FF676096
:1053F000A661E5614246079906980CF09DFA206087
:105400002046BDE8F081F0B583B00D461646022B6C
:1054100014D0032B14D0012B0ED00827282012F013
:105420003DFA0446099B0193089B00933B46324694
:105430002946FFF7CFFF0BE01827EFE72827EDE716
:105440003027EBE72821204611F05AFD11F0F0FD3E
:10545000204603B0F0BD000008B5042012F01EFA8B
:1054600000220260024A0260024A026008BD00BFD8
:10547000F4990108249A010870B50D46164660207B
:1054800012F00CFA044632462946FFF729FC05E0E3
:105490006021204611F034FD11F0CAFD23681B691C
:1054A00020469847204670BD38B50D46182012F0AA
:1054B000F5F904462946FFF79FFA05E01821204632
:1054C00011F01EFD11F0B4FD23681B6920469847BA
:1054D000204638BD38B50D46202012F0DFF90446CD
:1054E0002946FFF7ABFA05E02021204611F008FD20
:1054F00011F09EFD23681B6920469847204638BD61
:1055000070B50D461646282012F0C8F904463246FA
:105510002946FFF761FD05E02821204611F0F0FC47
:1055200011F086FD23681B6920469847204670BD10
:1055300070B50D461646282012F0B0F904463246E2
:105540002946FFF769FC05E02821204611F0D8FC28
:1055500011F06EFD23681B6920469847204670BDF8
:1055600070B50D461646242012F098F904463246CE
:105570002946FFF707FE05E02421204611F0C0FC74
:1055800011F056FD23681B6920469847204670BDE0
:10559000704770B514460D4615F8016B167015610D
:1055A0002846FAF787FE431CEA18811CA160013ED9
:1055B0000F2E0BD8DFE806F008101C1C0A0A0A1987
:1055C0000A0A0A0A0A0A0A1608236360A3686168BD
:1055D0000B44A360E26070BDEB5804326360063098
:1055E000A060F3E704236360F0E701236360EDE765
:1055F000EB586360EAE72DE9F04786B080468A46BB
:1056000016461F46D2F80090042400250DE00499A8
:105610000A684B680AEB850143EC172BF7EEC77B52
:10562000C1ED007A039B1C440135631C4B4519D224
:10563000BD4217D201AA31194046FFF7AAFF9DF8D3
:1056400004C0BCF1010FE2D0BCF1100FEAD1049B01
:105650001B6807EE903A0AEB8503F8EEE77AC3ED94
:10566000007ADFE7284606B0BDE8F0872DE9F0476D
:1056700086B080468A4616461F46D2F8009004241B
:10568000002502E0039B1C44013504F1010CCC45CC
:105690000FD2BD420DD201AA31194046FFF779FF62
:1056A0009DF80430102BEDD1049B1B684AF825307F
:1056B000E8E7284606B0BDE8F0872DE9F04F87B04F
:1056C00082460E4617469946D2F800B004250024BB
:1056D00009E000221146049812F0C2FD88F801008A
:1056E000039B1D4401346B1C5B451AD24C4518D2F8
:1056F00001AA79195046FFF74CFF00221146059880
:1057000012F0AEFD06EB440806F814009DF80430D4
:10571000022BDED0102BE3D1049B1B6888F80130EC
:10572000DEE7204607B0BDE8F08F2DE9F04387B0F3
:1057300007460D4616469946D1F800800023C9F861
:105740000C30042401E0039B1C4404F1010CC4450B
:105750001CD201AA29193846FFF71BFF31460598CC
:10576000FAF79EFD0028EED19DF8043089F800304C
:10577000049BC9F80C30029BC9F80430039BC9F89C
:105780000830059BC9F81030012000E0002007B068
:10579000BDE8F08300B583B007EE900A01A9F0EEF2
:1057A000E77A17EE900A12F05BFB07EE900A9FED86
:1057B0000F7A27EE877ADFED0E6A37EE667A27EEEC
:1057C000877ADFED0C6A37EE267A67EE877A9FEDEF
:1057D0000A7A77EEC77A9DED017AB8EEC77A77EE4E
:1057E000277A17EE900A03B05DF804FBA8A19D3F4D
:1057F000F5CA8340FBB3C040E092484008B507EECD
:10580000100ADFED047A67EE277A17EE900A12F09D
:1058100055FB08BD8E5D134008B5FFF7BBFF07EED3
:10582000100ADFED037A67EE277A17EE900A08BDBB
:105830009B209A3E01604260002282607047000017
:1058400030B589B0034601F11F0424F01F048168BC
:105850000A194068824204D8186808449A6009B05E
:1058600030BD1C2011F0AAFB054607AA0D492144B2
:1058700001A8FDF7F1FC0C4B2B6028460B4B40F8C0
:10588000043B01A912F09BF901A812F0EBF8084AB9
:105890000849284611F0E8FF284611F0A5FB11F051
:1058A000C7FB00BF4C9A01087CA0010800970108C3
:1058B000E93C0008EC96010808B50948094B03606B
:1058C00000230371437143618023836101230362D9
:1058D00001F046F900B908BDFAF7F0FFFBE700BF99
:1058E00010080020004C025802680A4B9A4200D06F
:1058F000704782B0A3F50063D3F8E02042F40022A1
:10590000C3F8E020D3F8E03003F400230193019BB7
:1059100002B07047004C025800B583B0234BD3F857
:10592000D82042F00102C3F8D820D3F8D83003F0D1
:1059300001030193019B002205210B2001F0A0F837
:105940000B2001F0ADF8002205210C2001F098F8A1
:105950000C2001F0A5F8002205210D2001F090F89F
:105960000D2001F09DF8002205210E2001F088F89D
:105970000E2001F095F8002205210F2001F080F89B
:105980000F2001F08DF800220521102001F078F899
:10599000102001F085F800220521112001F070F897
:1059A000112001F07DF803B05DF804FB00440258BB
:1059B00008B50146034A04480BF0BEFF034B1860CC
:1059C00008BD00BF949A0108292B00083408002064
:1059D000704700002DE9F0478CB00024079408942C
:1059E00009940A940B948D4BD3F8E02042F01002F6
:1059F000C3F8E020D3F8E02002F010020192019AEF
:105A0000D3F8E02042F00402C3F8E020D3F8E0200D
:105A100002F004020292029AD3F8E02042F08002DF
:105A2000C3F8E020D3F8E02002F080020392039A4A
:105A3000D3F8E02042F00102C3F8E020D3F8E020E0
:105A400002F001020492049AD3F8E02042F002022C
:105A5000C3F8E020D3F8E02002F002020592059A94
:105A6000D3F8E02042F00802C3F8E020D3F8E03099
:105A700003F008030693069B694E01223C21304641
:105A800002F095FD674F22463021384602F08FFD27
:105A9000DFF89CA122460321504602F088FD3C23FA
:105AA00007930125089509940A9407A9304602F046
:105AB00079FC422307930894099407A9304602F021
:105AC00071FC4FF4BE5307930894099407A9384614
:105AD00002F068FC4FF4005307930895099407A956
