:020000040800F2
:100000000000022071590108F9620008FB62000833
:100010000163000803630008096300080000000092
:1000200000000000000000000000000001210108A5
:100030000B63000800000000A1210108052201084F
:10004000C1590108C1590108C1590108C159010824
:10005000C1590108C1590108C1590108C159010814
:10006000C1590108C1590108C15901080D630008AF
:100070001D6300082D6300083D6300084D63000800
:100080005D6300086D630008C1590108C15901088A
:10009000C1590108C1590108C15901087D6300080F
:1000A000C159010899630008C1590108C1590108E3
:1000B000C1590108C1590108C1590108C1590108B4
:1000C000C1590108A9630008C1590108C1590108B3
:1000D000C1590108C1590108B9630008C159010893
:1000E000BB630008C159010800000000C1590108A4
:1000F000C1590108C1590108C1590108C159010874
:10010000C1590108C1590108C1590108C159010863
:10011000C1590108CF630008C1590108C15901083C
:10012000C1590108C1590108C1590108C159010843
:10013000C1590108C1590108C1590108C159010833
:1001400000000000000000000000000000000000AF
:10015000C1590108C1590108C1590108C159010813
:10016000C1590108C1590108C1590108C159010803
:10017000C1590108C1590108C1590108C1590108F3
:10018000C1590108D1630008C1590108C1590108CA
:10019000C1590108C1590108C1590108C1590108D3
:1001A000C1590108C1590108C1590108C1590108C3
:1001B000C1590108C1590108C1590108D563000896
:1001C000C1590108C1590108C1590108C1590108A3
:1001D000C1590108F5630008C1590108C159010856
:1001E000C1590108C1590108C1590108C159010883
:1001F000C1590108C1590108C1590108C159010873
:10020000C1590108C1590108C1590108C159010862
:10021000C1590108C1590108C1590108C159010852
:10022000C1590108C1590108C15901080000000065
:10023000E5630008C159010800000000C159010828
:10024000C1590108C1590108C1590108C159010822
:10025000C1590108C1590108C1590108C159010812
:10026000C1590108C1590108C1590108C159010802
:10027000C1590108C1590108C15901080000000015
:10028000C1590108C1590108C15901080000000005
:0802900000000000C159010843
:1002A00010F8012B11F8013B012A28BF9A42F7D020
:1002B000D01A7047034613F8012B002AFBD1181AF5
:1002C0000138704700F1340191E838009C46A64699
:1002D0004CF8045D90E8FF0FE54600BD90EC210B63
:1002E000704700BF80EC210B704700BF90EC200BE3
:1002F000704700BF80EC200B704700BFD0EC200B94
:10030000704700BFC0EC200B704700BFF0EC02014B
:10031000F0EC0211F0EC0221F0EC0231F0EC0241C1
:10032000F0EC0251F0EC0261F0EC0271F0EC0281B1
:10033000F0EC0291F0EC02A1F0EC02B1F0EC02C1A1
:10034000F0EC02D1F0EC02E1F0EC02F1704700BFFA
:10035000E0EC0201E0EC0211E0EC0221E0EC023101
:10036000E0EC0241E0EC0251E0EC0261E0EC0271F1
:10037000E0EC0281E0EC0291E0EC02A1E0EC02B1E1
:10038000E0EC02C1E0EC02D1E0EC02E1E0EC02F1D1
:10039000704700BFB0FC0181B0FC0191B0FC01A12D
:1003A000B0FC01B1704700BFA0FC0181A0FC01912D
:1003B000A0FC01A1A0FC01B1704700BFEC4600B554
:1003C0002DE900502DE9FF1F4FF000032DE90C002F
:1003D00001A918F095F9DDF840E012B0704700BFB0
:1003E000EC4600B52DE900502DE9FF1F4FF000034A
:1003F0002DE90C0001A918F0BFF9DDF840E012B0BA
:10040000704700BFEC4600B52DE900502DE9FF1FF5
:100410004FF000032DE90C0001A918F0CDF9DDF82B
:1004200040E012B0704700BFEC4600B52DE9005027
:100430002DE9FF1F4FF000032DE90C0001AB18F070
:1004400093F9DDF840E012B0704700BFEC4600B50C
:100450002DE900502DE9FF1F4FF000032DE90C009E
:1004600001AA18F005FADDF840E012B0704700BFAD
:100470000348044B834202D0034B03B11847704733
:10048000F0070020F0070020000000000548064BA0
:100490001B1AD90F01EBA301491002D0034B03B182
:1004A00018477047F0070020F00700200000000008
:1004B00010B5064C237843B9FFF7DAFF044B13B1AC
:1004C0000448AFF300800123237010BDF007002023
:1004D00000000000C891010808B5054B1BB1054993
:1004E0000548AFF30080BDE80840FFF7CFBF00BF6D
:1004F00000000000F4070020C8910108BFF34F8FEF
:10050000BFF36F8F084B0022C3F85022BFF34F8F09
:10051000BFF36F8F5A6942F400325A61BFF34F8FB5
:10052000BFF36F8F704700BF00ED00E010B4154BB4
:100530000022C3F88420BFF34F8FD3F88040C4F368
:100540004E3000E01846C4F3C90243F6E07303EAF4
:10055000401343EA82730B49C1F860321346013AF3
:10056000002BF2D1431E0028ECD1BFF34F8F4B6913
:1005700043F480334B61BFF34F8FBFF36F8F5DF850
:10058000044B704700ED00E030B585B006F07CFA12
:1005900001248DF80040204B019310238DF8083082
:1005A00003258DF80B5000238DF80F308DF80E4089
:1005B0008DF80D408DF801308DF80A308DF8093036
:1005C0008DF80C30684606F07DFA144B01930D232C
:1005D0008DF808308DF80F408DF80140684606F020
:1005E00071FA0F4B019311248DF8084002238DF806
:1005F0000130684606F066FA4FF0405301938DF8DB
:1006000008408DF80150684606F05CFA042006F0B8
:1006100049FA05B030BD00BF0000002400000224EC
:10062000004002242DE9F04786B00C2017F016F99F
:1006300082464FF40032354905F0DEF8C42017F049
:100640000DF9814601F040FFA42017F007F9054697
:1006500001F084FC302017F001F9804600F0DEFA4A
:100660004FF4117017F0FAF8074604F0E7F8142079
:1006700017F0F4F8064602F07DF91C2017F0EEF8AA
:10068000044605A804F0CAFE03960297CDF804803C
:1006900000902B464A465146204601F04DFC2AE088
:1006A0000C21504616F00CFC16F0A2FCC421484662
:1006B00016F006FC16F09CFCA421284616F000FC5F
:1006C00016F096FC3021404616F0FAFB16F090FC2E
:1006D0004FF41171384616F0F3FB16F089FC142123
:1006E000304616F0EDFB16F083FC1C21204616F078
:1006F000E7FB16F07DFC204601F02AFC284601F0BD
:100700003DFC204606B0BDE8F08700BF0000002495
:100710002DE9F043CDB04C22002139A817F0BCFDE3
:100720002022002131A817F0B7FDBC22002102A829
:1007300017F0B2FD022009F005FF00230193364BAC
:100740009A6942F440429A619B6903F440430193E1
:10075000324BDA6A42F00102DA62DB6A03F001032B
:100760000193019B2C4B9B6913F4005FFAD02C4A38
:10077000936A23F0030343F0020393622123399326
:100780004FF480333A9301263F96022542954395D4
:1007900044964E23459346954FF00408CDF81C81AE
:1007A00048950C23499300244A944FF48069CDF86E
:1007B0002C9139A809F0F8FE3F233193032332939B
:1007C000339408273497402335933693CDF8DC9043
:1007D0003893414631A80AF0DBFA124B02930B968C
:1007E00010230C930D970E950F954FF440631093C3
:1007F000119412941594802318931F9422944FF40B
:100800004013239327940DEB07000AF075FD09F0C0
:10081000C3FE4DB0BDE8F083004802580004005804
:10082000004402581A02050008B5FFF767FEFFF7FB
:100830007DFE06F057F8FFF7A7FEFFF769FF05F00A
:10084000ABF805F04BF805F019F805F03FFE05F0A0
:1008500057FC0EF0E1FC05F0E1F905F00FFA14F099
:1008600095FE10F0E1FFFFF7DDFE05F083F80FE0E5
:10087000012901D016F0BCFB16F084FC03689B68CC
:10088000984702460649042015F06EF816F0A3FCBE
:1008900010F0FAFFFEE716F09EFC16F0A9FB00BF71
:1008A000E891010808B50268034B9A4200D008BDE0
:1008B00006F046F8FBE700BF00000140704770B546
:1008C00004460E46154640F8042B134601F1BC02BF
:1008D0001C3100F044FD2B4606F54F7206F5FE7103
:1008E00004F5947000F03BFD2B4606F5277206F5E3
:1008F000AE7104F5137000F032FD2A4606F2144181
:1009000004F55C7000F05DFF2A4606F5777104F58A
:10091000617000F093FD2A4606F57E7104F56B7058
:1009200000F08CFD0023C4F8D433C4F8D833C4F8E5
:10093000DC33C4F8E033C4F8E4636FF060439D42F5
:1009400016D2AD00284616F09AFFC4F8D403284604
:1009500016F095FFC4F8D803284616F090FFC4F8A7
:10096000DC03284616F08BFFC4F8E003204670BD78
:1009700016F0E8FB10B50446043000F0F6FC04F570
:10098000947000F0F2FC04F5137000F0EEFC04F536
:10099000617000F075FD04F56B7000F071FD04F5F9
:1009A0005C7000F025FF10BD10B54FF0000C11E099
:1009B000B1F9004007EE904AF8EEE77A02EB8C0EB0
:1009C0009FED067A67EE877ACEED007A01EB430160
:1009D0000CF1010C04686445EAD810BD0000003831
:1009E00010B54FF0000C12E001EB8C0EDEED007A3A
:1009F0009FED097A67EE877AF8FE677AFDEEE77A6F
:100A000017EE904A148002EB43020CF1010C0468CB
:100A10006445E9D810BD00BF0000004770B504462A
:100A20000E4615460223D0F8D423FFF7BDFF02235C
:100A3000D4F8D823F1182046FFF7B6FFD4F8E433F2
:100A40001B7E002B5DD1D4F8D823D4F8D41304F541
:100A5000617000F099FED4F8D823D4F8D41304F5CB
:100A60006B7000F091FED4F8E4335B7E002B58D01D
:100A700004F51376D4F8DC33D4F8D42300213046BF
:100A800000F0B7FCD4F8E033D4F8D8230121304685
:100A900000F0AFFC04F59476D4F8D423134600217B
:100AA000304600F0A6FCD4F8D82313460121304686
:100AB00000F09FFC6A6802231A44D4F8DC13204635
:100AC000FFF78EFF02236A68D4F8E0132046FFF791
:100AD00087FFD4F8D823D4F8D41304F55C7000F061
:100AE0009BFE2A6802231A44D4F8D4132046FFF749
:100AF00077FF02232A68D4F8D8132046FFF770FF47
:100B000070BD261DD4F8D42313460021304600F0D2
:100B100070FCD4F8D82313460121304600F069FC5C
:100B200091E76A6802231A44D4F8D4132046FFF7E9
:100B300057FF02236A68D4F8D8132046FFF750FF06
:100B4000C7E7022A05D8DFE802F002060800002302
:100B50000360002070470160FBE70B680360F8E763
:100B6000012A02D101600020704708B5FFF7E9FFB4
:100B7000002008BD022A05D8DFE802F002060800BE
:100B800000230360002070470160FBE70B680360EF
:100B9000F8E7012A02D101600020704708B5FFF78D
:100BA000E9FF002008BD022A05D8DFE802F00206AE
:100BB000080000230360002070470160FBE70B681A
:100BC0000360F8E7012A02D101600020704708B5F0
:100BD000FFF7E9FF002008BD022A05D8DFE802F090
:100BE0000206080000230360002070470160FBE755
:100BF0000B680360F8E7012A02D10160002070470A
:100C000008B5FFF7E9FF002008BD10B5044683686A
:100C100013B1032201469847204610BD00220270FE
:100C2000F02141608260C260026142618261C26102
:100C300080F820204262FF2180F8281080F82910D7
:100C4000C2627047F8B506460F4B1B689F68D7F81D
:100C500098504FF47A7016F001FE0446384601F0C1
:100C600053FB014605EB45052A012046FFF727FE09
:100C7000F4612046FFF77EFEF8BD4FF47A712046FE
:100C800016F01EF916F0B4F90C080020F0B593B078
:100C90000446554B1B685E689B6893F89C3080F84F
:100CA0002030FFF7CFFF94F82030012B38D94E4B7E
:100CB0001B68DD682B681B680422082128469847BA
:100CC000A0602B680194494A00921F6901234FF4E8
:100CD000806247492846B8472B680194454A0092EC
:100CE0001F6903234FF4806243492846B84794F8AC
:100CF0002020531EDBB2012B37D9002A47D1D6F86A
:100D0000880003685A6900230A930B930C930D9390
:100D10000A943A4B0D933A4B0C930AA9904738E04A
:100D2000B06F03685A6900230293039304930593F9
:100D30000294344B0593344B049302A9904702A8C4
:100D4000FFF763FFF06F03685A6900230693079368
:100D50000893099306942D4B09932D4B089306A9EC
:100D6000904706A8FFF751FFA1E72B680194294A95
:100D700000921E6903234FF4806227492846B0473A
:100D8000002322461946254810F042FE606213B047
:100D9000F0BD0AA8FFF739FFD6F8840003685A6946
:100DA00000230E930F93109311930E941C4B1193E9
:100DB0001C4B10930EA990470EA8FFF726FFE6E7FD
:100DC00002A8FFF722FF16F013F906A8FFF71DFF90
:100DD00016F00EF90AA8FFF718FF16F009F90EA889
:100DE000FFF713FF16F004F90C0800207511000836
:100DF0000C920108A91200081C920108850E000837
:100E0000C50B0008E10E0008610B0008F70E000892
:100E1000930B0008E11200082C9201084B13000804
:100E2000B50F0008F70B000890F82030022B03D014
:100E3000012906D00120704709B101207047002028
:100E400070470020704700004369C3B130B583B0DC
:100E5000044683698BB1FFF7E7FF70B100238DF87B
:100E600004308DF80530ADF80630054A1268D068B8
:100E70000268D56801AAA168A84703B030BD7047D1
:100E80000C08002008B500210068FFF7DDFF08BD51
:100E900008B500220270FFF7D7FF08BD08B501238F
:100EA0000370FFF7D1FF08BD30B583B005460C468F
:100EB0001146FFF7B9FF70B10023019301228DF8AD
:100EC0000420ADF80640054A1268D0680268D4686C
:100ED00001AAA968A04703B030BD00BF0C080020DC
:100EE00008B51378006823B902210022FFF7DCFF60
:100EF00008BD0821F9E708B5137800682BB96FF031
:100F000001010022FFF7D0FF08BD6FF00701F8E7ED
:100F100030B583B005460C461146FFF785FF70B12A
:100F20000023019302228DF80420ADF80640054A03
:100F30001268D0680268D46801AAA968A04703B003
:100F400030BD00BF0C08002030B583B005460C460C
:100F50001146FFF769FF70B10023019303228DF85A
:100F60000420ADF80640054A1268D0680268D468CB
:100F700001AAA968A04703B030BD00BF0C0800203B
:100F800030B583B00446FFF74FFF78B105238DF8E5
:100F9000043000238DF80530ADF80630044A12689D
:100FA000D0680268D56801AAA168A84703B030BD1F
:100FB0000C08002008B500210068FFF7E1FF08BD1C
:100FC00010B582B0014606238DF8043000238DF859
:100FD0000530ADF80630054A1268D0680268D4685A
:100FE00001AA8968A04702B010BD00BF0C0800200C
:100FF00010B582B0014607238DF8043000238DF828
:101000000530ADF80630054A1268D0680268D46829
:1010100001AA8968A04702B010BD00BF0C080020DB
:10102000F0B583B00646524B1B68DC6890F8203060
:101030000BB100274DE00221FFF72AFFF9E72F4609
:1010400047E0337883F00103337070690268926877
:1010500073B102219047B06903689B6832784AB146
:101060000221984796F82030012B05D02F4630E01A
:101070000321EFE70321F4E733780BB92F4628E08B
:10108000C821706A10F01CFD2F4622E0384B1B6807
:101090000321986901F0CEFC9DF80430012B0AD0A1
:1010A000BDF9063073607368002B0ADBFF2B0ADD85
:1010B000FF23736007E07368BDF906201344736073
:1010C000F1E700237360B06903681B6A31799847C0
:1010D0002F4623685D684FF0FF3301AAB1682046B0
:1010E000A8470028F5D012F06BFA05469DF80430A9
:1010F000072B03D0A0F1C802BA42EAD3072B9ED82F
:1011000001A252F823F000BF431000088D10000820
:101110008D100008291100083F1000084B1100082D
:101120005711000861110008114B1B6803219869D1
:1011300001F080FCB069BDF806100368DB69003976
:1011400018BF012198472F46C3E7706903685B6A9F
:1011500098472F46BDE7F069FFF70CFC2F46B8E72C
:10116000B06903689B68042198472F46B1E700BF28
:101170000C08002008B5FFF753FF000010B5044627
:10118000C36A0133C362054B1B68D86803689B6957
:10119000E16898470023E36010BD00BF0C08002001
:1011A00010B50446016939B10B4B1B68D868036858
:1011B0009B69984700232361237823B194F820305A
:1011C000012B05D010BD02212046FFF761FEF9E793
:1011D000606A10F0A7FCF5E70C0800202DE9F0414B
:1011E00082B02E4B1B68DE689B68D3F8987007EBC3
:1011F00047022B4BB3EB421F0BD304469501284605
:1012000016F03DFB0090284616F039FB01900025B2
:1012100022E015F097FF606903685B6929469847EB
:101220000146002834D06A46E069FFF7F7FBA06961
:101230000368D3F8148000232A460099C047A069A8
:101240000368D3F8148001232A460199C0476069D6
:1012500003689B692946984712F008FCE0603368F0
:10126000DB694FF0FF31304698476369002BF3D0BC
:10127000A0690028F0D0002DCDD103689B69984764
:1012800000FB07F56D00074BA3FB0535AD09C2E771
:1012900002212046FFF702FEDEE700BF0C08002017
:1012A000FCFFFF3FD34D621008B5FFF797FF00002A
:1012B00038B50446094B1B68DD6802E003681B6A09
:1012C000984712F0D3FB20612B68DB694FF0FF31A8
:1012D0002846984760690028F0D1F2E70C08002002
:1012E00008B5FFF7E5FF000010B5034690F9284068
:1012F000094A1268526801F12C0052F82000586126
:1013000083F82810022901D0204610BD03689B688D
:1013100000219847F8E700BF0C080020034690F929
:101320002900064A1268526801F12A0C02EB8C026D
:1013300052689A6183F82910704700BF0C0800209A
:1013400008B50221FFF7AAFD08BD08B5FFF7F8FFB1
:1013500008BD0346C06A09B10022DA627047036023
:10136000C0F81C11C0F82021704738B5054600248C
:1013700033E00131072922D801EB810302EB83031B
:1013800093ED007AF7EE007AB4EE677AF1EE10FA98
:10139000EFD1D3ED017AF5EE407AF1EE10FAE8D113
:1013A000D3ED027AF5EE407AF1EE10FAE1D1D3ED09
:1013B000037AF5EE407AF1EE10FADAD100E0082176
:1013C000E30118332B4404EB440005EB80000433A5
:1013D000C9B2043005F07AFA0134012C08DC04F1BA
:1013E000460305EB83035A68002AF5D00021C1E7C4
:1013F00038BD08B586468C46114618460CF14603A2
:101400000EEB83035B682BB10CEB4C030EEB8303F9
:101410005B683BB9814204D0DEF80020920016F0F0
:10142000C3FF08BD0CEB4C0C0EEB8C0CDEF800304F
:1014300002460CF1040005F09BF9F2E738B50160B3
:10144000426000238360C3604FF07E53036100233A
:1014500043618361C361036243626FF060439A42F8
:101460000BD204469500284616F009FAA0602846DB
:1014700016F005FAE060204638BD15F063FE000066
:1014800030B52DED028B85B00446DFED397ACDED18
:10149000027A036803F10C0293ED037AB4EEE77A63
:1014A000F1EE10FA00DC02AA1268DA602568D5EDC8
:1014B000036AF7EE007A87EEA67A77EEC77AC4ED74
:1014C000097AD5ED007A95ED047A67EE877ABFEE5A
:1014D000008AC8EE277A17EE900A16F0CFFCA061BA
:1014E000D5ED017A95ED047A67EE877AC8EE277A12
:1014F00017EE900A16F0C2FCE0612B1D95ED017A03
:10150000D5ED007AB4EEE77AF1EE10FA00D42B466E
:10151000D3ED006AF1EE047A86EEA77A8DED017ABA
:10152000DFED147ACDED037AB4EEE77AF1EE10FA3E
:101530001BDC03ABD3ED007ACDED017A236893ED8C
:10154000047A67EE877ABFEE007AC7EE277A17EE45
:10155000900A16F093FC20624FF07E532361002323
:10156000636105B0BDEC028B30BD01ABE2E700BFAB
:101570006F12833A6F12033BF8B52DED028B0446D0
:101580001F464FF0000C04E03D44C5ED007A0CF11D
:10159000010C6368634515D94FEA8C0501EB8C0398
:1015A00093ED007AB0EEC76A02EB8C03D3ED007ABC
:1015B000F0EEE76AB4EEE66AF1EE10FAE4DDF0EE82
:1015C000477AE1E73A463946384605F001F8D4ED66
:1015D000088AB7EE008A38EE688A002515E0D4ED57
:1015E000047A67EEA87A07EB850696ED007A27EE77
:1015F000087A77EE877AC6ED007AC4ED047A17EEA2
:10160000900A04F0EBF8306001356368AB42E6D82D
:1016100094ED047AB7EEC77A9FED0B6BB4EEC67B00
:10162000F1EE10FA01D50A4A22613A4609493846D4
:1016300005F036F863683A460749384605F002F87F
:10164000BDEC028BF8BD00BF82764968C2253C3DE7
:10165000132EE129000020410000404070B50446EF
:101660000E461546036899684368324681F000418A
:10167000304604F0E7FF2368D3ED037A63682A4617
:10168000B7EE007AC7EE277A17EE901A304605F0CB
:1016900007F863682A463146284605F02FF80023EC
:1016A00002E000220A6001336168994209D905EB22
:1016B0008301D1ED007AF5EEC07AF1EE10FAF0DC9C
:1016C000F1E770BDD0ED065AB7EE006A76EE655AC6
:1016D000D0ED077A36EE676A00230CE0D0ED076A9A
:1016E00067EEA67A26EE077A77EE877AC2ED007A61
:1016F00012684261013342689A4215D901EB8302B4
:1017000092ED007AD0ED057AF4EEC77AF1EE10FA98
:10171000E4DDD0ED066A67EEA67A25EE877A77EEED
:10172000877AC2ED007AE3E770470000F8B5064615
:101730001746FFF793FF39463046FFF7C3FF33687C
:10174000D3ED057AF5EE407AF1EE10FA07D1736821
:101750003A460C49384604F0A3FF00240EE07368B3
:101760003A4617EE901A384604F06CFFEFE707EBA5
:101770008405286804F024F8286001347368A342C3
:10178000F5D8F8BDCDCC4C3D03681B7E03B970473E
:1017900070B504460E4615468368FFF7EDFEE26815
:1017A000A1682046FFF7C2FF63683246E168304611
:1017B00004F00EFF63682A46E168284604F008FF3B
:1017C00070BD70B50546164601604260002407E012
:1017D0004FF4D87016F053F8A31C45F823000134D9
:1017E000012CF5DDF00016F04AF82861284670BD9E
:1017F00038B50446006890F8503103B938BD14F08C
:1018000001F9002505E0AB1C54F8230014F0DAF8C8
:101810000135012DF7DDF1E730B583B004461546FB
:10182000036893F850210AB903B030BD08466268D6
:1018300000922269A16814F0FFF86368009323689E
:101840002269E168284614F0F7F8EDE710B582B098
:1018500084460023019302228DF80420ADF806107F
:10186000054A1268D0680268D46801AADCF80C1036
:10187000A04702B010BD00BF0C080020C06B20B113
:1018800008B50368DB68984708BD4BF680307047A1
:101890007047000010B582B0014603238DF8043074
:1018A00000238DF80530ADF80630054A1268D0687F
:1018B0000268D46801AAC968A047012002B010BD1F
:1018C0000C080020002070477047000010B582B05F
:1018D0008446022903D0032912D002B010BD002390
:1018E0008DF804308DF80530ADF806300D4A1268D9
:1018F000D0680268D46801AADCF80C10A047ECE7B5
:1019000001238DF8043000238DF80530ADF8063042
:10191000044A1268D0680268D46801AADCF80C1086
:10192000A047DAE70C08002010B50446054B40F844
:101930001C3B16F077F8044B2360044B23602046D1
:1019400010BD00BFA09201086C92010850920108DE
:1019500010B50446074B40F81C3B16F063F8064BE5
:101960002360064B23605821204615F0A9FA204633
:1019700010BD00BFA09201086C92010850920108AE
:101980000C4A02600C4A02600C4A0260002282602B
:10199000C26002610275826100F12401C1610262CC
:1019A00080F82420C263026442648264C2640265D7
:1019B00042657047509201086C920108A09201089C
:1019C00008B5026D52000021006916F065FC08BDE3
:1019D00030B583B00446214B1B689B68D3F8983020
:1019E00003EB4302520142654FF4615202FB03F3E1
:1019F00003651B4A02610264436400258564C56473
:101A0000FFF7DEFF6563142015F028FF054600F0A0
:101A100085FAA563114D2B68586903689B6A98473E
:101A2000A0612B68DD682B681B680422082128460A
:101A30009847E0602B6801940A4A00921C690123D0
:101A40004FF4806208492846A04703B030BD1421F6
:101A5000284615F035FA15F0CBFA00BF0C08002027
:101A600000000030B51C00083C920108F8B504469F
:101A70003E4B1B685D698368002B28D0002968D124
:101A8000E56B002D69D0236A002B66D0A06903683E
:101A90001B680122E169984700285ED02B681B680B
:101AA000A169284698470646002859D0E56323686F
:101AB0009B69616D2046984723689B69616D20464C
:101AC000984723689B69616D2046984746E02B68DC
:101AD0001B69002128469847A06008B10121CDE785
:101AE00004232375002639E0656BCAE72B681B6960
:101AF000A16828469847002827D0013F002F2AD008
:101B000004F11C0600232362E2691370E3632B686F
:101B10005B69A1682846984701460028E6D0304610
:101B200016F020F9606B28B103685B68314698476E
:101B30000028D9D1A06B0028E0D003685B6831464B
:101B400098470028DAD0A56B9BE70423237500266D
:101B500004E00227D2E7002593E700263046F8BDCF
:101B6000A06903689B689847F8E700BF0C0800204D
:101B7000037D022B12D010B50446012B08D0084B70
:101B80001B680121986900F055FF0223237510BDE1
:101B90000021FFF76BFF0028F1D1F8E7704700BF85
:101BA0000C080020037D022B00D0704710B50446BE
:101BB000054B1B680221986900F03CFF0323237545
:101BC0002046FFF7FDFE10BD0C080020F0B583B0E5
:101BD000064601230375364B1B68DC6802E030467D
:101BE000FFF7C6FF23685D684FF0FF3301AAF16875
:101BF0002046A8470028F5D09DF80430032BF1D8E3
:101C000001A252F823F000BFDF1B0008191C0008D6
:101C1000211C0008811C00083046FFF7C3FFE1E7E4
:101C2000337D022BDED1BDF80650322303FB05F5D0
:101C3000B26CF36C9A421FD3736CB26C9B1AF26C49
:101C400013449D42CED8316CB76CF06B03689B682F
:101C50002A4601EB47019847B36C1D44B564B26C4A
:101C6000736C9A4201D30023B3640028BAD133685D
:101C70005B6A30469847B5E7F36CB26C9B1AE0E7B5
:101C80000023F36301213046FFF7F0FE0028A9D1BD
:101C9000337D042B04D033685B6A30469847A1E754
:101CA000034B1B680021986900F0C4FE9AE700BF4F
:101CB0000C08002008B5FFF789FFA9B110B400E0B7
:101CC00079B14468C368E31A994200D80B46C91A2F
:101CD000C2681344C360C3689C42F1D80023C36048
:101CE000EEE75DF8044B7047704710B5037D042B99
:101CF0000CD0046CC26C04EB4204022B01D02046D1
:101D000010BD416D4030FFF7D8FFF8E70024F6E73B
:101D100030B58DB005460C46416000210161236855
:101D20005B69204698472368DB682C2201A920467E
:101D300098479DF80430522B51D19DF80530492B1E
:101D400050D19DF80630462B4ED19DF80730462BDA
:101D50004CD19DF80C30572B4AD19DF80D30412BBA
:101D600048D19DF80E30562B46D19DF80F30452BAB
:101D700044D19DF81030662B42D19DF811306D2B67
:101D800040D19DF81230742B3ED19DF81330202B9A
:101D90003CD19DF82830642B3AD19DF82930612B35
:101DA00038D19DF82A30742B36D19DF82B30612B19
:101DB00034D19DF81830012B32D19DF819308BBBEE
:101DC0009DF82630102B2FD19DF8273073BB0B9B2D
:101DD0005B08AB60BDF81A30EB60012000E000202A
:101DE0000DB030BD0020FBE70020F9E70020F7E749
:101DF0000020F5E70020F3E70020F1E70020EFE7FF
:101E00000020EDE70020EBE70020E9E70020E7E70E
:101E10000020E5E70020E3E70020E1E70020DFE71E
:101E20000020DDE70020DBE70020D9E70020D7E72E
:101E30004BF680307047000010B400230B60136035
:101E400083684BF6803CC4680CFB04FCB3FBFCF3DA
:101E50000B6003690349A1FB03139B0A13605DF840
:101E6000044B7047F1197605024A0260024A02608B
:101E7000704700BFF8920108D492010838B54C6849
:101E8000042C20D9231F0D68EB5C2E2B01D00020E1
:101E90001AE0E31EE85C16F0DBF9772801D0002099
:101EA00012E0A31EE85C16F0D3F9612801D00020EF
:101EB0000AE0013C285D16F0CBF9762801D000201D
:101EC00002E0012000E0002038BD38B50D4603696E
:101ED000C468B2FBF4F4234403615400406803680F
:101EE000DB6822469847844201D1012038BD221A7E
:101EF0000021284416F0D0F90020F7E710B5044679
:101F0000044B0360044B0360142114F0D9FF2046F6
:101F100010BD00BFF8920108D4920108044A026083
:101F2000044A0260002242608260C260026170471F
:101F3000D4920108F8920108016042608360009B1E
:101F4000C360019B0361029B4361039B83617047F4
:101F5000014B1860704700BF0C0800200022C0F839
:101F60008820C0F88C20C0F89020C0F89420C0F8D9
:101F7000982080F89C20C0F8A02070472DE9F84FE9
:101F80000546A94BC0F894304FF0040AC0F898A059
:101F90002C2015F063FC06464FF02008C0F80080A6
:101FA00000240471447142462146063016F074F94B
:101FB000B4622E602C2015F051FC064622230360EB
:101FC00001270771477142462146063016F064F931
:101FD000B4626E60022015F041FC07704770A86083
:101FE000022015F03BFC04704470E8602C2015F0D2
:101FF00035FC06460460FF2303714FF0020980F8A8
:10200000059042462146063016F046F9B462EE6667
:102010002C672C2015F022FC06464FF0B00BC0F8C0
:1020200000B0047180F805A042462146063016F043
:1020300033F9B4626E672C2015F010FC0646C0F828
:1020400000B007710523437142462146063016F061
:1020500023F9B462AE67082015F000FC9C230360EE
:102060000471C5F888000C2015F0F8FB6F4E06606F
:1020700047600481847228610C2015F0EFFB066034
:10208000C0F804900481847268610C2015F0E6FBAE
:10209000DFF8A091C0F80090C0F804800481847239
:1020A000A861EC610C2015F0D9FBC0F8009010235A
:1020B00043600481847228626C620C2015F0CEFBB0
:1020C00006F540660660C0F804A004818472A86228
:1020D0000C2015F0C3FB06604FF0080BC0F804B0ED
:1020E00004818472E8620C2015F0B8FB06601023AE
:1020F00043600481847228630C2015F0AFFB0660F6
:10210000C0F804800481847268630C2015F0A6FB7B
:1021100006608023436003818772A8630C2015F05A
:102120009DFB06604FF48073436003818772E86310
:102130000C2015F093FB06604FF40073436003819D
:10214000847228640C2015F089FB06604FF48063CC
:1021500043600381847268640C2015F07FFB066085
:102160004FF40067476007818472A8640C2015F063
:1021700075FB06604FF48053436004818472E86409
:102180000C2015F06BFB06604FF400534360048194
:10219000847228650C2015F061FB06604FF48048BE
:1021A000C0F804800481847268650C2015F056FB29
:1021B00006604FF40043436004818472A8650C20DC
:1021C00015F04CFB1A4B0360C0F804800481847244
:1021D000E8650C2015F042FBC0F8009047600481D0
:1021E000847228660C2015F039FBC0F80090C0F806
:1021F00004B00481847268660C2015F02FFBC0F8CF
:102200000090C0F804A004818472A866584615F0B6
:1022100025FBD5F8983003604BF680334360C5F852
:102220009000BDE8F88F00BFF800000100040258DC
:10223000000C025800080258D0F8942001238B406B
:102240001A4214BF012000207047D0F894201031AA
:1022500001238B401A4214BF012000207047D0F8A0
:102260009420183101238B401A4214BF0120002012
:1022700070470000072918D8DFE801F004190806A4
:10228000150A0C0E0C48704700207047002070475C
:102290000A4870470A487047D0F8943013F4802FEA
:1022A00007D0084870470848704700207047074823
:1022B00070470020704700BF88080020E40A002013
:1022C000480A0020800B002000240020380800204D
:1022D00050F821007047B1F1FF3F03D0043150F8AE
:1022E00021007047002070471A3100EB81004068E0
:1022F0007047D0F8880070471E3100EB81004068BD
:102300007047D0F890007047D0F88C0070470000FC
:102310002DE9F04104460D4601F4C003B3F5001F5A
:1023200000F08380B3F5800F49D01BB1002380F803
:102330009C3026E0D0F8943043F48033C0F89430D9
:10234000002680F89C60102015F088FAD4F89830A8
:1023500003604BF680374760484B836006734673D3
:10236000E067102015F07AFAD4F8983003604760DF
:10237000434B8360012303734373C4F88000C4F8A4
:1023800084600023C4F8A0303E4BC4F88C302B0B83
:1023900003F00803C4F8A030AA0B02F004021343B0
:1023A000C4F8A0302A0C02F002021343C4F8A03093
:1023B000C5F380452B43C4F8A030BDE8F081D0F8C8
:1023C0009420314B1343C0F894304FF0010880F84B
:1023D0009C80102015F042FAD4F8983003604BF638
:1023E00080374760254B83600023037302264673C2
:1023F000E067102015F032FAD4F898300360476097
:102400001F4B836080F80C8080F80D80C4F880003A
:10241000102015F023FA066047601C4B836006739A
:1024200004234373C4F88400ABE7D0F8943043F43A
:102430000023C0F89430022380F89C30102015F05F
:102440000DFAD4F8983003604BF6803747600B4B99
:102450008360002606734673E067102015F0FEF9CE
:10246000D4F8983003604760054B83600123037301
:102470004373C4F88000C4F8846082E7E40A002053
:10248000480A00200400002000020400800B002005
:10249000D0F8A030A3B110B582B00446094B1B6838
:1024A000586903685B689847D4F88C1001A800F05D
:1024B00028FBD4F8A01001A800F09EFD02B010BDCA
:1024C000704700BF0C08002038B5044628220021C0
:1024D00015F0E2FE2022002104F1280015F0DCFEB8
:1024E0000025A564E5645C22294604F1500015F03E
:1024F000D3FEC4F8AC50C4F8B050C4F8B450C4F81B
:10250000B850C4F8BC50C4F8C050204638BD0000D4
:10251000F0B583B00446314B1B689D680021284606
:10252000FFF7A8FE014620B1002201A802F086FFB5
:102530000146A16201212846FFF79CFE014620B119
:10254000012201A802F07AFF0146E16200276763D9
:10255000276305212846FFF78DFE064639462846A3
:10256000FFF7CAFE024626B1314601A802F0AAFFD3
:102570000646E66306212846FFF77CFE0646012153
:102580002846FFF7B9FE024626B1314601A802F0FF
:1025900099FF0646266407212846FFF76BFE06468C
:1025A00002212846FFF7A8FE024626B1314601A8BF
:1025B00002F0A0FF0646666404212846FFF75AFE93
:1025C00006462846FFF79DFE024626B1314601A881
:1025D00002F0A8FF0646A66303B0F0BD0C08002079
:1025E000F0B583B00646154B1B689F6800250BE0CD
:1025F0001434002346F8243005E001A802F036FF29
:10260000143446F824000135162D11DC6CB2214635
:102610003846FFF760FE01460028E9D0837A002B98
:10262000EBD001A802F038FF143446F82400EAE7A2
:10263000012003F0E3FA03B0F0BD00BF0C08002056
:1026400008B5034B1B68986900F0A2F908BD00BFEC
:102650000C08002008B5054B1B689A6892F89C206E
:102660001AB9586903685B68984708BD0C080020D0
:1026700070B50546464B1B689C6803212046FFF752
:10268000DBFD58B1182015F0E9F80646002101F0ED
:1026900027FDEE6033681B683046984704212046CA
:1026A000FFF7CAFD58B1182015F0D8F806460121E9
:1026B00001F016FD2E6133681B68304698470721EC
:1026C0002046FFF7B9FD58B1142015F0C7F80646AB
:1026D000002101F06BF9EE6133681B6830469847C2
:1026E00005212046FFF7A8FD58B1142015F0B6F8D3
:1026F0000646022101F05AF96E6133681B683046C4
:10270000984706212046FFF797FD58B1142015F091
:10271000A5F80646032101F049F9AE6133681B684C
:102720003046984709212046FFF786FD00B970BD65
:10273000102015F093F8044601F030FE6C62236817
:102740001B6820469847F2E71821304614F0B8FB82
:1027500014F04EFC1821304614F0B2FB14F048FC83
:102760001421304614F0ACFB14F042FC1421304626
:1027700014F0A6FB14F03CFC1421304614F0A0FB2E
:1027800014F036FC1021204614F09AFB14F030FCB3
:102790000C08002038B5044600238364C364182065
:1027A00015F05CF80546074900F077FDC4F8C05005
:1027B000284600F07DFD38BD1821284614F080FB26
:1027C00014F016FC0024002070B50546474B1B682A
:1027D0009C6800212046FFF738FD58B1582015F0BD
:1027E0003DF80646FFF7CCF8C5F8B06033681B68C3
:1027F0003046984702212046FFF727FD60B1282088
:1028000015F02CF80646072101F068FAC5F8B86003
:1028100033681B683046984703212046FFF715FDB3
:1028200060B1282015F01AF80646042101F056FA86
:10283000C5F8BC6033681B683046984700212046C5
:10284000FFF70DFD80B994F89C30D3B1022B29D04D
:10285000264C236800211869FEF760FD23680221D9
:102860001869FEF741FD17E00C2014F0F7FF06464B
:1028700001F03AFBC5F8AC6033681B6830469847F6
:10288000E1E71A4C236800211869FEF747FD236829
:1028900000211869FEF728FD144B1B681869FEF724
:1028A000F5F970BD114C236800211869FEF736FD5B
:1028B000236803211869FEF717FDEDE7582130461C
:1028C00014F0FEFA14F094FB2821304614F0F8FAC4
:1028D00014F08EFB2821304614F0F2FA14F088FB35
:1028E0000C21304614F0ECFA14F082FB0C080020A6
:1028F000F8B50746002425460EE004F10F0604F162
:10290000230357F8230003685B689847B0FA80F008
:102910004009B04005430134072CEED9034B1B6836
:1029200029469868FFF7F4FCF8BD00BF0C080020AA
:1029300010B50446FFF754FE2046FFF7D9FF2046A6
:10294000FFF7E6FD2046FFF77BFE2046FFF782FEFD
:102950002046FFF71FFF064B1B689868FFF798FD9E
:102960002046FFF785FE2046FFF72EFF10BD00BF73
:102970000C0800200022027042708270C270027146
:1029800042718271C2718260C26002617047000050
:1029900010B5044600230246012109480FF038F81B
:1029A000A06000232246012106480FF031F8E060C4
:1029B00000232246194604480FF02AF8206110BD72
:1029C0002D2A0008952A0008E92A000808B50346C0
:1029D00031B9806806334FF4FA711A7822B108BD14
:1029E000C0680733C821F8E701221A700FF068F8B1
:1029F000F5E7000008B503460278012A0CD0022A48
:102A00000FD00122C270084A12685268906E0268A4
:102A10001268D978904708BDC27882F00102C2706E
:102A2000F1E70022C270EEE70C08002008B5FFF7BE
:102A3000E1FF08BD10B5044603290CD10A4B1B6801
:102A40005B68D86E03681B6800219847962120694F
:102A50000FF036F810BD0170FFF7CCFF00212046C3
:102A6000FFF7B4FFF6E700BF0C080020437873B10E
:102A700010B50446064B1B685B68186F03681B683B
:102A800061799847637983F00103637110BD7047E2
:102A90000C08002008B5FFF7E9FF08BD10B5044693
:102AA00071B1012908D1A170084B1B685B68586F90
:102AB00003681B68002198472046FFF7D7FF10BD29
:102AC00001214170FFF782FFF6E700BF0C080020EC
:102AD00008B5044B1B685B68D86E03681B6801214E
:102AE000984708BD0C08002008B5FFF7F1FF08BDA6
:102AF00008B54068FFF71CFF4FF0FF300EF06AFF8B
:102B0000FAE70160704770B586B00C4615461E4660
:102B100005A802F01FFD6B462A46214605A802F0D3
:102B2000E6FD08B906B070BD0A9B039A314605A8B8
:102B300002F043FDF6E770B586B00C4615461E461A
:102B400005A802F007FD6B462A46214605A802F0BB
:102B5000CEFD08B906B070BD0A9B039A314605A8A0
:102B600002F066FDF6E770B586B00C4615461E46C7
:102B700005A802F0EFFC6B462A46214605A802F0A4
:102B8000B6FD28B19DF80030012B03D0102B0BD0DF
:102B900006B070BD03990A684B6843EC172BF7EE3B
:102BA000C77BC6ED007AF3E7039B1B6807EE903AFC
:102BB000F8EEE77AC6ED007AEAE770B586B00C4623
:102BC00015461E4605A802F0C5FC6B462A4621465E
:102BD00005A802F08CFD28B1039B1B78003B18BFB1
:102BE0000123337006B070BDF0B587B004460E46C1
:102BF00017461D4605A802F0ADFC6B463A46314625
:102C000005A802F074FD08B907B0F0BD2B46144AC0
:102C100003992046FFF7A7FF2B1D124A0399204670
:102C2000FFF7A1FF05F108030F4A03992046FFF7BC
:102C30009AFF05F10C030D4A03992046FFF793FF15
:102C400005F110030A4A03992046FFF78CFF05F1AE
:102C50001403084A03992046FFF785FFD4E700BF15
:102C60001493010824930108349301085493010834
:102C70006893010878930108F0B589B007460C46BF
:102C800015461E4607A802F065FC02AB2A462146FF
:102C900007A802F02CFD08B909B0F0BD5423009339
:102CA0003346034A05993846FFF745FFF4E700BF6E
:102CB0008493010830B58DB00C460BA802F04AFC95
:102CC0002E4B1B689D6806AB2D4A21460BA802F0CF
:102CD0000EFD08B90DB030BD01AB2A4A09990BA809
:102CE00002F005FD10BB01AB274A09990BA802F0C1
:102CF000FEFC40BB01AB254A09990BA802F0F7FC8A
:102D000070BB01AB224A09990BA802F0F0FC002825
:102D1000E0D002212846FFF7E7FA04461023049A80
:102D2000811D0BA802F0ABFCA062D3E7002128466E
:102D3000FFF7CEFA04461023049A811D0BA802F077
:102D40009EFCA062CFE701212846FFF7C1FA0446A6
:102D50001023049A811D0BA802F091FCA062C9E720
:102D600003212846FFF7C0FA04461023049A811D68
:102D70000BA802F084FCA062C3E700BF0C0800208F
:102D800094930108A0930108AC930108B89301083B
:102D9000C893010870B588B004460D4607A802F034
:102DA000D9FB02AB4B4A294607A802F0A0FC002839
:102DB00053D102AB484A294607A802F098FC0028E4
:102DC00050D102AB454A294607A802F090FC0028E2
:102DD0005AD1236803F57773414A29462046FFF705
:102DE00003FF236803F57E733E4A29462046FFF71A
:102DF000FBFE236818333C4A29462046FFF7DDFED8
:102E000023681933394A29462046FFF7D6FE23683E
:102E100003F57D73364A29462046FFF7CEFE236828
:102E200003F58263334A29462046FFF7C6FE23682E
:102E300003F26453304A29462046FFF7BEFE23685A
:102E400003F214432D4A29462046FFF715FF294671
:102E50002046FFF72FFF08B070BD0599206814F0D9
:102E600027FFA6E72368282600961C33244A0599E5
:102E70002046FFF748FE23680096BC33214A059997
:102E80002046FFF740FE9CE723682826009603F5BE
:102E9000AE731D4A05992046FFF735FE236800965C
:102EA00003F5FE73194A05992046FFF72CFE2368A7
:102EB000009603F52773164A05992046FFF723FE6F
:102EC0002368009603F54F73124A05992046FFF7D1
:102ED0001AFE7EE7D8930108E093010828940108C0
:102EE0008494010898940108AC940108BC940108EA
:102EF000CC940108E0940108F494010800950108BD
:102F0000F09301080C9401083894010848940108D2
:102F10005C9401087094010800B5034601FB01FCB4
:102F20000CFB01FE0EFB01F2012099420AD8634519
:102F300007D3734508D3934208D3B3FBF2F30430AD
:102F4000F3E701305DF804FB0230FBE70330F9E7FB
:102F500010B5013919E0154BA3FB023C4FEA5C1395
:102F6000642404FB13234FEA430E4FEA5C120EF174
:102F7000010C0F4C14F80CC000F801C001F1FF3C2B
:102F800014F8133000F80C300239632AE3D8092A08
:102F900008D9530001330649CB5C437011F8123055
:102FA000037010BD30320270FBE700BF1F85EB518C
:102FB0002C95010838B504460D460A212846FFF72E
:102FC000ABFF014604F1080323600022204614F001
:102FD00080FD2A4661682068FFF7BAFF204638BDA9
:102FE00010B50446006810B10368DB6998470023F8
:102FF0002360204610BD000070B590B006460D4617
:10300000364B1B685C692368DB682046984708B923
:1030100010B070BD29460AA8FFF7CCFF304A002146
:103020000AA814F06DFE014602A814F0A8FD0AA833
:1030300014F0F8FC2B4902A814F094FE2368DD6913
:103040000DF1230309AA02992046A847A0B1234BFA
:103050001B68586903689B6A984700220192019097
:1030600003681B680299984718B1099814F007FC87
:1030700006E001A8FFF7B4FF02A814F0D3FCC7E7ED
:10308000044601980368DB68099A21469847099B22
:10309000834204D0019803689B68984704E0214666
:1030A0003046FFF777FEF5E714B1204613F00AFF2C
:1030B00001A8FFF795FF02A814F0B4FCA8E70AA83E
:1030C00014F0B0FC13F094FF01A8FFF789FF02A8E9
:1030D00014F0A8FC13F08CFFF9E700BF0C080020E7
:1030E0000C9501081C9501082DE9F04391B00D469F
:1030F0001646354B1B685C699F682368DB68204671
:10310000984798B1D7F8A03083B1DFF8C88023681A
:103110001B6A4146204698472368D3F81C900DF15E
:10312000230309AA41462046C84710B911B0BDE89B
:10313000F083D7F8A0100AA8FFF73CFF234A00212C
:103140000AA814F0DDFD014602A814F018FD0AA833
:1031500014F068FC1E4902A814F004FE1A4B1B6808
:10316000586903689B6A984700220192019003689E
:103170005B680299984730B1019803681B69324631
:103180002946984706E001A8FFF72AFF02A814F095
:1031900049FCCBE7019803689B68984701A8FFF7B3
:1031A0001FFF02A814F03EFCC0E70AA814F03AFC86
:1031B00013F01EFF01A8FFF713FF02A814F032FC62
:1031C00013F016FFF9E700BF0C0800200C9501086A
:1031D0001C9501082495010810B5044614F022FC42
:1031E000204610BD70B582B004460E46551A0195B2
:1031F0000F2D0DD800942A463146206814F040FC6B
:1032000000220092019B63602168CA5402B070BD25
:10321000002201A914F0E4FB2060019BA360E9E710
:1032200038B500F10803036069B104460D4608464D
:10323000FDF740F84FF000032A1829462046FFF713
:10324000D1FF204638BD014814F0B9FBF8950108BC
:10325000012800D070474FF6FF739942FAD110B59C
:1032600082B0064C01AA06492046FFF7D9FF054A5D
:103270000549204613F0ACFD02B010BD040000204B
:103280002C96010800000020D931000808B54FF63F
:10329000FF710120FFF7DCFF08BD002202604260E1
:1032A00002724272C26002614261C1F8D00270478C
:1032B00030B583B00546002303720F4B1B68DC68F2
:1032C00023681B6820220421204698472860236831
:1032D0001B682022042120469847686023680195D6
:1032E000064A00921D6901234FF48062044920467A
:1032F000A84703B030BD00BF0C080020C538000847
:103300003C9601080A291BD8DFE801F0061C080AD0
:103310000C0E1012141618000B4870470B4870471B
:103320000B4870470B4870470B4870470B48704775
:103330000B4870470B4870470B4870470B48704765
:10334000002070470A4870470000025800080258E1
:10335000000C0258001002580014025800180258BD
:10336000001C02580020025800240258002802586D
:10337000000402582DE9F04186B08A78140901232F
:1033800003FA04F5CB7803F00107C3F3410402F01C
:103390000F01FFF7B7FFE0B1AEB2804674B1002372
:1033A000019302930393049305930196012C0ED08D
:1033B0000023029301A9404604F0D6FF3A46314665
:1033C000404605F0D6F8002006B0BDE8F0810123A4
:1033D000EFE7FF20F8E7000070B588B00546897870
:1033E0000A09012393409CB201F00F01FFF78AFF05
:1033F000F0B106461E2200210DF1020014F04CFF30
:1034000002238DF8003001238DF80130214630462B
:1034100005F0A8F88DF80500064B1B68D86803680E
:10342000DC6800236A466968A047002008B070BDC8
:10343000FF20FBE70C0800205B08002004E032F8C6
:1034400010C021F810C001308342F8DC704770B51D
:1034500082B006460D468C7A04F0030404238A1CCD
:103460000DEB0301FFF7E8FF0423AA1D6946304670
:10347000FFF7E2FF012C0AD0022C0FD01CB1FF2471
:10348000204602B070BD019B009A1A60F8E7019ACD
:10349000136800990B4313600024F1E7019A136845
:1034A000009923EA010313600024E9E730B58BB0EB
:1034B000044604238A1C09A9FFF7BEFF099B1B6869
:1034C00008931E2200210DF1020014F0E5FE0223F4
:1034D0008DF8003001238DF80130042308AA0DF186
:1034E00006012046FFF7A8FF054B1B68D868036854
:1034F000DD6800236A466168A84700200BB030BD34
:103500000C08002070B584B08C468878C9789CF887
:1035100004209CF8053042EA03229CF8063003F0B0
:103520007F0413F0800F15D10123003818BF01204C
:103530000A4D2D686D680A3055F82000056864262C
:10354000029601940CF1070400946C68A04718B926
:1035500004B070BD0223E8E7FF20F9E70C08002063
:103560002DE9F0418EB005468C78CF780E794B79F5
:1035700046EA03268B7903F07F02ADF8362013F07C
:10358000800F33D14FF001081E2200210DF11600EB
:1035900014F082FE02238DF8143001238DF81530CB
:1035A000003C18BF0124154B1B685B680A3453F8B4
:1035B00024000368642202920DF1360201920DF19B
:1035C0001A0200921C68434632463946A047044618
:1035D00078B90A4B1B68D8680368DE68002305AA1F
:1035E0006968B04720460EB0BDE8F0814FF0020890
:1035F000CAE7FF248DF81540EBE700BF0C08002058
:10360000084B1B685B6853F8213033B11B79052BDD
:1036100018BF002B03D100207047002070471046D0
:10362000704700BF0C08002030B589B00546012264
:103630000321FFF7E5FF0446022204212846FFF795
:10364000DFFF0443E4B2042205212846FFF7D8FF38
:103650000443E4B2082206212846FFF7D1FF0443C1
:10366000E4B2102209212846FFF7CAFF0443E4B25E
:10367000164B1B6858690368DB68984718B320230A
:103680001C431E2200210DF1020014F005FE02234E
:103690008DF8003001238DF801308DF80640AA2303
:1036A0008DF8073003238DF808308DF80930074B6B
:1036B0001B68D8680368DC6800236A466968A0470D
:1036C000002009B030BD0023DAE700BF0C0800205D
:1036D00008B54B781B09082B1BD8DFE803F0050859
:1036E0000B0E11141A1A1700FFF744FE08BDFFF75E
:1036F00073FEFBE7FFF7ABFEF8E7FFF7D7FEF5E752
:10370000FFF700FFF2E7FFF72BFFEFE7FFF78CFF74
:10371000ECE70020EAE738B504460D46C06808B17A
:1037200013F0D0FBD5F802006061D5F806302361B4
:103730001B3014F0A4F8E060002038BDC068F0B180
:1037400030B54A88C2EBC20200EB82034C68D1F864
:1037500008E0D1F80CC00D6940F82240C3F804E03D
:10376000C3F808C0DD604C69D1F818E0D1F81CC07E
:103770001C61C3F814E0C3F818C0002030BDFF205E
:1037800070470000F0B58BB00546C068002852D0E5
:10379000164600231C4602E0C15C0C4401336969F3
:1037A0009942F9D81E2200210DF10A0014F074FD8F
:1037B00002238DF8083001238DF809302B69A342CC
:1037C00025D11E4C2368D8680368DF68002302AA4D
:1037D0006968B84723689868FEF796FD014601A816
:1037E000FFF78FF9E96801A8FFF7D4FA2368186991
:1037F000FDF7E6FB23681869FDF7FAFBAEB9E86848
:1038000008B113F05FFB0020E8600BB0F0BDFF24AF
:103810008DF80C40094B1B68D8680368DE680023EC
:1038200002AA6968B0472046EFE76A69E96801A81B
:10383000FFF75AFCE3E7FF20E7E700BF0C08002092
:1038400008B54B781B09033B032B11D8DFE803F0C5
:103850000205080CFFF75FFF08BDFFF76FFFFBE7EE
:103860000022FFF78FFFF7E70122FFF78BFFF3E757
:10387000FF20F1E770B588B00446114B1B68DD6886
:1038800005E069462046FFF7DBFF002323722B6823
:103890005E684FF0FF336A4621682846B04700282B
:1038A000F5D0012323729DF8013013F00F03E8D007
:1038B000012BEAD169462046FFF70AFF6072E4E770
:1038C0000C08002008B5FFF7D5FF000010B58446AE
:1038D0000A46054B1B68D8680368DC680023DCF8DF
:1038E0000010A04710BD00BF0C08002070B588B0C4
:1038F00005460C46184B1B68D86803689E68002371
:103900006A466968B04798B19DF80130012B19D11A
:10391000EC46BCE80F0020606160A260E360BCE898
:103920000F0020616161A261E361002008B070BDF9
:10393000022323702B7A13B1FE232371F5E7FD23B5
:103940002371F2E7002323606360A36002232370E6
:10395000FC232371E9E700BF0C08002008B5D0F86C
:10396000D002FFF7B3FF08BD08B5D0F8D002FFF7CB
:10397000BDFF08BD024A0260024A0260704700BFF4
:1039800058960108509201087047000010B504468F
:10399000044B0360044B0360142113F091FA20469A
:1039A00010BD00BF5896010850920108054A0260F8
:1039B000054A0260417100228260C26002610271A8
:1039C000704700BF509201085896010830B587B083
:1039D0000446C068F8B1002305930423ADF8123003
:1039E0000368642202920DF11202019205AA00926C
:1039F0001D6801230222A168A84738B9059A084B1F
:103A00009A420AD005232371002002E00523237186
:103A1000002007B030BD0120FBE70120F9E700BF1F
:103A2000050B000630B587B004461A4B93E8030037
:103A30000490ADF81410090C8DF81610164B1B6885
:103A400061799868FEF750FC002300E00133826A38
:103A50009A420CD900EB43029279062AF6D800EB81
:103A60004301C97918326A4402F8081CEEE7E0689D
:103A70000368642202920722019204AA00925D6800
:103A800001231A46A168A84708B907B030BD05232D
:103A90002371FAE7E09101080C08002038B50446CC
:103AA0001B4B1B685D6841799868FEF71DFC90F917
:103AB0000430B3F1FF3F26D00A3355F82330E360DA
:103AC0000368A36090F90530B3F1FF3F1DD01433B4
:103AD00055F82300206118B103681B68012198473D
:103AE000E3686BB10A4B1B68D86803685B691421F3
:103AF00098472046FFF76AFF20B12046FFF792FF64
:103B00000123237138BD0023D9E70020E2E700BF7D
:103B10000C080020042900D0704738B5044600691D
:103B2000A8B103681B68002198470F4D2B68D8681F
:103B300003685B690F219847206903681B680121AE
:103B400098472B68D86803685B690F219847002362
:103B500023712046FFF73AFF00B938BD01232371D6
:103B60002046FFF75FFFF8E70C0800204068704729
:103B7000034A0260034A0260034A0260704700BFC2
:103B8000D49601086C9201085092010808B5084BC0
:103B90001B685A6890F92430B3F1FF3F06D00A330E
:103BA00052F823000368DB68984708BD0020F9E756
:103BB0000C0800207047000030B587B00446184B51
:103BC0001B685B6890F92420B2F1FF3F26D002F118
:103BD0000A0153F82100E368042A00D00222B3FB53
:103BE000F2F3ADF816306369E26903EB4203026851
:103BF000002102910DF116050195009315680B4601
:103C00000A46A847E369BDF816201344E361226918
:103C1000934201D30023E36107B030BD0020DAE70F
:103C20000C08002080687047012070470120704711
:103C300010B50446FFF79CFF2821204613F040F9F9
:103C4000204610BD10B50446164B1B689B68D3F880
:103C5000980000EB40035B01E36000EB40039B0135
:103C60002361114A934218D800EB4000C00113F0C1
:103C700006FE606122695200002114F00DFBE0682D
:103C8000094B98420BD8400013F0F9FDA061E2689F
:103C90005200002114F000FB10BD13F053FA13F092
:103CA00051FA00BF0C080020FCFFFF3F10B504468E
:103CB000044B40F8043B13F0B5FE204613F0AFFA76
:103CC000204610BDC096010810B50446FFF7EEFF70
:103CD0001C21204613F0F4F8204610BD094A02606A
:103CE000094A0260094A02604BF680328260002273
:103CF000C260026142618261C261026280F8241086
:103D0000704700BF509201086C920108D4960108D8
:103D100038B504460B4B1B685D6800219868FEF7B8
:103D2000EBFA4368A36094F92430B3F1FF3F06D067
:103D30000A3355F8230003689B68984738BD002074
:103D4000F9E700BF0C080020C269036A9A4201D358
:103D5000D01A704701690A44D01A704738B5044632
:103D60000D46FFF7F1FFA8420BD36069236A00EB11
:103D700043002B4423622269934203D3002323622E
:103D800000E0A06938BD000030B589B005460329C0
:103D900026D8DFE801F0020D1118224B1B68022122
:103DA0009869FEF747FE2846FFF7B2FF09B030BD1D
:103DB00003685B689847F9E71A4B1B68012198690B
:103DC000FEF738FEF2E7174B1B6802219869FEF7F1
:103DD00031FE2A6952000021686914F05DFAE5E7B6
:103DE0000C461C2013F0CAF8054607AA0E492144C8
:103DF00001A8FFF715FA0D4B2B6028460C4B40F835
:103E0000043B01A913F0BBFE01A813F00BFE094A05
:103E10000949284613F008FD284613F0C5F813F0A9
:103E2000E7F800BF0C0800206C9601083CA00108D0
:103E3000C0960108AD3C0008AC960108034A026038
:103E4000034A0260034A0260704700BF58970108A6
:103E50002C970108509201087047704730B585B023
:103E60000D469446094A126852686BB9D06B0368D4
:103E7000002102911FFA8CF4019400955C680B46B6
:103E80000A46A04705B030BD106CF0E70C080020D2
:103E90008068704710B50446FFF7D0FF0C2120461C
:103EA00013F00EF8204610BD38B50C46054B1B68C4
:103EB0005B681D69D86800F08CF92146284600F03F
:103EC00088F938BD0C08002038B50C46054B1B6836
:103ED0005B681D69D86800F0B1F92146284600F0FA
:103EE000ADF938BD0C080020044A0260044A0260A3
:103EF000044A026000228260704700BF50920108AD
:103F00002C970108589701082DE9F84305461B4BEB
:103F10001B685C6800219868FEF7EEF94368AB60A7
:103F2000D4F83C90206CE6682569D4F81C80676959
:103F3000A46903689B689847D9F800309B68484695
:103F40009847D8F800309B680221404698473B6864
:103F50009B6802213846984723689B6802212046C7
:103F6000984733689B680421304698472B689B68C4
:103F7000042128469847BDE8F88300BF0C080020BC
:103F80002DE9F843174B1B685B68DC6B1D6CDF6821
:103F90001E69D3F81C805869D3F8189003689B6891
:103FA00003219847D9F800309B6803214846984779
:103FB000D8F800309B680321404698473B689B68CF
:103FC00003213846984733689B6803213046984759
:103FD0002B68DB68284698472368DB6820469847AB
:103FE000BDE8F8830C08002070B50D4B1B685B68BA
:103FF00058699E69DD681C6903689B6804219847BD
:1040000033689B680421304698472B689B680421DD
:104010002846984723689B6804212046984770BD2E
:104020000C08002030B589B0042912D8DFE801F06F
:104030000603080B0E0003685B68984709B030BDA3
:10404000FFF762FFFAE7FFF79BFFF7E7FFF7CCFF09
:10405000F4E70C461C2012F091FF054607AA0D4913
:10406000214401A8FFF7DCF80B4B2B6028460B4BD3
:1040700040F8043B01A913F082FD01A813F0D2FC23
:10408000074A0849284613F0CFFB284612F08CFF58
:1040900012F0AEFF009701083CA00108C09601088D
:1040A000AD3C0008AC960108024A0260024A026078
:1040B000704700BF849701085092010870470000C4
:1040C00010B50446044B0360044B0360182112F042
:1040D000F7FE204610BD00BF8497010850920108EA
:1040E000064A0260064A0260417100228260C26094
:1040F0000261FF2141610271704700BF50920108C7
:104100008497010830B587B0044600230593042343
:10411000ADF81230C0680368642202920DF11202F9
:10412000019205AA00921D6801230D22A168A847EB
:1041300038B9059B13F5304F08D0052323710020B3
:1041400002E005232371002007B030BD0120FBE70A
:10415000F0B585B00646124B1B6841799868FEF7AA
:10416000B7F80546002400E00134AB6AA34214D935
:1041700005EB44039A79102AF6D8F06819460731FE
:104180000768642302930123019300917F68B1685B
:10419000B8470028E8D00523337105B0F0BD00BF53
:1041A0000C08002030B587B0044681230593C06811
:1041B0000268642302930123019305A900915568C5
:1041C0000022A168A84708B907B030BD05232371B4
:1041D000FAE770B586B004460D4600230593012228
:1041E000ADF81220C0680368642102910DF112013C
:1041F000019105A900911E681346A168B04798B9BE
:10420000ADB1059B43F001030593E06803686422A8
:1042100002920122019205A900915D681346A168EE
:10422000A84740B906B070BD05232371FAE7059B86
:1042300023F00103E8E705232371F3E730B587B0E6
:1042400004468DF814108DF815104161C06803689C
:10425000642202920222019205AA00925D68012363
:104260000322A168A84708B907B030BD0523237110
:10427000FAE710B504460121FFF7ABFF217D204688
:10428000FFF7DCFF2046FFF78DFF2046FFF760FFBA
:1042900000212046FFF79DFF10BD000038B5044601
:1042A000194B1B685D6841799868FEF711F890F921
:1042B0000430B3F1FF3F23D00A3355F82330E360D5
:1042C0000368A36090F90530B3F1FF3F1AD01433AF
:1042D00055F82300206103681B68012198470A4BA9
:1042E0001B68D86803685B69142198472046FFF76C
:1042F00009FF08B1012323712046FFF7BAFF38BD3B
:104300000023DCE70020E5E70C080020042900D0AA
:10431000704738B50446006903681B680021984758
:104320000F4D2B68D86803685B690A21984720699C
:1043300003681B68012198472B68D86803685B698C
:1043400014219847002323712046FFF7DBFE00B9B4
:1043500038BD012323712046FFF78BFFF8E700BF2C
:104360000C080020024A0260024A0260704700BF47
:10437000A0970108509201087047000010B504464C
:10438000044B0360044B0360102112F099FD20469A
:1043900010BD00BFA097010850920108044A0260B6
:1043A000044A026000228260C2600271704700BF4E
:1043B00050920108A097010830B587B00446002349
:1043C00005930122ADF81220C068036864210291B0
:1043D0000DF11201019105A900911D681346A16814
:1043E000A84738B9059B042B18BF062B06D101201E
:1043F00007B030BD052323710020F9E705232371A1
:104400000020F5E730B587B0044601230593C06866
:10441000026864210291019305A900915568032265
:10442000A168A847002840D101230593E0680268ED
:1044300064210291019305A9009155680522A168A4
:10444000A847002835D110230593E068026864234B
:1044500002930123019305A9009155681622A168D2
:10446000A84748BB4FF400030593E0680368642243
:1044700002920422019205AA00925D68012386221D
:10448000A168A847D8B900230593E06802686423AF
:1044900002930123019305A9009155680322A168A5
:1044A000A84720B10523237101E00523237107B03C
:1044B00030BD05232371FAE705232371F7E70523B0
:1044C0002371F4E738B504460E4B1B685D689868A5
:1044D000FDF70FFF90F90430B3F1FF3F0AD00A3324
:1044E00055F82330E3600368A3602046FFF764FFBC
:1044F00010B938BD0023F5E72046FFF783FF0123FD
:104500002371F6E70C080020042900D0704710B58D
:10451000044600230371FFF74FFF00B910BD0123CC
:1045200023712046FFF76EFFF8E700797047407966
:1045300070470000024A0260024A0260704700BFF2
:104540004C980108E8970108024A0260024A02609A
:10455000704700BF24980108C097010808B54FF4C0
:104560000E720021083013F097FE08BD08B508460A
:104570000CF0BEFFB0FA80F0400908BD037903B922
:10458000704710B50446002200F5107110460CF07B
:104590005DFA0023237110BD70B50679D6B90446C3
:1045A0000025042D12DC012204F5107104F108002D
:1045B0000CF04CFA48B10D4B1B68D86803685B6976
:1045C0004FF4FA7198470135EBE7012626B1012334
:1045D00023716371304670BD044B1B6800219869DC
:1045E000FEF75CFA03236371F4E700BF0C080020B8
:1045F00010B54FF40B7013F031F904464FF40B7201
:10460000002113F049FE034B2360034B2360204637
:1046100010BD00BFC09701082498010810B50446DA
:10462000044B0360044B03604FF40B7112F048FC21
:10463000204610BD24980108C097010810B5044613
:10464000044B0360044B03604FF4117112F038FC0B
:10465000204610BD4C980108E897010838B5037949
:104660003BB30C4631B1002120460CF0D1FEC8B955
:10467000204638BD4FF4A47013F0F0F805460F49FA
:104680000CF066FE08B92C46F2E70D4B1B680021C2
:104690009869FEF703FA75B14FF4A471284612F039
:1046A0000FFCE5E74FF4A471204612F009FC00244A
:1046B000DEE70024DCE72C46DAE700BFB497010808
:1046C0000C08002010B50C46C1B104F130012046A1
:1046D0000CF09EFE50B994F846308BB194F8383007
:1046E00013F0100FF1D104F1460006E0054B1B68F2
:1046F00000219869FEF7D2F9002010BD0846FCE7BA
:104700000020FAE70C080020007900B97047F8B5DE
:104710000C4616461F464FF48C7013F09FF8054662
:10472000014620460CF0B0FE044618B92B683360F1
:104730002B7A3B704FF48C71284612F0C1FBB4FA0F
:1047400084F04009F8BD51B110B50C4608460CF094
:104750004EFE4FF4A471204612F0B2FB10BD70471C
:1047600038B51446012204300CF0B2F90546002891
:104770000CBF002404F001041CB9B5FA85F040090F
:1047800038BD034B1B6800219869FEF787F9F4E7F1
:104790000C08002038B514460A2204300CF098F9B1
:1047A000054600280CBF002404F001041CB9B5FA2A
:1047B00085F0400938BD034B1B6800219869FEF75E
:1047C0006DF9F4E70C08002008B504300CF0CDFCBE
:1047D00008BD000000B583B001AB04300CF082FAD4
:1047E00018B9019803B05DF804FB044B1B68002165
:1047F0009869FEF753F900230193F2E70C080020B3
:1048000000B583B001AB04300CF052FB18B901982D
:1048100003B05DF804FB044B1B6800219869FEF7A8
:104820003DF900230193F2E70C08002008B504309D
:104830000CF0B2FCB0FA80F0400908BD054A0260F5
:10484000054A02600022027142713022C0F8402203
:10485000704700BFE89701084C980108704743680B
:104860001889704708B54368CAB29988186803F078
:1048700080FE08BD08B543689988186803F072FE89
:1048800008BD000010B5044603685B68984748B14E
:104890000123237700232246194603480DF0B8F878
:1048A000A06110BD0323F4E7B14A00080369E3B136
:1048B00010B5044603685B689847237F012B02D03C
:1048C000032B09D010BD0028FAD104232377C82177
:1048D000A0690DF0F5F8F5E70028F3D0022323775F
:1048E000C821A0690DF0ECF8ECE7704710B504465C
:1048F000044B40F8083BFCF788F9034B2360204643
:1049000010BD00BFB09801088898010810B5044692
:10491000064B40F8083BFCF778F9054B236018215B
:10492000204612F0CDFA204610BD00BFB098010815
:104930008898010810B50446054B0360054B40F804
:10494000083BFCF762F9044B2360204610BD00BF12
:10495000D8980108B09801088898010810B5044655
:10496000074B0360074B40F8083BFCF74EF9064B3A
:1049700023602021204612F0A3FA204610BD00BF7C
:10498000D8980108B098010888980108F8B50F4632
:1049900000F1500400F1AC0600E00434B44209D048
:1049A0002568002DF9D02B689B6828469847B842A7
:1049B000F3D100E000252846F8BD0000054A02605A
:1049C000054A0260416000228260C2600261426169
:1049D000704700BF88980108B098010808B50146E3
:1049E000044B1B685868FFF7D1FF10B10268D2680A
:1049F000904708BD0C08002008B5FFF7EFFF08BD81
:104A000010B50446FFF7DAFF034B23600023A361D0
:104A10002377204610BD00BFD898010800B583B0A9
:104A200001918DF8032083683BB1C3680DF1030247
:104A300001A9984703B05DF804FB12F0CAFF0369AF
:104A40005BB110B5044603685B68984701460022D5
:104A500004F10800FFF7E2FF10BD704770B504468F
:104A6000037F042B18BF022B0BD103685B689847A8
:104A700028B10123237700264FF47A7503E003233E
:104A8000F8E70126FA25237F032B00D070BD2369A8
:104A90004BB123685B68204698470146324604F1D3
:104AA0000800FFF7BBFF2946A0690DF009F8EDE704
:104AB00008B5FFF7D3FF08BD38B5044600230360EF
:104AC00043608360C3608B6833B10D460222984710
:104AD000EB68E360AB68A360204638BD2046FCF776
:104AE00094F812F085FA82B002460B46EC46D0E903
:104AF00000018CE8030093E8030082E803009CE8CF
:104B0000030083E8030002B0704738B505460C4641
:104B1000FFF7E9FFAB68A268AA60A360EB68E268F0
:104B2000EA60E36038BD10B584B004466846FFF71C
:104B3000C3FF21466846FFF7E8FF6846FCF765F8C3
:104B4000204604B010BD08B50830FFF7ECFF08BDE3
:104B50000020704700207047024A0260024A02604B
:104B6000704700BF249901080099010810B5044658
:104B7000044B0360044B0360602112F0A1F920464E
:104B800010BD00BF249901080099010810B5044622
:104B9000044B1B682021186800F034FE60656368D0
:104BA000DC6410BD0C0800202DE9F04182B0044601
:104BB000884616461D460A9F3946006D0EF01EF9BE
:104BC000012807D027B90125284602B0BDE8F081A9
:104BD0000325F9E70EF04AFFE065636D099A128834
:104BE000019200932B4632461FFA88F1606803F069
:104BF0005DFF0546B0FA80F04009002F08BF002095
:104C000060B9099B1A88616D089813F0CDFB0023E9
:104C10001A461946206D0DF0A4FED5E7394601204D
:104C20000FF02CF8EDE72DE9F04383B004468846F9
:104C300016461D46BDF82C900C9F3946006D0EF0AF
:104C4000DDF8012807D027B90125284603B0BDE8C3
:104C5000F0830325F9E70EF009FFE0654A460A995B
:104C6000606D13F0A1FB636DCDF8049000932B46AB
:104C700032461FFA88F1606803F0A6FE0546B0FAD6
:104C800080F04009002F08BF002030B900231A46E9
:104C90001946206D0DF065FED7E7394601200EF06C
:104CA000EDFFF3E710B504460A4B03600A4B0360BF
:104CB00041600023436580F8582000F1080101207D
:104CC0000DF01FFF03E0034B236012F091F9206504
:104CD000204610BD0099010824990108C36D5BB1FD
:104CE00030B583B0044600250195C06D01A90FF0D1
:104CF00001F8E56503B030BD704708B5C06CFFF73B
:104D0000EDFF08BD08B5C06CFFF7E8FF08BD002047
:104D100070470000024A0260024A0260704700BF0A
:104D2000489901080099010810B50446044B036036
:104D3000044B0360282112F0C3F8204610BD00BFC9
:104D4000489901080099010810B50446836959681B
:104D50001B6803FB01F101F2E731124BA3FB0131A8
:104D600089098B000362104B1B68C900186800F0AA
:104D700049FDE061226A5200002113F08DFAE369D7
:104D8000226A0BB16360A2600023E3602361A36920
:104D90009B686361C3F89840A369587B01F074F87D
:104DA00010BD00BFD34D62100C08002008B5436948
:104DB0001A68136843F480331360028CC169406938
:104DC00007F0F8FE00B908BD0120FCE708B540690E
:104DD00007F012FE00B908BD0120FCE710B4094C31
:104DE0000460094C0460002444608460C460046171
:104DF00041618261C461046280F824405DF8044B23
:104E0000704700BF009901084899010808B549B1E9
:104E100083685B080361012906D1002380F82430F0
:104E2000C36007E000230361012380F82430036A94
:104E30005B08C360024B1B681869FCF7B1F908BD39
:104E40000C08002008B50121D0F89800FFF7DEFF1C
:104E500008BD08B50021D0F89800FFF7D7FF08BDBE
:104E600070B403468468C068844207D39868DC68DD
:104E7000001B824200D81046002206E09868DC68D9
:104E8000001B5C682044F4E7013290420ED91D6893
:104E9000DC68661CDE6035F8144021F81240DD68DD
:104EA0005C68A542F0D30024DC60EDE770BC70477D
:104EB00008B5039B1A8802990430FFF7D1FF002040
:104EC00008BD002070470000024A0260024A0260EA
:104ED000704700BF6C9901080099010810B504469D
:104EE000044B0360044B0360282111F0E9FF2046C6
:104EF00010BD00BF6C9901080099010810B5044667
:104F0000836959681B6803FB01F101F2E731154B16
:104F1000A3FB013189098B000362134B1B68C90095
:104F2000186800F06FFCE061226A5200002113F063
:104F3000B3F9E369226A0BB16360A2600023E36006
:104F40002361A3699B686361C3F89840A3691A7BD6
:104F50001AB9587B00F0A8FF10BD587B00F0B4FFD1
:104F6000FAE700BFD34D62100C08002008B5436972
:104F70001A68136843F480331360028CC169406976
:104F800007F096FD00B908BD0120FCE708B54069AF
:104F900007F032FD00B908BD0120FCE710B4094C50
:104FA0000460094C0460002444608460C4600461AF
:104FB00041618261C461046280F824405DF8044B61
:104FC000704700BF009901086C99010838B5044684
:104FD0000D4683691B7B2BB1012D09D0012384F879
:104FE000243038BD044B1B681869FCF7C7F8F3E799
:104FF000002384F82430F4E70C08002008B50121D0
:10500000D0F89800FFF7E2FF08BD08B50021D0F8FE
:105010009800FFF7DBFF08BD0B46A1B910B481680B
:1050200042685408B1EB520F03D284605DF8044B20
:105030007047002BFAD083684268B3EB520FF5D368
:1050400000238360F2E739B183684268B3EB520F03
:1050500002D300238360704770472DE9F041044676
:10506000884616460027D6B16568A368ED1AAE4299
:1050700000D835462368A0686A0008EB470103EBB7
:10508000400013F091F9761B2F44A3682B44A360D2
:10509000A26863689A42E6D30023A360E3E7BDE811
:1050A000F08110B5041D90F824102046FFF7B4FFDE
:1050B000BDF80C2002992046FFF7CFFF002010BD5D
:1050C000002070470020704700207047024A0260AD
:1050D000024A0260704700BF9099010800990108D8
:1050E00010B50446044B0360044B0360242111F007
:1050F000E7FE204610BD00BF909901080099010805
:1051000070B5054643695C681B6803FB04F404F250
:10511000E7340C4BA3FB0434A4096600A40020462A
:1051200012F0ADFBA8612246002113F0B5F8AB697F
:105130000BB16B60AE600023EB602B61EB69C3F8D1
:10514000CC5270BDD34D621010B4084C0460084CB2
:105150000460002444608460C4600461426184612E
:10516000C16104625DF8044B704700BF00990108FB
:105170009099010808B5034B1B681869FCF7E9F81A
:1051800008BD00BF0C08002008B5034B1B680122B6
:105190001869FBF7BDFE08BD0C08002008B5034BDD
:1051A0001B6801221869FBF7CFFE08BD0C08002020
:1051B00008B5012914BF00210121D0F8CC02FFF766
:1051C000D9FF08BD08B5012914BF00210121D0F87D
:1051D000CC02FFF7E3FF08BD08B5D0F8CC02FFF71B
:1051E000D3FF08BD70B403468468C068844207D307
:1051F0009868DC68001B824200D81046002206E056
:105200009868DC68001B5C682044F4E70132904237
:105210000ED91D68DC68661CDE6035F9144021F883
:105220001240DD685C68A542F0D30024DC60EDE745
:1052300070BC704738B50446059D2A88049904302F
:10524000FFF7D0FF2880236A01332362002038BD96
:105250002DE9F0410446884616460027D6B1656818
:10526000A368ED1AAE4200D835462368A0686A00EC
:1052700008EB470103EB400013F096F8761B2F4430
:10528000A3682B44A360A26863689A42E6D3002314
:10529000A360E3E7BDE8F08108B552080430FFF7EA
:1052A000D7FF034B1B681869FBF77AFF08BD00BFE7
:1052B0000C08002008B5D0F8CC02FFF7EDFF08BDC0
:1052C000024A0260024A0260704700BFE499010886
:1052D000B499010808B50846114600220CF0C6FD35
:1052E00008BD08B5084611461A460DF0D8FC08BDA1
:1052F00000B583B0084611460023019301AA0DF0C2
:1053000050FE019B4BB14FF0E0234FF08052C3F8A9
:10531000042DBFF34F8FBFF36F8F012003B05DF8F3
:1053200004FB000010B50446044B0360044B03600B
:10533000042111F0C5FD204610BD00BFE49901080D
:10534000B499010808B508460CF044FB08BD08B53F
:105350000846114600220DF09CFA08BD08B5012050
:105360000EF08CFC08BDB1B100B583B00846002337
:10537000019301A90EF0BEFC019B4BB14FF0E0235D
:105380004FF08052C3F8042DBFF34F8FBFF36F8FE0
:1053900003B05DF804FB70472DE9F04104460F4669
:1053A00016461D4600F1040824220021404612F052
:1053B00073FF6760A661E5614246079906980CF0A5
:1053C0009DFA20602046BDE8F081F0B583B00D461F
:1053D0001646022B14D0032B14D0012B0ED0082715
:1053E000282012F03BFA0446099B0193089B009386
:1053F0003B4632462946FFF7CFFF0BE01827EFE781
:105400002827EDE73027EBE72821204611F058FD4B
:1054100011F0EEFD204603B0F0BD000008B50420F9
:1054200012F01CFA00220260024A0260024A026084
:1054300008BD00BFB4990108E499010870B50D4694
:105440001646602012F00AFA044632462946FFF753
:1054500029FC05E06021204611F032FD11F0C8FD65
:1054600023681B6920469847204670BD38B50D4615
:10547000182012F0F3F904462946FFF79FFA05E0D9
:105480001821204611F01CFD11F0B2FD23681B69A4
:1054900020469847204638BD38B50D46202012F0EA
:1054A000DDF904462946FFF7ABFA05E02021204646
:1054B00011F006FD11F09CFD23681B6920469847FA
:1054C000204638BD70B50D461646282012F0C6F9A4
:1054D000044632462946FFF761FD05E028212046B3
:1054E00011F0EEFC11F084FD23681B6920469847FB
:1054F000204670BD70B50D461646282012F0AEF954
:10550000044632462946FFF769FC05E0282120467B
:1055100011F0D6FC11F06CFD23681B6920469847FA
:10552000204670BD70B50D461646242012F096F93F
:10553000044632462946FFF707FE05E024212046AF
:1055400011F0BEFC11F054FD23681B6920469847FA
:10555000204670BD704770B514460D4615F8016BB6
:10556000167015612846FAF7A5FE431CEA18811C3F
:10557000A160013E0F2E0BD8DFE806F008101C1CBE
:105580000A0A0A190A0A0A0A0A0A0A16082363609A
:10559000A36861680B44A360E26070BDEB580432FD
:1055A00063600630A060F3E704236360F0E7012343
:1055B0006360EDE7EB586360EAE72DE9F04786B0FA
:1055C00080468A4616461F46D2F8009004240025DD
:1055D0000DE004990A684B680AEB850143EC172B30
:1055E000F7EEC77BC1ED007A039B1C440135631CB9
:1055F0004B4519D2BD4217D201AA31194046FFF7D7
:10560000AAFF9DF804C0BCF1010FE2D0BCF1100F5D
:10561000EAD1049B1B6807EE903A0AEB8503F8EE8B
:10562000E77AC3ED007ADFE7284606B0BDE8F087E9
:105630002DE9F04786B080468A4616461F46D2F8C6
:1056400000900424002502E0039B1C44013504F172
:10565000010CCC450FD2BD420DD201AA31194046F2
:10566000FFF779FF9DF80430102BEDD1049B1B68E8
:105670004AF82530E8E7284606B0BDE8F0872DE96E
:10568000F04F87B082460E4617469946D2F800B0D2
:105690000425002409E000221146049812F0C0FD00
:1056A00088F80100039B1D4401346B1C5B451AD232
:1056B0004C4518D201AA79195046FFF74CFF002239
:1056C0001146059812F0ACFD06EB440806F81400EC
:1056D0009DF80430022BDED0102BE3D1049B1B6815
:1056E00088F80130DEE7204607B0BDE8F08F2DE9ED
:1056F000F04387B007460D4616469946D1F800801C
:105700000023C9F80C30042401E0039B1C4404F17D
:10571000010CC4451CD201AA29193846FFF71BFF0A
:1057200031460598FAF7BCFD0028EED19DF804300B
:1057300089F80030049BC9F80C30029BC9F804308A
:10574000039BC9F80830059BC9F81030012000E020
:10575000002007B0BDE8F08300B583B007EE900AE3
:1057600001A9F0EEE77A17EE900A12F059FB07EE66
:10577000900A9FED0F7A27EE877ADFED0E6A37EEFB
:10578000667A27EE877ADFED0C6A37EE267A67EEC7
:10579000877A9FED0A7A77EEC77A9DED017AB8EEA7
:1057A000C77A77EE277A17EE900A03B05DF804FB0C
:1057B000A8A19D3FF5CA8340FBB3C040E09248409A
:1057C00008B507EE100ADFED047A67EE277A17EEC8
:1057D000900A12F053FB08BD8E5D134008B5FFF729
:1057E000BBFF07EE100ADFED037A67EE277A17EEAC
:1057F000900A08BD9B209A3E0160426000228260B0
:105800007047000030B589B0034601F11F0424F051
:105810001F0481680A194068824204D81868084445
:105820009A6009B030BD1C2011F0A8FB054607AAFC
:105830000D49214401A8FDF7F3FC0C4B2B602846D1
:105840000B4B40F8043B01A912F099F901A812F0A2
:10585000E9F8084A0849284611F0E6FF284611F001
:10586000A3FB11F0C5FB00BF0C9A01083CA0010886
:10587000C0960108AD3C0008AC96010808B509487F
:10588000094B0360002303714371436180238361EB
:105890000123036201F046F900B908BDFBF70EF8D9
:1058A000FBE700BF10080020004C025802680A4BBA
:1058B0009A4200D0704782B0A3F50063D3F8E0208D
:1058C00042F40022C3F8E020D3F8E03003F40023D0
:1058D0000193019B02B07047004C025800B583B0A1
:1058E000234BD3F8D82042F00102C3F8D820D3F8D4
:1058F000D83003F001030193019B002205210B2006
:1059000001F0A0F80B2001F0ADF8002205210C20D9
:1059100001F098F80C2001F0A5F8002205210D20D7
:1059200001F090F80D2001F09DF8002205210E20D5
:1059300001F088F80E2001F095F8002205210F20D3
:1059400001F080F80F2001F08DF8002205211020D1
:1059500001F078F8102001F085F8002205211120CF
:1059600001F070F8112001F07DF803B05DF804FB40
:105970000044025808B50146034A04480BF0BEFF34
:10598000034B186008BD00BF549A0108F12A0008B3
:1059900034080020704700002DE9F0478CB0002447
:1059A0000794089409940A940B948D4BD3F8E02043
:1059B00042F01002C3F8E020D3F8E02002F0100219
:1059C0000192019AD3F8E02042F00402C3F8E020EB
:1059D000D3F8E02002F004020292029AD3F8E02009
:1059E00042F08002C3F8E020D3F8E02002F0800209
:1059F0000392039AD3F8E02042F00102C3F8E020BA
:105A0000D3F8E02002F001020492049AD3F8E020D7
:105A100042F00202C3F8E020D3F8E02002F00202D4
:105A20000592059AD3F8E02042F00802C3F8E0207E
:105A3000D3F8E03003F008030693069B694E012279
:105A40003C21304602F095FD674F22463021384612
:105A500002F08FFDDFF89CA122460321504602F0A0
:105A600088FD3C2307930125089509940A9407A90A
:105A7000304602F079FC422307930894099407A961
:105A8000304602F071FC4FF4BE530793089409941A
:105A900007A9384602F068FC4FF4005307930895B5
:105AA000099407A9384602F05FFC07954FF00308F8
:105AB000CDF82080099407A9384602F055FC40F63D
:105AC0000C0307930894099507A9384602F04CFC8B
:105AD000F5230793CDF820800994DFF81C9107A9DE
